{
  "contractName": "ERC721example",
  "abi": [
    {
      "inputs": [
        {
          "internalType": "string",
          "name": "_name",
          "type": "string"
        },
        {
          "internalType": "string",
          "name": "_symbol",
          "type": "string"
        }
      ],
      "stateMutability": "nonpayable",
      "type": "constructor"
    },
    {
      "anonymous": false,
      "inputs": [
        {
          "indexed": true,
          "internalType": "address",
          "name": "owner",
          "type": "address"
        },
        {
          "indexed": true,
          "internalType": "address",
          "name": "approved",
          "type": "address"
        },
        {
          "indexed": true,
          "internalType": "uint256",
          "name": "tokenId",
          "type": "uint256"
        }
      ],
      "name": "Approval",
      "type": "event"
    },
    {
      "anonymous": false,
      "inputs": [
        {
          "indexed": true,
          "internalType": "address",
          "name": "owner",
          "type": "address"
        },
        {
          "indexed": true,
          "internalType": "address",
          "name": "operator",
          "type": "address"
        },
        {
          "indexed": false,
          "internalType": "bool",
          "name": "approved",
          "type": "bool"
        }
      ],
      "name": "ApprovalForAll",
      "type": "event"
    },
    {
      "anonymous": false,
      "inputs": [
        {
          "indexed": true,
          "internalType": "address",
          "name": "from",
          "type": "address"
        },
        {
          "indexed": true,
          "internalType": "address",
          "name": "to",
          "type": "address"
        },
        {
          "indexed": true,
          "internalType": "uint256",
          "name": "tokenId",
          "type": "uint256"
        }
      ],
      "name": "Transfer",
      "type": "event"
    },
    {
      "stateMutability": "payable",
      "type": "fallback"
    },
    {
      "inputs": [
        {
          "internalType": "address",
          "name": "to",
          "type": "address"
        },
        {
          "internalType": "uint256",
          "name": "tokenId",
          "type": "uint256"
        }
      ],
      "name": "approve",
      "outputs": [],
      "stateMutability": "nonpayable",
      "type": "function"
    },
    {
      "inputs": [
        {
          "internalType": "address",
          "name": "owner",
          "type": "address"
        }
      ],
      "name": "balanceOf",
      "outputs": [
        {
          "internalType": "uint256",
          "name": "",
          "type": "uint256"
        }
      ],
      "stateMutability": "view",
      "type": "function"
    },
    {
      "inputs": [
        {
          "internalType": "uint256",
          "name": "tokenId",
          "type": "uint256"
        }
      ],
      "name": "getApproved",
      "outputs": [
        {
          "internalType": "address",
          "name": "",
          "type": "address"
        }
      ],
      "stateMutability": "view",
      "type": "function"
    },
    {
      "inputs": [
        {
          "internalType": "address",
          "name": "owner",
          "type": "address"
        },
        {
          "internalType": "address",
          "name": "operator",
          "type": "address"
        }
      ],
      "name": "isApprovedForAll",
      "outputs": [
        {
          "internalType": "bool",
          "name": "",
          "type": "bool"
        }
      ],
      "stateMutability": "view",
      "type": "function"
    },
    {
      "inputs": [],
      "name": "name",
      "outputs": [
        {
          "internalType": "string",
          "name": "",
          "type": "string"
        }
      ],
      "stateMutability": "view",
      "type": "function"
    },
    {
      "inputs": [
        {
          "internalType": "uint256",
          "name": "tokenId",
          "type": "uint256"
        }
      ],
      "name": "ownerOf",
      "outputs": [
        {
          "internalType": "address",
          "name": "",
          "type": "address"
        }
      ],
      "stateMutability": "view",
      "type": "function"
    },
    {
      "inputs": [
        {
          "internalType": "address",
          "name": "from",
          "type": "address"
        },
        {
          "internalType": "address",
          "name": "to",
          "type": "address"
        },
        {
          "internalType": "uint256",
          "name": "tokenId",
          "type": "uint256"
        }
      ],
      "name": "safeTransferFrom",
      "outputs": [],
      "stateMutability": "nonpayable",
      "type": "function"
    },
    {
      "inputs": [
        {
          "internalType": "address",
          "name": "from",
          "type": "address"
        },
        {
          "internalType": "address",
          "name": "to",
          "type": "address"
        },
        {
          "internalType": "uint256",
          "name": "tokenId",
          "type": "uint256"
        },
        {
          "internalType": "bytes",
          "name": "_data",
          "type": "bytes"
        }
      ],
      "name": "safeTransferFrom",
      "outputs": [],
      "stateMutability": "nonpayable",
      "type": "function"
    },
    {
      "inputs": [
        {
          "internalType": "address",
          "name": "operator",
          "type": "address"
        },
        {
          "internalType": "bool",
          "name": "approved",
          "type": "bool"
        }
      ],
      "name": "setApprovalForAll",
      "outputs": [],
      "stateMutability": "nonpayable",
      "type": "function"
    },
    {
      "inputs": [
        {
          "internalType": "bytes4",
          "name": "interfaceId",
          "type": "bytes4"
        }
      ],
      "name": "supportsInterface",
      "outputs": [
        {
          "internalType": "bool",
          "name": "",
          "type": "bool"
        }
      ],
      "stateMutability": "view",
      "type": "function"
    },
    {
      "inputs": [],
      "name": "symbol",
      "outputs": [
        {
          "internalType": "string",
          "name": "",
          "type": "string"
        }
      ],
      "stateMutability": "view",
      "type": "function"
    },
    {
      "inputs": [
        {
          "internalType": "uint256",
          "name": "tokenId",
          "type": "uint256"
        }
      ],
      "name": "tokenURI",
      "outputs": [
        {
          "internalType": "string",
          "name": "",
          "type": "string"
        }
      ],
      "stateMutability": "view",
      "type": "function"
    },
    {
      "inputs": [
        {
          "internalType": "address",
          "name": "from",
          "type": "address"
        },
        {
          "internalType": "address",
          "name": "to",
          "type": "address"
        },
        {
          "internalType": "uint256",
          "name": "tokenId",
          "type": "uint256"
        }
      ],
      "name": "transferFrom",
      "outputs": [],
      "stateMutability": "nonpayable",
      "type": "function"
    },
    {
      "stateMutability": "payable",
      "type": "receive"
    },
    {
      "inputs": [
        {
          "internalType": "address",
          "name": "_whom",
          "type": "address"
        },
        {
          "internalType": "uint256",
          "name": "_id",
          "type": "uint256"
        }
      ],
      "name": "mint",
      "outputs": [],
      "stateMutability": "nonpayable",
      "type": "function"
    },
    {
      "inputs": [
        {
          "internalType": "uint256",
          "name": "_id",
          "type": "uint256"
        }
      ],
      "name": "mint",
      "outputs": [],
      "stateMutability": "nonpayable",
      "type": "function"
    },
    {
      "inputs": [
        {
          "internalType": "uint256",
          "name": "_id",
          "type": "uint256"
        }
      ],
      "name": "burn",
      "outputs": [],
      "stateMutability": "nonpayable",
      "type": "function"
    },
    {
      "inputs": [],
      "name": "totalSupply",
      "outputs": [
        {
          "internalType": "uint256",
          "name": "",
          "type": "uint256"
        }
      ],
      "stateMutability": "view",
      "type": "function"
    }
  ],
  "bytecode": "0x60806040523480156200001157600080fd5b5060405162002d3d38038062002d3d833981810160405281019062000037919062000197565b818181600090805190602001906200005192919062000075565b5080600190805190602001906200006a92919062000075565b50505050506200037a565b82805462000083906200029f565b90600052602060002090601f016020900481019282620000a75760008555620000f3565b82601f10620000c257805160ff1916838001178555620000f3565b82800160010185558215620000f3579182015b82811115620000f2578251825591602001919060010190620000d5565b5b50905062000102919062000106565b5090565b5b808211156200012157600081600090555060010162000107565b5090565b60006200013c620001368462000233565b6200020a565b9050828152602081018484840111156200015557600080fd5b6200016284828562000269565b509392505050565b600082601f8301126200017c57600080fd5b81516200018e84826020860162000125565b91505092915050565b60008060408385031215620001ab57600080fd5b600083015167ffffffffffffffff811115620001c657600080fd5b620001d4858286016200016a565b925050602083015167ffffffffffffffff811115620001f257600080fd5b62000200858286016200016a565b9150509250929050565b60006200021662000229565b9050620002248282620002d5565b919050565b6000604051905090565b600067ffffffffffffffff8211156200025157620002506200033a565b5b6200025c8262000369565b9050602081019050919050565b60005b83811015620002895780820151818401526020810190506200026c565b8381111562000299576000848401525b50505050565b60006002820490506001821680620002b857607f821691505b60208210811415620002cf57620002ce6200030b565b5b50919050565b620002e08262000369565b810181811067ffffffffffffffff821117156200030257620003016200033a565b5b80604052505050565b7f4e487b7100000000000000000000000000000000000000000000000000000000600052602260045260246000fd5b7f4e487b7100000000000000000000000000000000000000000000000000000000600052604160045260246000fd5b6000601f19601f8301169050919050565b6129b3806200038a6000396000f3fe6080604052600436106101025760003560e01c806342966c6811610095578063a0712d6811610064578063a0712d6814610386578063a22cb465146103af578063b88d4fde146103d8578063c87b56dd14610401578063e985e9c51461043e57610109565b806342966c68146102b85780636352211e146102e157806370a082311461031e57806395d89b411461035b57610109565b806318160ddd116100d157806318160ddd1461021257806323b872dd1461023d57806340c10f191461026657806342842e0e1461028f57610109565b806301ffc9a71461014457806306fdde0314610181578063081812fc146101ac578063095ea7b3146101e957610109565b3661010957005b6040517f08c379a000000000000000000000000000000000000000000000000000000000815260040161013b90612129565b60405180910390fd5b34801561015057600080fd5b5061016b60048036038101906101669190611b49565b61047b565b6040516101789190611f2c565b60405180910390f35b34801561018d57600080fd5b5061019661055d565b6040516101a39190611f47565b60405180910390f35b3480156101b857600080fd5b506101d360048036038101906101ce9190611b9b565b6105ef565b6040516101e09190611ec5565b60405180910390f35b3480156101f557600080fd5b50610210600480360381019061020b9190611b0d565b610674565b005b34801561021e57600080fd5b5061022761078c565b6040516102349190612149565b60405180910390f35b34801561024957600080fd5b50610264600480360381019061025f9190611a07565b610791565b005b34801561027257600080fd5b5061028d60048036038101906102889190611b0d565b6107f1565b005b34801561029b57600080fd5b506102b660048036038101906102b19190611a07565b6107ff565b005b3480156102c457600080fd5b506102df60048036038101906102da9190611b9b565b61081f565b005b3480156102ed57600080fd5b5061030860048036038101906103039190611b9b565b61082b565b6040516103159190611ec5565b60405180910390f35b34801561032a57600080fd5b50610345600480360381019061034091906119a2565b6108dd565b6040516103529190612149565b60405180910390f35b34801561036757600080fd5b50610370610995565b60405161037d9190611f47565b60405180910390f35b34801561039257600080fd5b506103ad60048036038101906103a89190611b9b565b610a27565b005b3480156103bb57600080fd5b506103d660048036038101906103d19190611ad1565b610a34565b005b3480156103e457600080fd5b506103ff60048036038101906103fa9190611a56565b610bb5565b005b34801561040d57600080fd5b5061042860048036038101906104239190611b9b565b610c17565b6040516104359190611f47565b60405180910390f35b34801561044a57600080fd5b50610465600480360381019061046091906119cb565b610cbe565b6040516104729190611f2c565b60405180910390f35b60007f80ac58cd000000000000000000000000000000000000000000000000000000007bffffffffffffffffffffffffffffffffffffffffffffffffffffffff1916827bffffffffffffffffffffffffffffffffffffffffffffffffffffffff1916148061054657507f5b5e139f000000000000000000000000000000000000000000000000000000007bffffffffffffffffffffffffffffffffffffffffffffffffffffffff1916827bffffffffffffffffffffffffffffffffffffffffffffffffffffffff1916145b80610556575061055582610d52565b5b9050919050565b60606000805461056c9061236e565b80601f01602080910402602001604051908101604052809291908181526020018280546105989061236e565b80156105e55780601f106105ba576101008083540402835291602001916105e5565b820191906000526020600020905b8154815290600101906020018083116105c857829003601f168201915b5050505050905090565b60006105fa82610dbc565b610639576040517f08c379a000000000000000000000000000000000000000000000000000000000815260040161063090612089565b60405180910390fd5b6004600083815260200190815260200160002060009054906101000a900473ffffffffffffffffffffffffffffffffffffffff169050919050565b600061067f8261082b565b90508073ffffffffffffffffffffffffffffffffffffffff168373ffffffffffffffffffffffffffffffffffffffff1614156106f0576040517f08c379a00000000000000000000000000000000000000000000000000000000081526004016106e7906120e9565b60405180910390fd5b8073ffffffffffffffffffffffffffffffffffffffff1661070f610e28565b73ffffffffffffffffffffffffffffffffffffffff16148061073e575061073d81610738610e28565b610cbe565b5b61077d576040517f08c379a000000000000000000000000000000000000000000000000000000000815260040161077490612009565b60405180910390fd5b6107878383610e30565b505050565b600090565b6107a261079c610e28565b82610ee9565b6107e1576040517f08c379a00000000000000000000000000000000000000000000000000000000081526004016107d890612109565b60405180910390fd5b6107ec838383610fc7565b505050565b6107fb8282611223565b5050565b61081a83838360405180602001604052806000815250610bb5565b505050565b610828816113f1565b50565b6000806002600084815260200190815260200160002060009054906101000a900473ffffffffffffffffffffffffffffffffffffffff169050600073ffffffffffffffffffffffffffffffffffffffff168173ffffffffffffffffffffffffffffffffffffffff1614156108d4576040517f08c379a00000000000000000000000000000000000000000000000000000000081526004016108cb90612049565b60405180910390fd5b80915050919050565b60008073ffffffffffffffffffffffffffffffffffffffff168273ffffffffffffffffffffffffffffffffffffffff16141561094e576040517f08c379a000000000000000000000000000000000000000000000000000000000815260040161094590612029565b60405180910390fd5b600360008373ffffffffffffffffffffffffffffffffffffffff1673ffffffffffffffffffffffffffffffffffffffff168152602001908152602001600020549050919050565b6060600180546109a49061236e565b80601f01602080910402602001604051908101604052809291908181526020018280546109d09061236e565b8015610a1d5780601f106109f257610100808354040283529160200191610a1d565b820191906000526020600020905b815481529060010190602001808311610a0057829003601f168201915b5050505050905090565b610a313382611223565b50565b610a3c610e28565b73ffffffffffffffffffffffffffffffffffffffff168273ffffffffffffffffffffffffffffffffffffffff161415610aaa576040517f08c379a0000000000000000000000000000000000000000000000000000000008152600401610aa190611fc9565b60405180910390fd5b8060056000610ab7610e28565b73ffffffffffffffffffffffffffffffffffffffff1673ffffffffffffffffffffffffffffffffffffffff16815260200190815260200160002060008473ffffffffffffffffffffffffffffffffffffffff1673ffffffffffffffffffffffffffffffffffffffff16815260200190815260200160002060006101000a81548160ff0219169083151502179055508173ffffffffffffffffffffffffffffffffffffffff16610b64610e28565b73ffffffffffffffffffffffffffffffffffffffff167f17307eab39ab6107e8899845ad3d59bd9653f200f220920489ca2b5937696c3183604051610ba99190611f2c565b60405180910390a35050565b610bc6610bc0610e28565b83610ee9565b610c05576040517f08c379a0000000000000000000000000000000000000000000000000000000008152600401610bfc90612109565b60405180910390fd5b610c1184848484611502565b50505050565b6060610c2282610dbc565b610c61576040517f08c379a0000000000000000000000000000000000000000000000000000000008152600401610c58906120c9565b60405180910390fd5b6000610c6b61155e565b90506000815111610c8b5760405180602001604052806000815250610cb6565b80610c9584611575565b604051602001610ca6929190611ea1565b6040516020818303038152906040525b915050919050565b6000600560008473ffffffffffffffffffffffffffffffffffffffff1673ffffffffffffffffffffffffffffffffffffffff16815260200190815260200160002060008373ffffffffffffffffffffffffffffffffffffffff1673ffffffffffffffffffffffffffffffffffffffff16815260200190815260200160002060009054906101000a900460ff16905092915050565b60007f01ffc9a7000000000000000000000000000000000000000000000000000000007bffffffffffffffffffffffffffffffffffffffffffffffffffffffff1916827bffffffffffffffffffffffffffffffffffffffffffffffffffffffff1916149050919050565b60008073ffffffffffffffffffffffffffffffffffffffff166002600084815260200190815260200160002060009054906101000a900473ffffffffffffffffffffffffffffffffffffffff1673ffffffffffffffffffffffffffffffffffffffff1614159050919050565b600033905090565b816004600083815260200190815260200160002060006101000a81548173ffffffffffffffffffffffffffffffffffffffff021916908373ffffffffffffffffffffffffffffffffffffffff160217905550808273ffffffffffffffffffffffffffffffffffffffff16610ea38361082b565b73ffffffffffffffffffffffffffffffffffffffff167f8c5be1e5ebec7d5bd14f71427d1e84f3dd0314c0f7b2291e5b200ac8c7c3b92560405160405180910390a45050565b6000610ef482610dbc565b610f33576040517f08c379a0000000000000000000000000000000000000000000000000000000008152600401610f2a90611fe9565b60405180910390fd5b6000610f3e8361082b565b90508073ffffffffffffffffffffffffffffffffffffffff168473ffffffffffffffffffffffffffffffffffffffff161480610fad57508373ffffffffffffffffffffffffffffffffffffffff16610f95846105ef565b73ffffffffffffffffffffffffffffffffffffffff16145b80610fbe5750610fbd8185610cbe565b5b91505092915050565b8273ffffffffffffffffffffffffffffffffffffffff16610fe78261082b565b73ffffffffffffffffffffffffffffffffffffffff161461103d576040517f08c379a0000000000000000000000000000000000000000000000000000000008152600401611034906120a9565b60405180910390fd5b600073ffffffffffffffffffffffffffffffffffffffff168273ffffffffffffffffffffffffffffffffffffffff1614156110ad576040517f08c379a00000000000000000000000000000000000000000000000000000000081526004016110a490611fa9565b60405180910390fd5b6110b8838383611722565b6110c3600082610e30565b6001600360008573ffffffffffffffffffffffffffffffffffffffff1673ffffffffffffffffffffffffffffffffffffffff16815260200190815260200160002060008282546111139190612284565b925050819055506001600360008473ffffffffffffffffffffffffffffffffffffffff1673ffffffffffffffffffffffffffffffffffffffff168152602001908152602001600020600082825461116a91906121fd565b92505081905550816002600083815260200190815260200160002060006101000a81548173ffffffffffffffffffffffffffffffffffffffff021916908373ffffffffffffffffffffffffffffffffffffffff160217905550808273ffffffffffffffffffffffffffffffffffffffff168473ffffffffffffffffffffffffffffffffffffffff167fddf252ad1be2c89b69c2b068fc378daa952ba7f163c4a11628f55a4df523b3ef60405160405180910390a4505050565b600073ffffffffffffffffffffffffffffffffffffffff168273ffffffffffffffffffffffffffffffffffffffff161415611293576040517f08c379a000000000000000000000000000000000000000000000000000000000815260040161128a90612069565b60405180910390fd5b61129c81610dbc565b156112dc576040517f08c379a00000000000000000000000000000000000000000000000000000000081526004016112d390611f89565b60405180910390fd5b6112e860008383611722565b6001600360008473ffffffffffffffffffffffffffffffffffffffff1673ffffffffffffffffffffffffffffffffffffffff168152602001908152602001600020600082825461133891906121fd565b92505081905550816002600083815260200190815260200160002060006101000a81548173ffffffffffffffffffffffffffffffffffffffff021916908373ffffffffffffffffffffffffffffffffffffffff160217905550808273ffffffffffffffffffffffffffffffffffffffff16600073ffffffffffffffffffffffffffffffffffffffff167fddf252ad1be2c89b69c2b068fc378daa952ba7f163c4a11628f55a4df523b3ef60405160405180910390a45050565b60006113fc8261082b565b905061140a81600084611722565b611415600083610e30565b6001600360008373ffffffffffffffffffffffffffffffffffffffff1673ffffffffffffffffffffffffffffffffffffffff16815260200190815260200160002060008282546114659190612284565b925050819055506002600083815260200190815260200160002060006101000a81549073ffffffffffffffffffffffffffffffffffffffff021916905581600073ffffffffffffffffffffffffffffffffffffffff168273ffffffffffffffffffffffffffffffffffffffff167fddf252ad1be2c89b69c2b068fc378daa952ba7f163c4a11628f55a4df523b3ef60405160405180910390a45050565b61150d848484610fc7565b61151984848484611727565b611558576040517f08c379a000000000000000000000000000000000000000000000000000000000815260040161154f90611f69565b60405180910390fd5b50505050565b606060405180602001604052806000815250905090565b606060008214156115bd576040518060400160405280600181526020017f3000000000000000000000000000000000000000000000000000000000000000815250905061171d565b600082905060005b600082146115ef5780806115d8906123d1565b915050600a826115e89190612253565b91506115c5565b60008167ffffffffffffffff811115611631577f4e487b7100000000000000000000000000000000000000000000000000000000600052604160045260246000fd5b6040519080825280601f01601f1916602001820160405280156116635781602001600182028036833780820191505090505b5090505b600085146117165760018261167c9190612284565b9150600a8561168b919061241a565b603061169791906121fd565b60f81b8183815181106116d3577f4e487b7100000000000000000000000000000000000000000000000000000000600052603260045260246000fd5b60200101907effffffffffffffffffffffffffffffffffffffffffffffffffffffffffffff1916908160001a905350600a8561170f9190612253565b9450611667565b8093505050505b919050565b505050565b60006117488473ffffffffffffffffffffffffffffffffffffffff166118be565b156118b1578373ffffffffffffffffffffffffffffffffffffffff1663150b7a02611771610e28565b8786866040518563ffffffff1660e01b81526004016117939493929190611ee0565b602060405180830381600087803b1580156117ad57600080fd5b505af19250505080156117de57506040513d601f19601f820116820180604052508101906117db9190611b72565b60015b611861573d806000811461180e576040519150601f19603f3d011682016040523d82523d6000602084013e611813565b606091505b50600081511415611859576040517f08c379a000000000000000000000000000000000000000000000000000000000815260040161185090611f69565b60405180910390fd5b805181602001fd5b63150b7a0260e01b7bffffffffffffffffffffffffffffffffffffffffffffffffffffffff1916817bffffffffffffffffffffffffffffffffffffffffffffffffffffffff1916149150506118b6565b600190505b949350505050565b600080823b905060008111915050919050565b60006118e46118df84612189565b612164565b9050828152602081018484840111156118fc57600080fd5b61190784828561232c565b509392505050565b60008135905061191e81612921565b92915050565b60008135905061193381612938565b92915050565b6000813590506119488161294f565b92915050565b60008151905061195d8161294f565b92915050565b600082601f83011261197457600080fd5b81356119848482602086016118d1565b91505092915050565b60008135905061199c81612966565b92915050565b6000602082840312156119b457600080fd5b60006119c28482850161190f565b91505092915050565b600080604083850312156119de57600080fd5b60006119ec8582860161190f565b92505060206119fd8582860161190f565b9150509250929050565b600080600060608486031215611a1c57600080fd5b6000611a2a8682870161190f565b9350506020611a3b8682870161190f565b9250506040611a4c8682870161198d565b9150509250925092565b60008060008060808587031215611a6c57600080fd5b6000611a7a8782880161190f565b9450506020611a8b8782880161190f565b9350506040611a9c8782880161198d565b925050606085013567ffffffffffffffff811115611ab957600080fd5b611ac587828801611963565b91505092959194509250565b60008060408385031215611ae457600080fd5b6000611af28582860161190f565b9250506020611b0385828601611924565b9150509250929050565b60008060408385031215611b2057600080fd5b6000611b2e8582860161190f565b9250506020611b3f8582860161198d565b9150509250929050565b600060208284031215611b5b57600080fd5b6000611b6984828501611939565b91505092915050565b600060208284031215611b8457600080fd5b6000611b928482850161194e565b91505092915050565b600060208284031215611bad57600080fd5b6000611bbb8482850161198d565b91505092915050565b611bcd816122b8565b82525050565b611bdc816122ca565b82525050565b6000611bed826121ba565b611bf781856121d0565b9350611c0781856020860161233b565b611c1081612507565b840191505092915050565b6000611c26826121c5565b611c3081856121e1565b9350611c4081856020860161233b565b611c4981612507565b840191505092915050565b6000611c5f826121c5565b611c6981856121f2565b9350611c7981856020860161233b565b80840191505092915050565b6000611c926032836121e1565b9150611c9d82612518565b604082019050919050565b6000611cb5601c836121e1565b9150611cc082612567565b602082019050919050565b6000611cd86024836121e1565b9150611ce382612590565b604082019050919050565b6000611cfb6019836121e1565b9150611d06826125df565b602082019050919050565b6000611d1e602c836121e1565b9150611d2982612608565b604082019050919050565b6000611d416038836121e1565b9150611d4c82612657565b604082019050919050565b6000611d64602a836121e1565b9150611d6f826126a6565b604082019050919050565b6000611d876029836121e1565b9150611d92826126f5565b604082019050919050565b6000611daa6020836121e1565b9150611db582612744565b602082019050919050565b6000611dcd602c836121e1565b9150611dd88261276d565b604082019050919050565b6000611df06029836121e1565b9150611dfb826127bc565b604082019050919050565b6000611e13602f836121e1565b9150611e1e8261280b565b604082019050919050565b6000611e366021836121e1565b9150611e418261285a565b604082019050919050565b6000611e596031836121e1565b9150611e64826128a9565b604082019050919050565b6000611e7c6010836121e1565b9150611e87826128f8565b602082019050919050565b611e9b81612322565b82525050565b6000611ead8285611c54565b9150611eb98284611c54565b91508190509392505050565b6000602082019050611eda6000830184611bc4565b92915050565b6000608082019050611ef56000830187611bc4565b611f026020830186611bc4565b611f0f6040830185611e92565b8181036060830152611f218184611be2565b905095945050505050565b6000602082019050611f416000830184611bd3565b92915050565b60006020820190508181036000830152611f618184611c1b565b905092915050565b60006020820190508181036000830152611f8281611c85565b9050919050565b60006020820190508181036000830152611fa281611ca8565b9050919050565b60006020820190508181036000830152611fc281611ccb565b9050919050565b60006020820190508181036000830152611fe281611cee565b9050919050565b6000602082019050818103600083015261200281611d11565b9050919050565b6000602082019050818103600083015261202281611d34565b9050919050565b6000602082019050818103600083015261204281611d57565b9050919050565b6000602082019050818103600083015261206281611d7a565b9050919050565b6000602082019050818103600083015261208281611d9d565b9050919050565b600060208201905081810360008301526120a281611dc0565b9050919050565b600060208201905081810360008301526120c281611de3565b9050919050565b600060208201905081810360008301526120e281611e06565b9050919050565b6000602082019050818103600083015261210281611e29565b9050919050565b6000602082019050818103600083015261212281611e4c565b9050919050565b6000602082019050818103600083015261214281611e6f565b9050919050565b600060208201905061215e6000830184611e92565b92915050565b600061216e61217f565b905061217a82826123a0565b919050565b6000604051905090565b600067ffffffffffffffff8211156121a4576121a36124d8565b5b6121ad82612507565b9050602081019050919050565b600081519050919050565b600081519050919050565b600082825260208201905092915050565b600082825260208201905092915050565b600081905092915050565b600061220882612322565b915061221383612322565b9250827fffffffffffffffffffffffffffffffffffffffffffffffffffffffffffffffff038211156122485761224761244b565b5b828201905092915050565b600061225e82612322565b915061226983612322565b9250826122795761227861247a565b5b828204905092915050565b600061228f82612322565b915061229a83612322565b9250828210156122ad576122ac61244b565b5b828203905092915050565b60006122c382612302565b9050919050565b60008115159050919050565b60007fffffffff0000000000000000000000000000000000000000000000000000000082169050919050565b600073ffffffffffffffffffffffffffffffffffffffff82169050919050565b6000819050919050565b82818337600083830152505050565b60005b8381101561235957808201518184015260208101905061233e565b83811115612368576000848401525b50505050565b6000600282049050600182168061238657607f821691505b6020821081141561239a576123996124a9565b5b50919050565b6123a982612507565b810181811067ffffffffffffffff821117156123c8576123c76124d8565b5b80604052505050565b60006123dc82612322565b91507fffffffffffffffffffffffffffffffffffffffffffffffffffffffffffffffff82141561240f5761240e61244b565b5b600182019050919050565b600061242582612322565b915061243083612322565b9250826124405761243f61247a565b5b828206905092915050565b7f4e487b7100000000000000000000000000000000000000000000000000000000600052601160045260246000fd5b7f4e487b7100000000000000000000000000000000000000000000000000000000600052601260045260246000fd5b7f4e487b7100000000000000000000000000000000000000000000000000000000600052602260045260246000fd5b7f4e487b7100000000000000000000000000000000000000000000000000000000600052604160045260246000fd5b6000601f19601f8301169050919050565b7f4552433732313a207472616e7366657220746f206e6f6e20455243373231526560008201527f63656976657220696d706c656d656e7465720000000000000000000000000000602082015250565b7f4552433732313a20746f6b656e20616c7265616479206d696e74656400000000600082015250565b7f4552433732313a207472616e7366657220746f20746865207a65726f2061646460008201527f7265737300000000000000000000000000000000000000000000000000000000602082015250565b7f4552433732313a20617070726f766520746f2063616c6c657200000000000000600082015250565b7f4552433732313a206f70657261746f7220717565727920666f72206e6f6e657860008201527f697374656e7420746f6b656e0000000000000000000000000000000000000000602082015250565b7f4552433732313a20617070726f76652063616c6c6572206973206e6f74206f7760008201527f6e6572206e6f7220617070726f76656420666f7220616c6c0000000000000000602082015250565b7f4552433732313a2062616c616e636520717565727920666f7220746865207a6560008201527f726f206164647265737300000000000000000000000000000000000000000000602082015250565b7f4552433732313a206f776e657220717565727920666f72206e6f6e657869737460008201527f656e7420746f6b656e0000000000000000000000000000000000000000000000602082015250565b7f4552433732313a206d696e7420746f20746865207a65726f2061646472657373600082015250565b7f4552433732313a20617070726f76656420717565727920666f72206e6f6e657860008201527f697374656e7420746f6b656e0000000000000000000000000000000000000000602082015250565b7f4552433732313a207472616e73666572206f6620746f6b656e2074686174206960008201527f73206e6f74206f776e0000000000000000000000000000000000000000000000602082015250565b7f4552433732314d657461646174613a2055524920717565727920666f72206e6f60008201527f6e6578697374656e7420746f6b656e0000000000000000000000000000000000602082015250565b7f4552433732313a20617070726f76616c20746f2063757272656e74206f776e6560008201527f7200000000000000000000000000000000000000000000000000000000000000602082015250565b7f4552433732313a207472616e736665722063616c6c6572206973206e6f74206f60008201527f776e6572206e6f7220617070726f766564000000000000000000000000000000602082015250565b7f4e6f20737563682066756e6374696f6e00000000000000000000000000000000600082015250565b61292a816122b8565b811461293557600080fd5b50565b612941816122ca565b811461294c57600080fd5b50565b612958816122d6565b811461296357600080fd5b50565b61296f81612322565b811461297a57600080fd5b5056fea2646970667358221220e3e8cb433603716607a5f4ddfda957246f946e346b3f2824e1b528879186968f64736f6c63430008040033",
  "immutableReferences": {},
  "source": " \npragma solidity ^0.8.0;\n\nimport \"@openzeppelin/contracts/token/ERC721/ERC721.sol\";\nimport \"./interfaces/IERC721ext.sol\";\n\ncontract ERC721example is ERC721, IERC721ext {\n    constructor (string  memory _name, string memory _symbol ) \n        ERC721(_name, _symbol)\n    {\n        \n    }\n\n    /**\n    * Custom accessor to create a unique token\n    */\n\n    function mint (uint _id) public \n    {\n        _mint (msg.sender, _id);\n    }\n\n    function mint (address _whom, uint _id) public override\n    {\n        _mint (_whom, _id);\n    }\n\n    function burn (uint _id) public override\n    {\n        _burn( _id);\n    }\n\n    function totalSupply()  external  view override returns  (uint256) {\n        \n    }\n\n    receive  () external payable  {\n     //   revert (\"Can't accept payment without collection and IDs, use dApp to send\");\n    }\n    fallback () external payable {\n        revert (\"No such function\");\n    } \n}",
  "sourcePath": "/mnt/512-2/Uniq/unique-marketplace-contracts/contracts/ERC721example.sol",
  "compiler": {
    "name": "solc",
    "version": "0.8.4+commit.c7e474f2.Emscripten.clang"
  },
  "schemaVersion": "3.4.4",
  "updatedAt": "2022-01-27T11:28:09.755Z",
  "devdoc": {
    "kind": "dev",
    "methods": {
      "approve(address,uint256)": {
        "details": "See {IERC721-approve}."
      },
      "balanceOf(address)": {
        "details": "See {IERC721-balanceOf}."
      },
      "getApproved(uint256)": {
        "details": "See {IERC721-getApproved}."
      },
      "isApprovedForAll(address,address)": {
        "details": "See {IERC721-isApprovedForAll}."
      },
      "name()": {
        "details": "See {IERC721Metadata-name}."
      },
      "ownerOf(uint256)": {
        "details": "See {IERC721-ownerOf}."
      },
      "safeTransferFrom(address,address,uint256)": {
        "details": "See {IERC721-safeTransferFrom}."
      },
      "safeTransferFrom(address,address,uint256,bytes)": {
        "details": "See {IERC721-safeTransferFrom}."
      },
      "setApprovalForAll(address,bool)": {
        "details": "See {IERC721-setApprovalForAll}."
      },
      "supportsInterface(bytes4)": {
        "details": "See {IERC165-supportsInterface}."
      },
      "symbol()": {
        "details": "See {IERC721Metadata-symbol}."
      },
      "tokenURI(uint256)": {
        "details": "See {IERC721Metadata-tokenURI}."
      },
      "transferFrom(address,address,uint256)": {
        "details": "See {IERC721-transferFrom}."
      }
    },
    "version": 1
  },
  "userdoc": {
    "kind": "user",
    "methods": {
      "mint(uint256)": {
        "notice": "Custom accessor to create a unique token"
      }
    },
    "version": 1
  }
}