{
  "contractName": "ERC721example",
  "abi": [
    {
      "inputs": [
        {
          "internalType": "string",
          "name": "_name",
          "type": "string"
        },
        {
          "internalType": "string",
          "name": "_symbol",
          "type": "string"
        }
      ],
      "stateMutability": "nonpayable",
      "type": "constructor"
    },
    {
      "anonymous": false,
      "inputs": [
        {
          "indexed": true,
          "internalType": "address",
          "name": "owner",
          "type": "address"
        },
        {
          "indexed": true,
          "internalType": "address",
          "name": "approved",
          "type": "address"
        },
        {
          "indexed": true,
          "internalType": "uint256",
          "name": "tokenId",
          "type": "uint256"
        }
      ],
      "name": "Approval",
      "type": "event"
    },
    {
      "anonymous": false,
      "inputs": [
        {
          "indexed": true,
          "internalType": "address",
          "name": "owner",
          "type": "address"
        },
        {
          "indexed": true,
          "internalType": "address",
          "name": "operator",
          "type": "address"
        },
        {
          "indexed": false,
          "internalType": "bool",
          "name": "approved",
          "type": "bool"
        }
      ],
      "name": "ApprovalForAll",
      "type": "event"
    },
    {
      "anonymous": false,
      "inputs": [
        {
          "indexed": true,
          "internalType": "address",
          "name": "from",
          "type": "address"
        },
        {
          "indexed": true,
          "internalType": "address",
          "name": "to",
          "type": "address"
        },
        {
          "indexed": true,
          "internalType": "uint256",
          "name": "tokenId",
          "type": "uint256"
        }
      ],
      "name": "Transfer",
      "type": "event"
    },
    {
      "inputs": [
        {
          "internalType": "address",
          "name": "to",
          "type": "address"
        },
        {
          "internalType": "uint256",
          "name": "tokenId",
          "type": "uint256"
        }
      ],
      "name": "approve",
      "outputs": [],
      "stateMutability": "nonpayable",
      "type": "function"
    },
    {
      "inputs": [
        {
          "internalType": "address",
          "name": "owner",
          "type": "address"
        }
      ],
      "name": "balanceOf",
      "outputs": [
        {
          "internalType": "uint256",
          "name": "",
          "type": "uint256"
        }
      ],
      "stateMutability": "view",
      "type": "function"
    },
    {
      "inputs": [
        {
          "internalType": "uint256",
          "name": "tokenId",
          "type": "uint256"
        }
      ],
      "name": "getApproved",
      "outputs": [
        {
          "internalType": "address",
          "name": "",
          "type": "address"
        }
      ],
      "stateMutability": "view",
      "type": "function"
    },
    {
      "inputs": [
        {
          "internalType": "address",
          "name": "owner",
          "type": "address"
        },
        {
          "internalType": "address",
          "name": "operator",
          "type": "address"
        }
      ],
      "name": "isApprovedForAll",
      "outputs": [
        {
          "internalType": "bool",
          "name": "",
          "type": "bool"
        }
      ],
      "stateMutability": "view",
      "type": "function"
    },
    {
      "inputs": [],
      "name": "name",
      "outputs": [
        {
          "internalType": "string",
          "name": "",
          "type": "string"
        }
      ],
      "stateMutability": "view",
      "type": "function"
    },
    {
      "inputs": [
        {
          "internalType": "uint256",
          "name": "tokenId",
          "type": "uint256"
        }
      ],
      "name": "ownerOf",
      "outputs": [
        {
          "internalType": "address",
          "name": "",
          "type": "address"
        }
      ],
      "stateMutability": "view",
      "type": "function"
    },
    {
      "inputs": [
        {
          "internalType": "address",
          "name": "from",
          "type": "address"
        },
        {
          "internalType": "address",
          "name": "to",
          "type": "address"
        },
        {
          "internalType": "uint256",
          "name": "tokenId",
          "type": "uint256"
        }
      ],
      "name": "safeTransferFrom",
      "outputs": [],
      "stateMutability": "nonpayable",
      "type": "function"
    },
    {
      "inputs": [
        {
          "internalType": "address",
          "name": "from",
          "type": "address"
        },
        {
          "internalType": "address",
          "name": "to",
          "type": "address"
        },
        {
          "internalType": "uint256",
          "name": "tokenId",
          "type": "uint256"
        },
        {
          "internalType": "bytes",
          "name": "_data",
          "type": "bytes"
        }
      ],
      "name": "safeTransferFrom",
      "outputs": [],
      "stateMutability": "nonpayable",
      "type": "function"
    },
    {
      "inputs": [
        {
          "internalType": "address",
          "name": "operator",
          "type": "address"
        },
        {
          "internalType": "bool",
          "name": "approved",
          "type": "bool"
        }
      ],
      "name": "setApprovalForAll",
      "outputs": [],
      "stateMutability": "nonpayable",
      "type": "function"
    },
    {
      "inputs": [
        {
          "internalType": "bytes4",
          "name": "interfaceId",
          "type": "bytes4"
        }
      ],
      "name": "supportsInterface",
      "outputs": [
        {
          "internalType": "bool",
          "name": "",
          "type": "bool"
        }
      ],
      "stateMutability": "view",
      "type": "function"
    },
    {
      "inputs": [],
      "name": "symbol",
      "outputs": [
        {
          "internalType": "string",
          "name": "",
          "type": "string"
        }
      ],
      "stateMutability": "view",
      "type": "function"
    },
    {
      "inputs": [
        {
          "internalType": "uint256",
          "name": "tokenId",
          "type": "uint256"
        }
      ],
      "name": "tokenURI",
      "outputs": [
        {
          "internalType": "string",
          "name": "",
          "type": "string"
        }
      ],
      "stateMutability": "view",
      "type": "function"
    },
    {
      "inputs": [
        {
          "internalType": "address",
          "name": "from",
          "type": "address"
        },
        {
          "internalType": "address",
          "name": "to",
          "type": "address"
        },
        {
          "internalType": "uint256",
          "name": "tokenId",
          "type": "uint256"
        }
      ],
      "name": "transferFrom",
      "outputs": [],
      "stateMutability": "nonpayable",
      "type": "function"
    },
    {
      "inputs": [
        {
          "internalType": "address",
          "name": "_whom",
          "type": "address"
        },
        {
          "internalType": "uint256",
          "name": "_id",
          "type": "uint256"
        }
      ],
      "name": "mint",
      "outputs": [],
      "stateMutability": "nonpayable",
      "type": "function"
    },
    {
      "inputs": [
        {
          "internalType": "uint256",
          "name": "_id",
          "type": "uint256"
        }
      ],
      "name": "mint",
      "outputs": [],
      "stateMutability": "nonpayable",
      "type": "function"
    },
    {
      "inputs": [
        {
          "internalType": "uint256",
          "name": "_id",
          "type": "uint256"
        }
      ],
      "name": "burn",
      "outputs": [],
      "stateMutability": "nonpayable",
      "type": "function"
    },
    {
      "inputs": [],
      "name": "totalSupply",
      "outputs": [
        {
          "internalType": "uint256",
          "name": "",
          "type": "uint256"
        }
      ],
      "stateMutability": "view",
      "type": "function"
    }
  ],
  "bytecode": "0x60806040523480156200001157600080fd5b5060405162002bc038038062002bc0833981810160405281019062000037919062000197565b818181600090805190602001906200005192919062000075565b5080600190805190602001906200006a92919062000075565b50505050506200037a565b82805462000083906200029f565b90600052602060002090601f016020900481019282620000a75760008555620000f3565b82601f10620000c257805160ff1916838001178555620000f3565b82800160010185558215620000f3579182015b82811115620000f2578251825591602001919060010190620000d5565b5b50905062000102919062000106565b5090565b5b808211156200012157600081600090555060010162000107565b5090565b60006200013c620001368462000233565b6200020a565b9050828152602081018484840111156200015557600080fd5b6200016284828562000269565b509392505050565b600082601f8301126200017c57600080fd5b81516200018e84826020860162000125565b91505092915050565b60008060408385031215620001ab57600080fd5b600083015167ffffffffffffffff811115620001c657600080fd5b620001d4858286016200016a565b925050602083015167ffffffffffffffff811115620001f257600080fd5b62000200858286016200016a565b9150509250929050565b60006200021662000229565b9050620002248282620002d5565b919050565b6000604051905090565b600067ffffffffffffffff8211156200025157620002506200033a565b5b6200025c8262000369565b9050602081019050919050565b60005b83811015620002895780820151818401526020810190506200026c565b8381111562000299576000848401525b50505050565b60006002820490506001821680620002b857607f821691505b60208210811415620002cf57620002ce6200030b565b5b50919050565b620002e08262000369565b810181811067ffffffffffffffff821117156200030257620003016200033a565b5b80604052505050565b7f4e487b7100000000000000000000000000000000000000000000000000000000600052602260045260246000fd5b7f4e487b7100000000000000000000000000000000000000000000000000000000600052604160045260246000fd5b6000601f19601f8301169050919050565b612836806200038a6000396000f3fe608060405234801561001057600080fd5b506004361061010b5760003560e01c806342966c68116100a2578063a0712d6811610071578063a0712d68146102b6578063a22cb465146102d2578063b88d4fde146102ee578063c87b56dd1461030a578063e985e9c51461033a5761010b565b806342966c681461021c5780636352211e1461023857806370a082311461026857806395d89b41146102985761010b565b806318160ddd116100de57806318160ddd146101aa57806323b872dd146101c857806340c10f19146101e457806342842e0e146102005761010b565b806301ffc9a71461011057806306fdde0314610140578063081812fc1461015e578063095ea7b31461018e575b600080fd5b61012a60048036038101906101259190611a38565b61036a565b6040516101379190611df8565b60405180910390f35b61014861044c565b6040516101559190611e13565b60405180910390f35b61017860048036038101906101739190611a8a565b6104de565b6040516101859190611d91565b60405180910390f35b6101a860048036038101906101a391906119fc565b610563565b005b6101b261067b565b6040516101bf9190611ff5565b60405180910390f35b6101e260048036038101906101dd91906118f6565b610680565b005b6101fe60048036038101906101f991906119fc565b6106e0565b005b61021a600480360381019061021591906118f6565b6106ee565b005b61023660048036038101906102319190611a8a565b61070e565b005b610252600480360381019061024d9190611a8a565b61071a565b60405161025f9190611d91565b60405180910390f35b610282600480360381019061027d9190611891565b6107cc565b60405161028f9190611ff5565b60405180910390f35b6102a0610884565b6040516102ad9190611e13565b60405180910390f35b6102d060048036038101906102cb9190611a8a565b610916565b005b6102ec60048036038101906102e791906119c0565b610923565b005b61030860048036038101906103039190611945565b610aa4565b005b610324600480360381019061031f9190611a8a565b610b06565b6040516103319190611e13565b60405180910390f35b610354600480360381019061034f91906118ba565b610bad565b6040516103619190611df8565b60405180910390f35b60007f80ac58cd000000000000000000000000000000000000000000000000000000007bffffffffffffffffffffffffffffffffffffffffffffffffffffffff1916827bffffffffffffffffffffffffffffffffffffffffffffffffffffffff1916148061043557507f5b5e139f000000000000000000000000000000000000000000000000000000007bffffffffffffffffffffffffffffffffffffffffffffffffffffffff1916827bffffffffffffffffffffffffffffffffffffffffffffffffffffffff1916145b80610445575061044482610c41565b5b9050919050565b60606000805461045b9061221a565b80601f01602080910402602001604051908101604052809291908181526020018280546104879061221a565b80156104d45780601f106104a9576101008083540402835291602001916104d4565b820191906000526020600020905b8154815290600101906020018083116104b757829003601f168201915b5050505050905090565b60006104e982610cab565b610528576040517f08c379a000000000000000000000000000000000000000000000000000000000815260040161051f90611f55565b60405180910390fd5b6004600083815260200190815260200160002060009054906101000a900473ffffffffffffffffffffffffffffffffffffffff169050919050565b600061056e8261071a565b90508073ffffffffffffffffffffffffffffffffffffffff168373ffffffffffffffffffffffffffffffffffffffff1614156105df576040517f08c379a00000000000000000000000000000000000000000000000000000000081526004016105d690611fb5565b60405180910390fd5b8073ffffffffffffffffffffffffffffffffffffffff166105fe610d17565b73ffffffffffffffffffffffffffffffffffffffff16148061062d575061062c81610627610d17565b610bad565b5b61066c576040517f08c379a000000000000000000000000000000000000000000000000000000000815260040161066390611ed5565b60405180910390fd5b6106768383610d1f565b505050565b600090565b61069161068b610d17565b82610dd8565b6106d0576040517f08c379a00000000000000000000000000000000000000000000000000000000081526004016106c790611fd5565b60405180910390fd5b6106db838383610eb6565b505050565b6106ea8282611112565b5050565b61070983838360405180602001604052806000815250610aa4565b505050565b610717816112e0565b50565b6000806002600084815260200190815260200160002060009054906101000a900473ffffffffffffffffffffffffffffffffffffffff169050600073ffffffffffffffffffffffffffffffffffffffff168173ffffffffffffffffffffffffffffffffffffffff1614156107c3576040517f08c379a00000000000000000000000000000000000000000000000000000000081526004016107ba90611f15565b60405180910390fd5b80915050919050565b60008073ffffffffffffffffffffffffffffffffffffffff168273ffffffffffffffffffffffffffffffffffffffff16141561083d576040517f08c379a000000000000000000000000000000000000000000000000000000000815260040161083490611ef5565b60405180910390fd5b600360008373ffffffffffffffffffffffffffffffffffffffff1673ffffffffffffffffffffffffffffffffffffffff168152602001908152602001600020549050919050565b6060600180546108939061221a565b80601f01602080910402602001604051908101604052809291908181526020018280546108bf9061221a565b801561090c5780601f106108e15761010080835404028352916020019161090c565b820191906000526020600020905b8154815290600101906020018083116108ef57829003601f168201915b5050505050905090565b6109203382611112565b50565b61092b610d17565b73ffffffffffffffffffffffffffffffffffffffff168273ffffffffffffffffffffffffffffffffffffffff161415610999576040517f08c379a000000000000000000000000000000000000000000000000000000000815260040161099090611e95565b60405180910390fd5b80600560006109a6610d17565b73ffffffffffffffffffffffffffffffffffffffff1673ffffffffffffffffffffffffffffffffffffffff16815260200190815260200160002060008473ffffffffffffffffffffffffffffffffffffffff1673ffffffffffffffffffffffffffffffffffffffff16815260200190815260200160002060006101000a81548160ff0219169083151502179055508173ffffffffffffffffffffffffffffffffffffffff16610a53610d17565b73ffffffffffffffffffffffffffffffffffffffff167f17307eab39ab6107e8899845ad3d59bd9653f200f220920489ca2b5937696c3183604051610a989190611df8565b60405180910390a35050565b610ab5610aaf610d17565b83610dd8565b610af4576040517f08c379a0000000000000000000000000000000000000000000000000000000008152600401610aeb90611fd5565b60405180910390fd5b610b00848484846113f1565b50505050565b6060610b1182610cab565b610b50576040517f08c379a0000000000000000000000000000000000000000000000000000000008152600401610b4790611f95565b60405180910390fd5b6000610b5a61144d565b90506000815111610b7a5760405180602001604052806000815250610ba5565b80610b8484611464565b604051602001610b95929190611d6d565b6040516020818303038152906040525b915050919050565b6000600560008473ffffffffffffffffffffffffffffffffffffffff1673ffffffffffffffffffffffffffffffffffffffff16815260200190815260200160002060008373ffffffffffffffffffffffffffffffffffffffff1673ffffffffffffffffffffffffffffffffffffffff16815260200190815260200160002060009054906101000a900460ff16905092915050565b60007f01ffc9a7000000000000000000000000000000000000000000000000000000007bffffffffffffffffffffffffffffffffffffffffffffffffffffffff1916827bffffffffffffffffffffffffffffffffffffffffffffffffffffffff1916149050919050565b60008073ffffffffffffffffffffffffffffffffffffffff166002600084815260200190815260200160002060009054906101000a900473ffffffffffffffffffffffffffffffffffffffff1673ffffffffffffffffffffffffffffffffffffffff1614159050919050565b600033905090565b816004600083815260200190815260200160002060006101000a81548173ffffffffffffffffffffffffffffffffffffffff021916908373ffffffffffffffffffffffffffffffffffffffff160217905550808273ffffffffffffffffffffffffffffffffffffffff16610d928361071a565b73ffffffffffffffffffffffffffffffffffffffff167f8c5be1e5ebec7d5bd14f71427d1e84f3dd0314c0f7b2291e5b200ac8c7c3b92560405160405180910390a45050565b6000610de382610cab565b610e22576040517f08c379a0000000000000000000000000000000000000000000000000000000008152600401610e1990611eb5565b60405180910390fd5b6000610e2d8361071a565b90508073ffffffffffffffffffffffffffffffffffffffff168473ffffffffffffffffffffffffffffffffffffffff161480610e9c57508373ffffffffffffffffffffffffffffffffffffffff16610e84846104de565b73ffffffffffffffffffffffffffffffffffffffff16145b80610ead5750610eac8185610bad565b5b91505092915050565b8273ffffffffffffffffffffffffffffffffffffffff16610ed68261071a565b73ffffffffffffffffffffffffffffffffffffffff1614610f2c576040517f08c379a0000000000000000000000000000000000000000000000000000000008152600401610f2390611f75565b60405180910390fd5b600073ffffffffffffffffffffffffffffffffffffffff168273ffffffffffffffffffffffffffffffffffffffff161415610f9c576040517f08c379a0000000000000000000000000000000000000000000000000000000008152600401610f9390611e75565b60405180910390fd5b610fa7838383611611565b610fb2600082610d1f565b6001600360008573ffffffffffffffffffffffffffffffffffffffff1673ffffffffffffffffffffffffffffffffffffffff16815260200190815260200160002060008282546110029190612130565b925050819055506001600360008473ffffffffffffffffffffffffffffffffffffffff1673ffffffffffffffffffffffffffffffffffffffff168152602001908152602001600020600082825461105991906120a9565b92505081905550816002600083815260200190815260200160002060006101000a81548173ffffffffffffffffffffffffffffffffffffffff021916908373ffffffffffffffffffffffffffffffffffffffff160217905550808273ffffffffffffffffffffffffffffffffffffffff168473ffffffffffffffffffffffffffffffffffffffff167fddf252ad1be2c89b69c2b068fc378daa952ba7f163c4a11628f55a4df523b3ef60405160405180910390a4505050565b600073ffffffffffffffffffffffffffffffffffffffff168273ffffffffffffffffffffffffffffffffffffffff161415611182576040517f08c379a000000000000000000000000000000000000000000000000000000000815260040161117990611f35565b60405180910390fd5b61118b81610cab565b156111cb576040517f08c379a00000000000000000000000000000000000000000000000000000000081526004016111c290611e55565b60405180910390fd5b6111d760008383611611565b6001600360008473ffffffffffffffffffffffffffffffffffffffff1673ffffffffffffffffffffffffffffffffffffffff168152602001908152602001600020600082825461122791906120a9565b92505081905550816002600083815260200190815260200160002060006101000a81548173ffffffffffffffffffffffffffffffffffffffff021916908373ffffffffffffffffffffffffffffffffffffffff160217905550808273ffffffffffffffffffffffffffffffffffffffff16600073ffffffffffffffffffffffffffffffffffffffff167fddf252ad1be2c89b69c2b068fc378daa952ba7f163c4a11628f55a4df523b3ef60405160405180910390a45050565b60006112eb8261071a565b90506112f981600084611611565b611304600083610d1f565b6001600360008373ffffffffffffffffffffffffffffffffffffffff1673ffffffffffffffffffffffffffffffffffffffff16815260200190815260200160002060008282546113549190612130565b925050819055506002600083815260200190815260200160002060006101000a81549073ffffffffffffffffffffffffffffffffffffffff021916905581600073ffffffffffffffffffffffffffffffffffffffff168273ffffffffffffffffffffffffffffffffffffffff167fddf252ad1be2c89b69c2b068fc378daa952ba7f163c4a11628f55a4df523b3ef60405160405180910390a45050565b6113fc848484610eb6565b61140884848484611616565b611447576040517f08c379a000000000000000000000000000000000000000000000000000000000815260040161143e90611e35565b60405180910390fd5b50505050565b606060405180602001604052806000815250905090565b606060008214156114ac576040518060400160405280600181526020017f3000000000000000000000000000000000000000000000000000000000000000815250905061160c565b600082905060005b600082146114de5780806114c79061227d565b915050600a826114d791906120ff565b91506114b4565b60008167ffffffffffffffff811115611520577f4e487b7100000000000000000000000000000000000000000000000000000000600052604160045260246000fd5b6040519080825280601f01601f1916602001820160405280156115525781602001600182028036833780820191505090505b5090505b600085146116055760018261156b9190612130565b9150600a8561157a91906122c6565b603061158691906120a9565b60f81b8183815181106115c2577f4e487b7100000000000000000000000000000000000000000000000000000000600052603260045260246000fd5b60200101907effffffffffffffffffffffffffffffffffffffffffffffffffffffffffffff1916908160001a905350600a856115fe91906120ff565b9450611556565b8093505050505b919050565b505050565b60006116378473ffffffffffffffffffffffffffffffffffffffff166117ad565b156117a0578373ffffffffffffffffffffffffffffffffffffffff1663150b7a02611660610d17565b8786866040518563ffffffff1660e01b81526004016116829493929190611dac565b602060405180830381600087803b15801561169c57600080fd5b505af19250505080156116cd57506040513d601f19601f820116820180604052508101906116ca9190611a61565b60015b611750573d80600081146116fd576040519150601f19603f3d011682016040523d82523d6000602084013e611702565b606091505b50600081511415611748576040517f08c379a000000000000000000000000000000000000000000000000000000000815260040161173f90611e35565b60405180910390fd5b805181602001fd5b63150b7a0260e01b7bffffffffffffffffffffffffffffffffffffffffffffffffffffffff1916817bffffffffffffffffffffffffffffffffffffffffffffffffffffffff1916149150506117a5565b600190505b949350505050565b600080823b905060008111915050919050565b60006117d36117ce84612035565b612010565b9050828152602081018484840111156117eb57600080fd5b6117f68482856121d8565b509392505050565b60008135905061180d816127a4565b92915050565b600081359050611822816127bb565b92915050565b600081359050611837816127d2565b92915050565b60008151905061184c816127d2565b92915050565b600082601f83011261186357600080fd5b81356118738482602086016117c0565b91505092915050565b60008135905061188b816127e9565b92915050565b6000602082840312156118a357600080fd5b60006118b1848285016117fe565b91505092915050565b600080604083850312156118cd57600080fd5b60006118db858286016117fe565b92505060206118ec858286016117fe565b9150509250929050565b60008060006060848603121561190b57600080fd5b6000611919868287016117fe565b935050602061192a868287016117fe565b925050604061193b8682870161187c565b9150509250925092565b6000806000806080858703121561195b57600080fd5b6000611969878288016117fe565b945050602061197a878288016117fe565b935050604061198b8782880161187c565b925050606085013567ffffffffffffffff8111156119a857600080fd5b6119b487828801611852565b91505092959194509250565b600080604083850312156119d357600080fd5b60006119e1858286016117fe565b92505060206119f285828601611813565b9150509250929050565b60008060408385031215611a0f57600080fd5b6000611a1d858286016117fe565b9250506020611a2e8582860161187c565b9150509250929050565b600060208284031215611a4a57600080fd5b6000611a5884828501611828565b91505092915050565b600060208284031215611a7357600080fd5b6000611a818482850161183d565b91505092915050565b600060208284031215611a9c57600080fd5b6000611aaa8482850161187c565b91505092915050565b611abc81612164565b82525050565b611acb81612176565b82525050565b6000611adc82612066565b611ae6818561207c565b9350611af68185602086016121e7565b611aff816123b3565b840191505092915050565b6000611b1582612071565b611b1f818561208d565b9350611b2f8185602086016121e7565b611b38816123b3565b840191505092915050565b6000611b4e82612071565b611b58818561209e565b9350611b688185602086016121e7565b80840191505092915050565b6000611b8160328361208d565b9150611b8c826123c4565b604082019050919050565b6000611ba4601c8361208d565b9150611baf82612413565b602082019050919050565b6000611bc760248361208d565b9150611bd28261243c565b604082019050919050565b6000611bea60198361208d565b9150611bf58261248b565b602082019050919050565b6000611c0d602c8361208d565b9150611c18826124b4565b604082019050919050565b6000611c3060388361208d565b9150611c3b82612503565b604082019050919050565b6000611c53602a8361208d565b9150611c5e82612552565b604082019050919050565b6000611c7660298361208d565b9150611c81826125a1565b604082019050919050565b6000611c9960208361208d565b9150611ca4826125f0565b602082019050919050565b6000611cbc602c8361208d565b9150611cc782612619565b604082019050919050565b6000611cdf60298361208d565b9150611cea82612668565b604082019050919050565b6000611d02602f8361208d565b9150611d0d826126b7565b604082019050919050565b6000611d2560218361208d565b9150611d3082612706565b604082019050919050565b6000611d4860318361208d565b9150611d5382612755565b604082019050919050565b611d67816121ce565b82525050565b6000611d798285611b43565b9150611d858284611b43565b91508190509392505050565b6000602082019050611da66000830184611ab3565b92915050565b6000608082019050611dc16000830187611ab3565b611dce6020830186611ab3565b611ddb6040830185611d5e565b8181036060830152611ded8184611ad1565b905095945050505050565b6000602082019050611e0d6000830184611ac2565b92915050565b60006020820190508181036000830152611e2d8184611b0a565b905092915050565b60006020820190508181036000830152611e4e81611b74565b9050919050565b60006020820190508181036000830152611e6e81611b97565b9050919050565b60006020820190508181036000830152611e8e81611bba565b9050919050565b60006020820190508181036000830152611eae81611bdd565b9050919050565b60006020820190508181036000830152611ece81611c00565b9050919050565b60006020820190508181036000830152611eee81611c23565b9050919050565b60006020820190508181036000830152611f0e81611c46565b9050919050565b60006020820190508181036000830152611f2e81611c69565b9050919050565b60006020820190508181036000830152611f4e81611c8c565b9050919050565b60006020820190508181036000830152611f6e81611caf565b9050919050565b60006020820190508181036000830152611f8e81611cd2565b9050919050565b60006020820190508181036000830152611fae81611cf5565b9050919050565b60006020820190508181036000830152611fce81611d18565b9050919050565b60006020820190508181036000830152611fee81611d3b565b9050919050565b600060208201905061200a6000830184611d5e565b92915050565b600061201a61202b565b9050612026828261224c565b919050565b6000604051905090565b600067ffffffffffffffff8211156120505761204f612384565b5b612059826123b3565b9050602081019050919050565b600081519050919050565b600081519050919050565b600082825260208201905092915050565b600082825260208201905092915050565b600081905092915050565b60006120b4826121ce565b91506120bf836121ce565b9250827fffffffffffffffffffffffffffffffffffffffffffffffffffffffffffffffff038211156120f4576120f36122f7565b5b828201905092915050565b600061210a826121ce565b9150612115836121ce565b92508261212557612124612326565b5b828204905092915050565b600061213b826121ce565b9150612146836121ce565b925082821015612159576121586122f7565b5b828203905092915050565b600061216f826121ae565b9050919050565b60008115159050919050565b60007fffffffff0000000000000000000000000000000000000000000000000000000082169050919050565b600073ffffffffffffffffffffffffffffffffffffffff82169050919050565b6000819050919050565b82818337600083830152505050565b60005b838110156122055780820151818401526020810190506121ea565b83811115612214576000848401525b50505050565b6000600282049050600182168061223257607f821691505b6020821081141561224657612245612355565b5b50919050565b612255826123b3565b810181811067ffffffffffffffff8211171561227457612273612384565b5b80604052505050565b6000612288826121ce565b91507fffffffffffffffffffffffffffffffffffffffffffffffffffffffffffffffff8214156122bb576122ba6122f7565b5b600182019050919050565b60006122d1826121ce565b91506122dc836121ce565b9250826122ec576122eb612326565b5b828206905092915050565b7f4e487b7100000000000000000000000000000000000000000000000000000000600052601160045260246000fd5b7f4e487b7100000000000000000000000000000000000000000000000000000000600052601260045260246000fd5b7f4e487b7100000000000000000000000000000000000000000000000000000000600052602260045260246000fd5b7f4e487b7100000000000000000000000000000000000000000000000000000000600052604160045260246000fd5b6000601f19601f8301169050919050565b7f4552433732313a207472616e7366657220746f206e6f6e20455243373231526560008201527f63656976657220696d706c656d656e7465720000000000000000000000000000602082015250565b7f4552433732313a20746f6b656e20616c7265616479206d696e74656400000000600082015250565b7f4552433732313a207472616e7366657220746f20746865207a65726f2061646460008201527f7265737300000000000000000000000000000000000000000000000000000000602082015250565b7f4552433732313a20617070726f766520746f2063616c6c657200000000000000600082015250565b7f4552433732313a206f70657261746f7220717565727920666f72206e6f6e657860008201527f697374656e7420746f6b656e0000000000000000000000000000000000000000602082015250565b7f4552433732313a20617070726f76652063616c6c6572206973206e6f74206f7760008201527f6e6572206e6f7220617070726f76656420666f7220616c6c0000000000000000602082015250565b7f4552433732313a2062616c616e636520717565727920666f7220746865207a6560008201527f726f206164647265737300000000000000000000000000000000000000000000602082015250565b7f4552433732313a206f776e657220717565727920666f72206e6f6e657869737460008201527f656e7420746f6b656e0000000000000000000000000000000000000000000000602082015250565b7f4552433732313a206d696e7420746f20746865207a65726f2061646472657373600082015250565b7f4552433732313a20617070726f76656420717565727920666f72206e6f6e657860008201527f697374656e7420746f6b656e0000000000000000000000000000000000000000602082015250565b7f4552433732313a207472616e73666572206f6620746f6b656e2074686174206960008201527f73206e6f74206f776e0000000000000000000000000000000000000000000000602082015250565b7f4552433732314d657461646174613a2055524920717565727920666f72206e6f60008201527f6e6578697374656e7420746f6b656e0000000000000000000000000000000000602082015250565b7f4552433732313a20617070726f76616c20746f2063757272656e74206f776e6560008201527f7200000000000000000000000000000000000000000000000000000000000000602082015250565b7f4552433732313a207472616e736665722063616c6c6572206973206e6f74206f60008201527f776e6572206e6f7220617070726f766564000000000000000000000000000000602082015250565b6127ad81612164565b81146127b857600080fd5b50565b6127c481612176565b81146127cf57600080fd5b50565b6127db81612182565b81146127e657600080fd5b50565b6127f2816121ce565b81146127fd57600080fd5b5056fea264697066735822122013320aef1f12e9a8638e98daddaa22dc01617054bffad71cd44b94ce6cde613264736f6c63430008040033",
  "immutableReferences": {},
  "source": " \npragma solidity ^0.8.0;\n\nimport \"@openzeppelin/contracts/token/ERC721/ERC721.sol\";\nimport \"./interfaces/IERC721ext.sol\";\n\ncontract ERC721example is ERC721, IERC721ext {\n    constructor (string  memory _name, string memory _symbol ) \n        ERC721(_name, _symbol)\n    {\n        \n    }\n\n    /**\n    * Custom accessor to create a unique token\n    */\n\n    function mint (uint _id) public \n    {\n        _mint (msg.sender, _id);\n    }\n\n    function mint (address _whom, uint _id) public override\n    {\n        _mint (_whom, _id);\n    }\n\n    function burn (uint _id) public override\n    {\n        _burn( _id);\n    }\n\n    function totalSupply()  external  view override returns  (uint256) {\n        \n    }\n}",
  "sourcePath": "/mnt/512-2/Uniq/unique-marketplace-contracts/contracts/ERC721example.sol",
  "compiler": {
    "name": "solc",
    "version": "0.8.4+commit.c7e474f2.Emscripten.clang"
  },
  "schemaVersion": "3.4.4",
  "updatedAt": "2022-01-26T05:42:13.218Z",
  "devdoc": {
    "kind": "dev",
    "methods": {
      "approve(address,uint256)": {
        "details": "See {IERC721-approve}."
      },
      "balanceOf(address)": {
        "details": "See {IERC721-balanceOf}."
      },
      "getApproved(uint256)": {
        "details": "See {IERC721-getApproved}."
      },
      "isApprovedForAll(address,address)": {
        "details": "See {IERC721-isApprovedForAll}."
      },
      "name()": {
        "details": "See {IERC721Metadata-name}."
      },
      "ownerOf(uint256)": {
        "details": "See {IERC721-ownerOf}."
      },
      "safeTransferFrom(address,address,uint256)": {
        "details": "See {IERC721-safeTransferFrom}."
      },
      "safeTransferFrom(address,address,uint256,bytes)": {
        "details": "See {IERC721-safeTransferFrom}."
      },
      "setApprovalForAll(address,bool)": {
        "details": "See {IERC721-setApprovalForAll}."
      },
      "supportsInterface(bytes4)": {
        "details": "See {IERC165-supportsInterface}."
      },
      "symbol()": {
        "details": "See {IERC721Metadata-symbol}."
      },
      "tokenURI(uint256)": {
        "details": "See {IERC721Metadata-tokenURI}."
      },
      "transferFrom(address,address,uint256)": {
        "details": "See {IERC721-transferFrom}."
      }
    },
    "version": 1
  },
  "userdoc": {
    "kind": "user",
    "methods": {
      "mint(uint256)": {
        "notice": "Custom accessor to create a unique token"
      }
    },
    "version": 1
  }
}