{
  "contractName": "MarketPlace_new",
  "abi": [
    {
      "anonymous": false,
      "inputs": [
        {
          "indexed": false,
          "internalType": "uint256",
          "name": "_price",
          "type": "uint256"
        },
        {
          "indexed": false,
          "internalType": "address",
          "name": "_currencyCode",
          "type": "address"
        },
        {
          "indexed": false,
          "internalType": "address",
          "name": "_idCollection",
          "type": "address"
        },
        {
          "indexed": false,
          "internalType": "uint256",
          "name": "_idNFT",
          "type": "uint256"
        },
        {
          "indexed": false,
          "internalType": "uint256",
          "name": "orderId",
          "type": "uint256"
        }
      ],
      "name": "AddedAsk",
      "type": "event"
    },
    {
      "anonymous": false,
      "inputs": [
        {
          "indexed": false,
          "internalType": "address",
          "name": "_idCollection",
          "type": "address"
        },
        {
          "indexed": false,
          "internalType": "uint256",
          "name": "_idNFT",
          "type": "uint256"
        },
        {
          "indexed": false,
          "internalType": "uint256",
          "name": "orderID",
          "type": "uint256"
        },
        {
          "indexed": false,
          "internalType": "uint256",
          "name": "orderPrice",
          "type": "uint256"
        }
      ],
      "name": "BoughtNFT",
      "type": "event"
    },
    {
      "anonymous": false,
      "inputs": [
        {
          "indexed": false,
          "internalType": "address",
          "name": "_idCollection",
          "type": "address"
        },
        {
          "indexed": false,
          "internalType": "uint256",
          "name": "_idNFT",
          "type": "uint256"
        },
        {
          "indexed": false,
          "internalType": "uint256",
          "name": "orderID",
          "type": "uint256"
        },
        {
          "indexed": false,
          "internalType": "uint256",
          "name": "orderPrice",
          "type": "uint256"
        }
      ],
      "name": "BoughtNFT4KSM",
      "type": "event"
    },
    {
      "anonymous": false,
      "inputs": [
        {
          "indexed": false,
          "internalType": "address",
          "name": "_idCollection",
          "type": "address"
        },
        {
          "indexed": false,
          "internalType": "uint256",
          "name": "_idNFT",
          "type": "uint256"
        },
        {
          "indexed": false,
          "internalType": "uint256",
          "name": "orderId",
          "type": "uint256"
        }
      ],
      "name": "CanceledAsk",
      "type": "event"
    },
    {
      "anonymous": false,
      "inputs": [
        {
          "indexed": false,
          "internalType": "uint256",
          "name": "_amount",
          "type": "uint256"
        },
        {
          "indexed": false,
          "internalType": "address",
          "name": "_sender",
          "type": "address"
        }
      ],
      "name": "DepositedKSM",
      "type": "event"
    },
    {
      "anonymous": false,
      "inputs": [
        {
          "indexed": false,
          "internalType": "uint256",
          "name": "_price",
          "type": "uint256"
        },
        {
          "indexed": false,
          "internalType": "address",
          "name": "_currencyCode",
          "type": "address"
        },
        {
          "indexed": false,
          "internalType": "address",
          "name": "_idCollection",
          "type": "address"
        },
        {
          "indexed": false,
          "internalType": "uint256",
          "name": "_idNFT",
          "type": "uint256"
        },
        {
          "indexed": false,
          "internalType": "uint8",
          "name": "_active",
          "type": "uint8"
        },
        {
          "indexed": false,
          "internalType": "uint256",
          "name": "orderId",
          "type": "uint256"
        }
      ],
      "name": "EditedAsk",
      "type": "event"
    },
    {
      "anonymous": false,
      "inputs": [
        {
          "indexed": false,
          "internalType": "uint256",
          "name": "_amount",
          "type": "uint256"
        },
        {
          "indexed": false,
          "internalType": "address",
          "name": "_currencyCode",
          "type": "address"
        },
        {
          "indexed": false,
          "internalType": "address",
          "name": "_sender",
          "type": "address"
        }
      ],
      "name": "Withdrawn",
      "type": "event"
    },
    {
      "anonymous": false,
      "inputs": [
        {
          "indexed": false,
          "internalType": "address",
          "name": "_sender",
          "type": "address"
        },
        {
          "indexed": false,
          "internalType": "uint256",
          "name": "balance",
          "type": "uint256"
        }
      ],
      "name": "WithdrawnAllKSM",
      "type": "event"
    },
    {
      "anonymous": false,
      "inputs": [
        {
          "indexed": false,
          "internalType": "address",
          "name": "_sender",
          "type": "address"
        },
        {
          "indexed": false,
          "internalType": "uint256",
          "name": "balance",
          "type": "uint256"
        }
      ],
      "name": "WithdrawnKSM",
      "type": "event"
    },
    {
      "stateMutability": "payable",
      "type": "fallback",
      "payable": true
    },
    {
      "inputs": [
        {
          "internalType": "address",
          "name": "",
          "type": "address"
        },
        {
          "internalType": "uint256",
          "name": "",
          "type": "uint256"
        }
      ],
      "name": "asks",
      "outputs": [
        {
          "internalType": "uint256",
          "name": "",
          "type": "uint256"
        }
      ],
      "stateMutability": "view",
      "type": "function",
      "constant": true
    },
    {
      "inputs": [
        {
          "internalType": "address",
          "name": "",
          "type": "address"
        },
        {
          "internalType": "uint256",
          "name": "",
          "type": "uint256"
        }
      ],
      "name": "asksbySeller",
      "outputs": [
        {
          "internalType": "uint256",
          "name": "",
          "type": "uint256"
        }
      ],
      "stateMutability": "view",
      "type": "function",
      "constant": true
    },
    {
      "inputs": [
        {
          "internalType": "address",
          "name": "",
          "type": "address"
        }
      ],
      "name": "balanceKSM",
      "outputs": [
        {
          "internalType": "uint256",
          "name": "",
          "type": "uint256"
        }
      ],
      "stateMutability": "view",
      "type": "function",
      "constant": true
    },
    {
      "inputs": [
        {
          "internalType": "uint256",
          "name": "",
          "type": "uint256"
        }
      ],
      "name": "orders",
      "outputs": [
        {
          "internalType": "uint256",
          "name": "idNFT",
          "type": "uint256"
        },
        {
          "internalType": "address",
          "name": "currencyCode",
          "type": "address"
        },
        {
          "internalType": "uint256",
          "name": "price",
          "type": "uint256"
        },
        {
          "internalType": "uint256",
          "name": "time",
          "type": "uint256"
        },
        {
          "internalType": "address",
          "name": "idCollection",
          "type": "address"
        },
        {
          "internalType": "address",
          "name": "ownerAddr",
          "type": "address"
        },
        {
          "internalType": "uint8",
          "name": "flagActive",
          "type": "uint8"
        },
        {
          "internalType": "string",
          "name": "name",
          "type": "string"
        },
        {
          "internalType": "string",
          "name": "symbol",
          "type": "string"
        },
        {
          "internalType": "string",
          "name": "tokenURI",
          "type": "string"
        }
      ],
      "stateMutability": "view",
      "type": "function",
      "constant": true
    },
    {
      "inputs": [
        {
          "internalType": "address",
          "name": "",
          "type": "address"
        },
        {
          "internalType": "uint256",
          "name": "",
          "type": "uint256"
        },
        {
          "internalType": "uint256",
          "name": "",
          "type": "uint256"
        }
      ],
      "name": "ordersbyNFT",
      "outputs": [
        {
          "internalType": "uint256",
          "name": "",
          "type": "uint256"
        }
      ],
      "stateMutability": "view",
      "type": "function",
      "constant": true
    },
    {
      "stateMutability": "payable",
      "type": "receive",
      "payable": true
    },
    {
      "inputs": [],
      "name": "initialize",
      "outputs": [],
      "stateMutability": "nonpayable",
      "type": "function"
    },
    {
      "inputs": [
        {
          "internalType": "address",
          "name": "_newOwner",
          "type": "address"
        }
      ],
      "name": "setOwner",
      "outputs": [],
      "stateMutability": "nonpayable",
      "type": "function"
    },
    {
      "inputs": [
        {
          "internalType": "address",
          "name": "_escrow",
          "type": "address"
        },
        {
          "internalType": "bool",
          "name": "_state",
          "type": "bool"
        }
      ],
      "name": "setEscrow",
      "outputs": [
        {
          "internalType": "bool",
          "name": "",
          "type": "bool"
        }
      ],
      "stateMutability": "nonpayable",
      "type": "function"
    },
    {
      "inputs": [
        {
          "internalType": "address",
          "name": "_coin",
          "type": "address"
        }
      ],
      "name": "setNativeCoin",
      "outputs": [],
      "stateMutability": "nonpayable",
      "type": "function"
    },
    {
      "inputs": [
        {
          "internalType": "uint256",
          "name": "_price",
          "type": "uint256"
        },
        {
          "internalType": "address",
          "name": "_currencyCode",
          "type": "address"
        },
        {
          "internalType": "address",
          "name": "_idCollection",
          "type": "address"
        },
        {
          "internalType": "uint256",
          "name": "_idNFT",
          "type": "uint256"
        }
      ],
      "name": "addAsk",
      "outputs": [],
      "stateMutability": "nonpayable",
      "type": "function"
    },
    {
      "inputs": [
        {
          "internalType": "uint256",
          "name": "_price",
          "type": "uint256"
        },
        {
          "internalType": "address",
          "name": "_currencyCode",
          "type": "address"
        },
        {
          "internalType": "address",
          "name": "_idCollection",
          "type": "address"
        },
        {
          "internalType": "uint256",
          "name": "_idNFT",
          "type": "uint256"
        },
        {
          "internalType": "uint8",
          "name": "_active",
          "type": "uint8"
        }
      ],
      "name": "editAsk",
      "outputs": [],
      "stateMutability": "nonpayable",
      "type": "function"
    },
    {
      "inputs": [
        {
          "internalType": "address",
          "name": "_idCollection",
          "type": "address"
        },
        {
          "internalType": "uint256",
          "name": "_idNFT",
          "type": "uint256"
        }
      ],
      "name": "cancelAsk",
      "outputs": [],
      "stateMutability": "nonpayable",
      "type": "function"
    },
    {
      "inputs": [
        {
          "internalType": "uint256",
          "name": "_amount",
          "type": "uint256"
        },
        {
          "internalType": "address",
          "name": "_sender",
          "type": "address"
        }
      ],
      "name": "depositKSM",
      "outputs": [],
      "stateMutability": "nonpayable",
      "type": "function"
    },
    {
      "inputs": [
        {
          "internalType": "address",
          "name": "_idCollection",
          "type": "address"
        },
        {
          "internalType": "uint256",
          "name": "_idNFT",
          "type": "uint256"
        },
        {
          "internalType": "address",
          "name": "_buyer",
          "type": "address"
        },
        {
          "internalType": "address",
          "name": "_receiver",
          "type": "address"
        }
      ],
      "name": "buyKSM",
      "outputs": [],
      "stateMutability": "nonpayable",
      "type": "function"
    },
    {
      "inputs": [
        {
          "internalType": "address",
          "name": "_idCollection",
          "type": "address"
        },
        {
          "internalType": "uint256",
          "name": "_idNFT",
          "type": "uint256"
        }
      ],
      "name": "buy",
      "outputs": [
        {
          "internalType": "bool",
          "name": "result",
          "type": "bool"
        }
      ],
      "stateMutability": "payable",
      "type": "function",
      "payable": true
    },
    {
      "inputs": [
        {
          "internalType": "address",
          "name": "_sender",
          "type": "address"
        }
      ],
      "name": "withdrawAllKSM",
      "outputs": [
        {
          "internalType": "uint256",
          "name": "lastBalance",
          "type": "uint256"
        }
      ],
      "stateMutability": "nonpayable",
      "type": "function"
    },
    {
      "inputs": [
        {
          "internalType": "uint256",
          "name": "_amount",
          "type": "uint256"
        },
        {
          "internalType": "address",
          "name": "_sender",
          "type": "address"
        }
      ],
      "name": "withdrawKSM",
      "outputs": [
        {
          "internalType": "uint256",
          "name": "lastBalance",
          "type": "uint256"
        }
      ],
      "stateMutability": "nonpayable",
      "type": "function"
    },
    {
      "inputs": [
        {
          "internalType": "uint256",
          "name": "_amount",
          "type": "uint256"
        },
        {
          "internalType": "address",
          "name": "_currencyCode",
          "type": "address"
        }
      ],
      "name": "withdraw",
      "outputs": [
        {
          "internalType": "bool",
          "name": "result",
          "type": "bool"
        }
      ],
      "stateMutability": "nonpayable",
      "type": "function"
    },
    {
      "inputs": [
        {
          "internalType": "address",
          "name": "_idCollection",
          "type": "address"
        },
        {
          "internalType": "uint256",
          "name": "_idNFT",
          "type": "uint256"
        }
      ],
      "name": "getOrder",
      "outputs": [
        {
          "components": [
            {
              "internalType": "uint256",
              "name": "idNFT",
              "type": "uint256"
            },
            {
              "internalType": "address",
              "name": "currencyCode",
              "type": "address"
            },
            {
              "internalType": "uint256",
              "name": "price",
              "type": "uint256"
            },
            {
              "internalType": "uint256",
              "name": "time",
              "type": "uint256"
            },
            {
              "internalType": "address",
              "name": "idCollection",
              "type": "address"
            },
            {
              "internalType": "address",
              "name": "ownerAddr",
              "type": "address"
            },
            {
              "internalType": "uint8",
              "name": "flagActive",
              "type": "uint8"
            },
            {
              "internalType": "string",
              "name": "name",
              "type": "string"
            },
            {
              "internalType": "string",
              "name": "symbol",
              "type": "string"
            },
            {
              "internalType": "string",
              "name": "tokenURI",
              "type": "string"
            }
          ],
          "internalType": "struct MarketPlace_new.Order",
          "name": "",
          "type": "tuple"
        }
      ],
      "stateMutability": "view",
      "type": "function",
      "constant": true
    },
    {
      "inputs": [],
      "name": "getOrdersLen",
      "outputs": [
        {
          "internalType": "uint256",
          "name": "",
          "type": "uint256"
        }
      ],
      "stateMutability": "view",
      "type": "function",
      "constant": true
    },
    {
      "inputs": [
        {
          "internalType": "address",
          "name": "operator",
          "type": "address"
        },
        {
          "internalType": "address",
          "name": "from",
          "type": "address"
        },
        {
          "internalType": "uint256",
          "name": "tokenId",
          "type": "uint256"
        },
        {
          "internalType": "bytes",
          "name": "data",
          "type": "bytes"
        }
      ],
      "name": "onERC721Received",
      "outputs": [
        {
          "internalType": "bytes4",
          "name": "",
          "type": "bytes4"
        }
      ],
      "stateMutability": "pure",
      "type": "function",
      "constant": true
    }
  ],
  "bytecode": "0x608060405234801561001057600080fd5b50614a8b806100206000396000f3fe60806040526004361061012d5760003560e01c8063791bd866116100ab578063a85c38ef1161006f578063a85c38ef146104e2578063b4c3e8ea14610528578063cce7ec1314610565578063e22d4f7d14610595578063edb25841146105d2578063fd8868c71461060f576101c4565b8063791bd866146103fd5780638129fc1c146104265780638c088f001461043d57806393cdd3341461046857806399f2d4eb146104a5576101c4565b806337c4eb58116100f257806337c4eb581461031c5780633ce617561461034557806340b807461461036e57806341fd6790146103975780636b084b25146103d4576101c4565b8062f714ce146101ff57806313af40351461023c578063150b7a021461026557806322423404146102a2578063229003ec146102df576101c4565b366101c457603a60009054906101000a900473ffffffffffffffffffffffffffffffffffffffff1673ffffffffffffffffffffffffffffffffffffffff163373ffffffffffffffffffffffffffffffffffffffff16146101c2576040517f08c379a00000000000000000000000000000000000000000000000000000000081526004016101b990614244565b60405180910390fd5b005b6040517f08c379a00000000000000000000000000000000000000000000000000000000081526004016101f690614284565b60405180910390fd5b34801561020b57600080fd5b5061022660048036038101906102219190613b6f565b610638565b60405161023391906140ec565b60405180910390f35b34801561024857600080fd5b50610263600480360381019061025e91906138e0565b610832565b005b34801561027157600080fd5b5061028c60048036038101906102879190613932565b610906565b6040516102999190614107565b60405180910390f35b3480156102ae57600080fd5b506102c960048036038101906102c49190613b6f565b610934565b6040516102d691906142c6565b60405180910390f35b3480156102eb57600080fd5b50610306600480360381019061030191906139b2565b610a55565b60405161031391906140ec565b60405180910390f35b34801561032857600080fd5b50610343600480360381019061033e9190613bab565b610ba9565b005b34801561035157600080fd5b5061036c600480360381019061036791906138e0565b611238565b005b34801561037a57600080fd5b50610395600480360381019061039091906139ee565b61130c565b005b3480156103a357600080fd5b506103be60048036038101906103b99190613a8d565b6116a8565b6040516103cb91906142c6565b60405180910390f35b3480156103e057600080fd5b506103fb60048036038101906103f69190613c0e565b6116e6565b005b34801561040957600080fd5b50610424600480360381019061041f9190613b6f565b611ac9565b005b34801561043257600080fd5b5061043b611c27565b005b34801561044957600080fd5b50610452611fc5565b60405161045f91906142c6565b60405180910390f35b34801561047457600080fd5b5061048f600480360381019061048a91906138e0565b611fd2565b60405161049c91906142c6565b60405180910390f35b3480156104b157600080fd5b506104cc60048036038101906104c791906139ee565b6121ec565b6040516104d991906142c6565b60405180910390f35b3480156104ee57600080fd5b5061050960048036038101906105049190613b46565b61221d565b60405161051f9a999897969594939291906143f5565b60405180910390f35b34801561053457600080fd5b5061054f600480360381019061054a91906138e0565b612486565b60405161055c91906142c6565b60405180910390f35b61057f600480360381019061057a91906139ee565b61249e565b60405161058c91906140ec565b60405180910390f35b3480156105a157600080fd5b506105bc60048036038101906105b791906139ee565b612a7b565b6040516105c991906142c6565b60405180910390f35b3480156105de57600080fd5b506105f960048036038101906105f491906139ee565b612aa0565b60405161060691906142a4565b60405180910390f35b34801561061b57600080fd5b5061063660048036038101906106319190613a2a565b612e53565b005b6000600260ff16603b60149054906101000a900460ff1660ff161415610693576040517f08c379a000000000000000000000000000000000000000000000000000000000815260040161068a90614264565b60405180910390fd5b6002603b60146101000a81548160ff021916908360ff1602179055506000339050603b60009054906101000a900473ffffffffffffffffffffffffffffffffffffffff1673ffffffffffffffffffffffffffffffffffffffff168373ffffffffffffffffffffffffffffffffffffffff161461079c578273ffffffffffffffffffffffffffffffffffffffff1663a9059cbb82866040518363ffffffff1660e01b8152600401610744929190613fe7565b602060405180830381600087803b15801561075e57600080fd5b505af1158015610772573d6000803e3d6000fd5b505050506040513d601f19601f820116820180604052508101906107969190613adc565b506107d4565b8073ffffffffffffffffffffffffffffffffffffffff166108fc859081150290604051600060405180830381858888f1935050505091505b7fb524bace85e4ce0f8da306e32f39263c5724780ca00b7551c051c8e3dc36adaf8484836040516108079392919061430a565b60405180910390a1506001603b60146101000a81548160ff021916908360ff16021790555092915050565b603a60009054906101000a900473ffffffffffffffffffffffffffffffffffffffff1673ffffffffffffffffffffffffffffffffffffffff163373ffffffffffffffffffffffffffffffffffffffff16146108c2576040517f08c379a00000000000000000000000000000000000000000000000000000000081526004016108b990614244565b60405180910390fd5b80603a60006101000a81548173ffffffffffffffffffffffffffffffffffffffff021916908373ffffffffffffffffffffffffffffffffffffffff16021790555050565b60007f150b7a023d4804d13e8c85fb27262cb750cf6ba9f9dd3bb30d90f482ceeb4b1f905095945050505050565b6000603960003373ffffffffffffffffffffffffffffffffffffffff1673ffffffffffffffffffffffffffffffffffffffff16815260200190815260200160002060009054906101000a900460ff166109c2576040517f08c379a00000000000000000000000000000000000000000000000000000000081526004016109b990614164565b60405180910390fd5b610a1483603560008573ffffffffffffffffffffffffffffffffffffffff1673ffffffffffffffffffffffffffffffffffffffff168152602001908152602001600020546135dd90919063ffffffff16565b90507f8f0e5e76c8c320276261215f096e3d3a21af66eaa72e646ce6351e07e28e2e1a8282604051610a47929190614047565b60405180910390a192915050565b6000603a60009054906101000a900473ffffffffffffffffffffffffffffffffffffffff1673ffffffffffffffffffffffffffffffffffffffff163373ffffffffffffffffffffffffffffffffffffffff1614610ae7576040517f08c379a0000000000000000000000000000000000000000000000000000000008152600401610ade90614244565b60405180910390fd5b811515603960008573ffffffffffffffffffffffffffffffffffffffff1673ffffffffffffffffffffffffffffffffffffffff16815260200190815260200160002060009054906101000a900460ff16151514610b9e5781603960008573ffffffffffffffffffffffffffffffffffffffff1673ffffffffffffffffffffffffffffffffffffffff16815260200190815260200160002060006101000a81548160ff02191690831515021790555060019050610ba3565b600090505b92915050565b60008273ffffffffffffffffffffffffffffffffffffffff16636352211e836040518263ffffffff1660e01b8152600401610be491906142c6565b60206040518083038186803b158015610bfc57600080fd5b505afa158015610c10573d6000803e3d6000fd5b505050506040513d601f19601f82011682018060405250810190610c349190613909565b90503373ffffffffffffffffffffffffffffffffffffffff168173ffffffffffffffffffffffffffffffffffffffff1614610ca4576040517f08c379a0000000000000000000000000000000000000000000000000000000008152600401610c9b906141a4565b60405180910390fd5b60608060608573ffffffffffffffffffffffffffffffffffffffff166306fdde036040518163ffffffff1660e01b815260040160006040518083038186803b158015610cef57600080fd5b505afa925050508015610d2557506040513d6000823e3d601f19601f82011682018060405250810190610d229190613b05565b60015b610d4057604051806020016040528060008152509250610d45565b809350505b8573ffffffffffffffffffffffffffffffffffffffff166395d89b416040518163ffffffff1660e01b815260040160006040518083038186803b158015610d8b57600080fd5b505afa925050508015610dc157506040513d6000823e3d601f19601f82011682018060405250810190610dbe9190613b05565b60015b610ddc57604051806020016040528060008152509150610de1565b809250505b8573ffffffffffffffffffffffffffffffffffffffff1663c87b56dd866040518263ffffffff1660e01b8152600401610e1a91906142c6565b60006040518083038186803b158015610e3257600080fd5b505afa925050508015610e6857506040513d6000823e3d601f19601f82011682018060405250810190610e659190613b05565b60015b610e8357604051806020016040528060008152509050610e88565b809150505b60336040518061014001604052808781526020018973ffffffffffffffffffffffffffffffffffffffff1681526020018a81526020014281526020018873ffffffffffffffffffffffffffffffffffffffff1681526020013373ffffffffffffffffffffffffffffffffffffffff168152602001600160ff1681526020018581526020018481526020018381525090806001815401808255809150506001900390600052602060002090600902016000909190919091506000820151816000015560208201518160010160006101000a81548173ffffffffffffffffffffffffffffffffffffffff021916908373ffffffffffffffffffffffffffffffffffffffff160217905550604082015181600201556060820151816003015560808201518160040160006101000a81548173ffffffffffffffffffffffffffffffffffffffff021916908373ffffffffffffffffffffffffffffffffffffffff16021790555060a08201518160050160006101000a81548173ffffffffffffffffffffffffffffffffffffffff021916908373ffffffffffffffffffffffffffffffffffffffff16021790555060c08201518160050160146101000a81548160ff021916908360ff16021790555060e082015181600601908051906020019061106f929190613675565b5061010082015181600701908051906020019061108d929190613675565b506101208201518160080190805190602001906110ab929190613675565b505050600060016033805490506110c2919061457f565b905080603660008973ffffffffffffffffffffffffffffffffffffffff1673ffffffffffffffffffffffffffffffffffffffff168152602001908152602001600020600088815260200190815260200160002081905550603860003373ffffffffffffffffffffffffffffffffffffffff1673ffffffffffffffffffffffffffffffffffffffff1681526020019081526020016000208190806001815401808255809150506001900390600052602060002001600090919091909150558673ffffffffffffffffffffffffffffffffffffffff166323b872dd3330896040518463ffffffff1660e01b81526004016111bc93929190614010565b600060405180830381600087803b1580156111d657600080fd5b505af11580156111ea573d6000803e3d6000fd5b505050507f83b3a8754d705365b581ab63c329c1e55255a22aa78c67b5fcef378bfb2d9b998989898985604051611225959493929190614341565b60405180910390a1505050505050505050565b603a60009054906101000a900473ffffffffffffffffffffffffffffffffffffffff1673ffffffffffffffffffffffffffffffffffffffff163373ffffffffffffffffffffffffffffffffffffffff16146112c8576040517f08c379a00000000000000000000000000000000000000000000000000000000081526004016112bf90614244565b60405180910390fd5b80603b60006101000a81548173ffffffffffffffffffffffffffffffffffffffff021916908373ffffffffffffffffffffffffffffffffffffffff16021790555050565b6000603660008473ffffffffffffffffffffffffffffffffffffffff1673ffffffffffffffffffffffffffffffffffffffff16815260200190815260200160002060008381526020019081526020016000205490503373ffffffffffffffffffffffffffffffffffffffff16603382815481106113b2577f4e487b7100000000000000000000000000000000000000000000000000000000600052603260045260246000fd5b906000526020600020906009020160050160009054906101000a900473ffffffffffffffffffffffffffffffffffffffff1673ffffffffffffffffffffffffffffffffffffffff161461143a576040517f08c379a000000000000000000000000000000000000000000000000000000000815260040161143190614184565b60405180910390fd5b600060338281548110611476577f4e487b7100000000000000000000000000000000000000000000000000000000600052603260045260246000fd5b906000526020600020906009020160050160149054906101000a900460ff1660ff1614156114d9576040517f08c379a00000000000000000000000000000000000000000000000000000000081526004016114d090614144565b60405180910390fd5b4260338281548110611514577f4e487b7100000000000000000000000000000000000000000000000000000000600052603260045260246000fd5b906000526020600020906009020160030181905550600060338281548110611565577f4e487b7100000000000000000000000000000000000000000000000000000000600052603260045260246000fd5b906000526020600020906009020160050160146101000a81548160ff021916908360ff1602179055508273ffffffffffffffffffffffffffffffffffffffff166323b872dd30603384815481106115e5577f4e487b7100000000000000000000000000000000000000000000000000000000600052603260045260246000fd5b906000526020600020906009020160050160009054906101000a900473ffffffffffffffffffffffffffffffffffffffff16856040518463ffffffff1660e01b815260040161163693929190614010565b600060405180830381600087803b15801561165057600080fd5b505af1158015611664573d6000803e3d6000fd5b505050507f6330f58b476cc7f9dd8db8130a0fbb49b291ebc32531eb36e9646f56ee20174b83838360405161169b93929190614070565b60405180910390a1505050565b603760205282600052604060002060205281600052604060002081815481106116d057600080fd5b9060005260206000200160009250925050505481565b6000603660008573ffffffffffffffffffffffffffffffffffffffff1673ffffffffffffffffffffffffffffffffffffffff16815260200190815260200160002060008481526020019081526020016000205490503373ffffffffffffffffffffffffffffffffffffffff166033828154811061178c577f4e487b7100000000000000000000000000000000000000000000000000000000600052603260045260246000fd5b906000526020600020906009020160050160009054906101000a900473ffffffffffffffffffffffffffffffffffffffff1673ffffffffffffffffffffffffffffffffffffffff1614611814576040517f08c379a000000000000000000000000000000000000000000000000000000000815260040161180b90614184565b60405180910390fd5b600060338281548110611850577f4e487b7100000000000000000000000000000000000000000000000000000000600052603260045260246000fd5b906000526020600020906009020160050160149054906101000a900460ff1660ff1614156118b3576040517f08c379a00000000000000000000000000000000000000000000000000000000081526004016118aa90614144565b60405180910390fd5b600086111561190d5785603382815481106118f7577f4e487b7100000000000000000000000000000000000000000000000000000000600052603260045260246000fd5b9060005260206000209060090201600201819055505b600073ffffffffffffffffffffffffffffffffffffffff168573ffffffffffffffffffffffffffffffffffffffff16146119cc57846033828154811061197c577f4e487b7100000000000000000000000000000000000000000000000000000000600052603260045260246000fd5b906000526020600020906009020160010160006101000a81548173ffffffffffffffffffffffffffffffffffffffff021916908373ffffffffffffffffffffffffffffffffffffffff1602179055505b4260338281548110611a07577f4e487b7100000000000000000000000000000000000000000000000000000000600052603260045260246000fd5b9060005260206000209060090201600301819055508160338281548110611a57577f4e487b7100000000000000000000000000000000000000000000000000000000600052603260045260246000fd5b906000526020600020906009020160050160146101000a81548160ff021916908360ff1602179055507f04211d838289b72af597bf28a4ccff5a30d6056f5fce2eddb127ab4ffea0963d868686868686604051611ab996959493929190614394565b60405180910390a1505050505050565b603960003373ffffffffffffffffffffffffffffffffffffffff1673ffffffffffffffffffffffffffffffffffffffff16815260200190815260200160002060009054906101000a900460ff16611b55576040517f08c379a0000000000000000000000000000000000000000000000000000000008152600401611b4c90614164565b60405180910390fd5b611ba782603560008473ffffffffffffffffffffffffffffffffffffffff1673ffffffffffffffffffffffffffffffffffffffff168152602001908152602001600020546135f390919063ffffffff16565b603560008373ffffffffffffffffffffffffffffffffffffffff1673ffffffffffffffffffffffffffffffffffffffff168152602001908152602001600020819055507f291ce0b690061cb1b3f1111bf6500efe526983251fb0f863251ec3670d035fc48282604051611c1b9291906142e1565b60405180910390a15050565b600060019054906101000a900460ff1680611c465750611c45613609565b5b80611c5c575060008054906101000a900460ff16155b611c9b576040517f08c379a0000000000000000000000000000000000000000000000000000000008152600401611c92906141e4565b60405180910390fd5b60008060019054906101000a900460ff161590508015611ceb576001600060016101000a81548160ff02191690831515021790555060016000806101000a81548160ff0219169083151502179055505b33603a60006101000a81548173ffffffffffffffffffffffffffffffffffffffff021916908373ffffffffffffffffffffffffffffffffffffffff160217905550603360405180610140016040528060008152602001600073ffffffffffffffffffffffffffffffffffffffff1681526020016000815260200160008152602001600073ffffffffffffffffffffffffffffffffffffffff168152602001600073ffffffffffffffffffffffffffffffffffffffff168152602001600060ff1681526020016040518060200160405280600081525081526020016040518060200160405280600081525081526020016040518060200160405280600081525081525090806001815401808255809150506001900390600052602060002090600902016000909190919091506000820151816000015560208201518160010160006101000a81548173ffffffffffffffffffffffffffffffffffffffff021916908373ffffffffffffffffffffffffffffffffffffffff160217905550604082015181600201556060820151816003015560808201518160040160006101000a81548173ffffffffffffffffffffffffffffffffffffffff021916908373ffffffffffffffffffffffffffffffffffffffff16021790555060a08201518160050160006101000a81548173ffffffffffffffffffffffffffffffffffffffff021916908373ffffffffffffffffffffffffffffffffffffffff16021790555060c08201518160050160146101000a81548160ff021916908360ff16021790555060e0820151816006019080519060200190611f46929190613675565b50610100820151816007019080519060200190611f64929190613675565b50610120820151816008019080519060200190611f82929190613675565b5050506001603b60146101000a81548160ff021916908360ff1602179055508015611fc25760008060016101000a81548160ff0219169083151502179055505b50565b6000603380549050905090565b6000600260ff16603b60149054906101000a900460ff1660ff16141561202d576040517f08c379a000000000000000000000000000000000000000000000000000000000815260040161202490614264565b60405180910390fd5b6002603b60146101000a81548160ff021916908360ff160217905550603960003373ffffffffffffffffffffffffffffffffffffffff1673ffffffffffffffffffffffffffffffffffffffff16815260200190815260200160002060009054906101000a900460ff16806120cc57508173ffffffffffffffffffffffffffffffffffffffff163373ffffffffffffffffffffffffffffffffffffffff16145b61210b576040517f08c379a000000000000000000000000000000000000000000000000000000000815260040161210290614224565b60405180910390fd5b603560008373ffffffffffffffffffffffffffffffffffffffff1673ffffffffffffffffffffffffffffffffffffffff1681526020019081526020016000205490506000603560008473ffffffffffffffffffffffffffffffffffffffff1673ffffffffffffffffffffffffffffffffffffffff168152602001908152602001600020819055507f027aeacbc6fbfa7fe735ff8f14a600469ad1a3197ce1c8c8a159641cf68fe59282826040516121c3929190614047565b60405180910390a16001603b60146101000a81548160ff021916908360ff160217905550919050565b6038602052816000526040600020818154811061220857600080fd5b90600052602060002001600091509150505481565b6033818154811061222d57600080fd5b90600052602060002090600902016000915090508060000154908060010160009054906101000a900473ffffffffffffffffffffffffffffffffffffffff16908060020154908060030154908060040160009054906101000a900473ffffffffffffffffffffffffffffffffffffffff16908060050160009054906101000a900473ffffffffffffffffffffffffffffffffffffffff16908060050160149054906101000a900460ff16908060060180546122e79061469d565b80601f01602080910402602001604051908101604052809291908181526020018280546123139061469d565b80156123605780601f1061233557610100808354040283529160200191612360565b820191906000526020600020905b81548152906001019060200180831161234357829003601f168201915b5050505050908060070180546123759061469d565b80601f01602080910402602001604051908101604052809291908181526020018280546123a19061469d565b80156123ee5780601f106123c3576101008083540402835291602001916123ee565b820191906000526020600020905b8154815290600101906020018083116123d157829003601f168201915b5050505050908060080180546124039061469d565b80601f016020809104026020016040519081016040528092919081815260200182805461242f9061469d565b801561247c5780601f106124515761010080835404028352916020019161247c565b820191906000526020600020905b81548152906001019060200180831161245f57829003601f168201915b505050505090508a565b60356020528060005260406000206000915090505481565b6000806033603660008673ffffffffffffffffffffffffffffffffffffffff1673ffffffffffffffffffffffffffffffffffffffff1681526020019081526020016000206000858152602001908152602001600020548154811061252b577f4e487b7100000000000000000000000000000000000000000000000000000000600052603260045260246000fd5b906000526020600020906009020160405180610140016040529081600082015481526020016001820160009054906101000a900473ffffffffffffffffffffffffffffffffffffffff1673ffffffffffffffffffffffffffffffffffffffff1673ffffffffffffffffffffffffffffffffffffffff16815260200160028201548152602001600382015481526020016004820160009054906101000a900473ffffffffffffffffffffffffffffffffffffffff1673ffffffffffffffffffffffffffffffffffffffff1673ffffffffffffffffffffffffffffffffffffffff1681526020016005820160009054906101000a900473ffffffffffffffffffffffffffffffffffffffff1673ffffffffffffffffffffffffffffffffffffffff1673ffffffffffffffffffffffffffffffffffffffff1681526020016005820160149054906101000a900460ff1660ff1660ff1681526020016006820180546126929061469d565b80601f01602080910402602001604051908101604052809291908181526020018280546126be9061469d565b801561270b5780601f106126e05761010080835404028352916020019161270b565b820191906000526020600020905b8154815290600101906020018083116126ee57829003601f168201915b505050505081526020016007820180546127249061469d565b80601f01602080910402602001604051908101604052809291908181526020018280546127509061469d565b801561279d5780601f106127725761010080835404028352916020019161279d565b820191906000526020600020905b81548152906001019060200180831161278057829003601f168201915b505050505081526020016008820180546127b69061469d565b80601f01602080910402602001604051908101604052809291908181526020018280546127e29061469d565b801561282f5780601f106128045761010080835404028352916020019161282f565b820191906000526020600020905b81548152906001019060200180831161281257829003601f168201915b505050505081525050905080604001513414612880576040517f08c379a000000000000000000000000000000000000000000000000000000000815260040161287790614204565b60405180910390fd5b60006033603660008773ffffffffffffffffffffffffffffffffffffffff1673ffffffffffffffffffffffffffffffffffffffff1681526020019081526020016000206000868152602001908152602001600020548154811061290c577f4e487b7100000000000000000000000000000000000000000000000000000000600052603260045260246000fd5b906000526020600020906009020160050160146101000a81548160ff021916908360ff1602179055508373ffffffffffffffffffffffffffffffffffffffff166323b872dd3033866040518463ffffffff1660e01b815260040161297293929190614010565b600060405180830381600087803b15801561298c57600080fd5b505af11580156129a0573d6000803e3d6000fd5b505050508060a0015173ffffffffffffffffffffffffffffffffffffffff166108fc82604001519081150290604051600060405180830381858888f1935050505091507fc220cf2a12d6492e23ed1141c55018997799699d009b00ebd5a4874c60f5c31e8484603660008873ffffffffffffffffffffffffffffffffffffffff1673ffffffffffffffffffffffffffffffffffffffff1681526020019081526020016000206000878152602001908152602001600020548460400151604051612a6c94939291906140a7565b60405180910390a15092915050565b6036602052816000526040600020602052806000526040600020600091509150505481565b612aa86136fb565b6000603660008573ffffffffffffffffffffffffffffffffffffffff1673ffffffffffffffffffffffffffffffffffffffff1681526020019081526020016000206000848152602001908152602001600020549050600060338281548110612b39577f4e487b7100000000000000000000000000000000000000000000000000000000600052603260045260246000fd5b906000526020600020906009020160405180610140016040529081600082015481526020016001820160009054906101000a900473ffffffffffffffffffffffffffffffffffffffff1673ffffffffffffffffffffffffffffffffffffffff1673ffffffffffffffffffffffffffffffffffffffff16815260200160028201548152602001600382015481526020016004820160009054906101000a900473ffffffffffffffffffffffffffffffffffffffff1673ffffffffffffffffffffffffffffffffffffffff1673ffffffffffffffffffffffffffffffffffffffff1681526020016005820160009054906101000a900473ffffffffffffffffffffffffffffffffffffffff1673ffffffffffffffffffffffffffffffffffffffff1673ffffffffffffffffffffffffffffffffffffffff1681526020016005820160149054906101000a900460ff1660ff1660ff168152602001600682018054612ca09061469d565b80601f0160208091040260200160405190810160405280929190818152602001828054612ccc9061469d565b8015612d195780601f10612cee57610100808354040283529160200191612d19565b820191906000526020600020905b815481529060010190602001808311612cfc57829003601f168201915b50505050508152602001600782018054612d329061469d565b80601f0160208091040260200160405190810160405280929190818152602001828054612d5e9061469d565b8015612dab5780601f10612d8057610100808354040283529160200191612dab565b820191906000526020600020905b815481529060010190602001808311612d8e57829003601f168201915b50505050508152602001600882018054612dc49061469d565b80601f0160208091040260200160405190810160405280929190818152602001828054612df09061469d565b8015612e3d5780601f10612e1257610100808354040283529160200191612e3d565b820191906000526020600020905b815481529060010190602001808311612e2057829003601f168201915b5050505050815250509050809250505092915050565b60006033603660008773ffffffffffffffffffffffffffffffffffffffff1673ffffffffffffffffffffffffffffffffffffffff16815260200190815260200160002060008681526020019081526020016000205481548110612edf577f4e487b7100000000000000000000000000000000000000000000000000000000600052603260045260246000fd5b906000526020600020906009020160405180610140016040529081600082015481526020016001820160009054906101000a900473ffffffffffffffffffffffffffffffffffffffff1673ffffffffffffffffffffffffffffffffffffffff1673ffffffffffffffffffffffffffffffffffffffff16815260200160028201548152602001600382015481526020016004820160009054906101000a900473ffffffffffffffffffffffffffffffffffffffff1673ffffffffffffffffffffffffffffffffffffffff1673ffffffffffffffffffffffffffffffffffffffff1681526020016005820160009054906101000a900473ffffffffffffffffffffffffffffffffffffffff1673ffffffffffffffffffffffffffffffffffffffff1673ffffffffffffffffffffffffffffffffffffffff1681526020016005820160149054906101000a900460ff1660ff1660ff1681526020016006820180546130469061469d565b80601f01602080910402602001604051908101604052809291908181526020018280546130729061469d565b80156130bf5780601f10613094576101008083540402835291602001916130bf565b820191906000526020600020905b8154815290600101906020018083116130a257829003601f168201915b505050505081526020016007820180546130d89061469d565b80601f01602080910402602001604051908101604052809291908181526020018280546131049061469d565b80156131515780601f1061312657610100808354040283529160200191613151565b820191906000526020600020905b81548152906001019060200180831161313457829003601f168201915b5050505050815260200160088201805461316a9061469d565b80601f01602080910402602001604051908101604052809291908181526020018280546131969061469d565b80156131e35780601f106131b8576101008083540402835291602001916131e3565b820191906000526020600020905b8154815290600101906020018083116131c657829003601f168201915b5050505050815250509050603960003373ffffffffffffffffffffffffffffffffffffffff1673ffffffffffffffffffffffffffffffffffffffff16815260200190815260200160002060009054906101000a900460ff168061327157508273ffffffffffffffffffffffffffffffffffffffff163373ffffffffffffffffffffffffffffffffffffffff16145b6132b0576040517f08c379a00000000000000000000000000000000000000000000000000000000081526004016132a7906141c4565b60405180910390fd5b61333d81604001516040518060400160405280601981526020017f496e737563636966696369656e74204b534d732066756e647300000000000000815250603560008773ffffffffffffffffffffffffffffffffffffffff1673ffffffffffffffffffffffffffffffffffffffff168152602001908152602001600020546136209092919063ffffffff16565b603560008573ffffffffffffffffffffffffffffffffffffffff1673ffffffffffffffffffffffffffffffffffffffff168152602001908152602001600020819055506133da8160400151603560008460a0015173ffffffffffffffffffffffffffffffffffffffff1673ffffffffffffffffffffffffffffffffffffffff168152602001908152602001600020546135f390919063ffffffff16565b603560008360a0015173ffffffffffffffffffffffffffffffffffffffff1673ffffffffffffffffffffffffffffffffffffffff1681526020019081526020016000208190555060006033603660008873ffffffffffffffffffffffffffffffffffffffff1673ffffffffffffffffffffffffffffffffffffffff168152602001908152602001600020600087815260200190815260200160002054815481106134ad577f4e487b7100000000000000000000000000000000000000000000000000000000600052603260045260246000fd5b906000526020600020906009020160050160146101000a81548160ff021916908360ff1602179055508473ffffffffffffffffffffffffffffffffffffffff166323b872dd3084876040518463ffffffff1660e01b815260040161351393929190614010565b600060405180830381600087803b15801561352d57600080fd5b505af1158015613541573d6000803e3d6000fd5b505050507f68bdd3548f3f05742b376651745ca73472eb18f2230f64b893d7a48e575eb0148585603660008973ffffffffffffffffffffffffffffffffffffffff1673ffffffffffffffffffffffffffffffffffffffff16815260200190815260200160002060008881526020019081526020016000205484604001516040516135ce94939291906140a7565b60405180910390a15050505050565b600081836135eb919061457f565b905092915050565b600081836136019190614529565b905092915050565b6000803090506000813b9050600081149250505090565b6000838311158290613668576040517f08c379a000000000000000000000000000000000000000000000000000000000815260040161365f9190614122565b60405180910390fd5b5082840390509392505050565b8280546136819061469d565b90600052602060002090601f0160209004810192826136a357600085556136ea565b82601f106136bc57805160ff19168380011785556136ea565b828001600101855582156136ea579182015b828111156136e95782518255916020019190600101906136ce565b5b5090506136f79190613793565b5090565b60405180610140016040528060008152602001600073ffffffffffffffffffffffffffffffffffffffff1681526020016000815260200160008152602001600073ffffffffffffffffffffffffffffffffffffffff168152602001600073ffffffffffffffffffffffffffffffffffffffff168152602001600060ff1681526020016060815260200160608152602001606081525090565b5b808211156137ac576000816000905550600101613794565b5090565b60006137c36137be846144cb565b6144a6565b9050828152602081018484840111156137db57600080fd5b6137e684828561466a565b509392505050565b6000813590506137fd816149f9565b92915050565b600081519050613812816149f9565b92915050565b60008135905061382781614a10565b92915050565b60008151905061383c81614a10565b92915050565b60008083601f84011261385457600080fd5b8235905067ffffffffffffffff81111561386d57600080fd5b60208301915083600182028301111561388557600080fd5b9250929050565b600082601f83011261389d57600080fd5b81516138ad8482602086016137b0565b91505092915050565b6000813590506138c581614a27565b92915050565b6000813590506138da81614a3e565b92915050565b6000602082840312156138f257600080fd5b6000613900848285016137ee565b91505092915050565b60006020828403121561391b57600080fd5b600061392984828501613803565b91505092915050565b60008060008060006080868803121561394a57600080fd5b6000613958888289016137ee565b9550506020613969888289016137ee565b945050604061397a888289016138b6565b935050606086013567ffffffffffffffff81111561399757600080fd5b6139a388828901613842565b92509250509295509295909350565b600080604083850312156139c557600080fd5b60006139d3858286016137ee565b92505060206139e485828601613818565b9150509250929050565b60008060408385031215613a0157600080fd5b6000613a0f858286016137ee565b9250506020613a20858286016138b6565b9150509250929050565b60008060008060808587031215613a4057600080fd5b6000613a4e878288016137ee565b9450506020613a5f878288016138b6565b9350506040613a70878288016137ee565b9250506060613a81878288016137ee565b91505092959194509250565b600080600060608486031215613aa257600080fd5b6000613ab0868287016137ee565b9350506020613ac1868287016138b6565b9250506040613ad2868287016138b6565b9150509250925092565b600060208284031215613aee57600080fd5b6000613afc8482850161382d565b91505092915050565b600060208284031215613b1757600080fd5b600082015167ffffffffffffffff811115613b3157600080fd5b613b3d8482850161388c565b91505092915050565b600060208284031215613b5857600080fd5b6000613b66848285016138b6565b91505092915050565b60008060408385031215613b8257600080fd5b6000613b90858286016138b6565b9250506020613ba1858286016137ee565b9150509250929050565b60008060008060808587031215613bc157600080fd5b6000613bcf878288016138b6565b9450506020613be0878288016137ee565b9350506040613bf1878288016137ee565b9250506060613c02878288016138b6565b91505092959194509250565b600080600080600060a08688031215613c2657600080fd5b6000613c34888289016138b6565b9550506020613c45888289016137ee565b9450506040613c56888289016137ee565b9350506060613c67888289016138b6565b9250506080613c78888289016138cb565b9150509295509295909350565b613c8e81614634565b82525050565b613c9d816145b3565b82525050565b613cac816145b3565b82525050565b613cbb816145c5565b82525050565b613cca816145d1565b82525050565b6000613cdb826144fc565b613ce58185614507565b9350613cf581856020860161466a565b613cfe8161478d565b840191505092915050565b6000613d14826144fc565b613d1e8185614518565b9350613d2e81856020860161466a565b613d378161478d565b840191505092915050565b6000613d4f601283614518565b9150613d5a8261479e565b602082019050919050565b6000613d72600f83614518565b9150613d7d826147c7565b602082019050919050565b6000613d95601d83614518565b9150613da0826147f0565b602082019050919050565b6000613db8601d83614518565b9150613dc382614819565b602082019050919050565b6000613ddb602483614518565b9150613de682614842565b604082019050919050565b6000613dfe602e83614518565b9150613e0982614891565b604082019050919050565b6000613e21602d83614518565b9150613e2c826148e0565b604082019050919050565b6000613e44603183614518565b9150613e4f8261492f565b604082019050919050565b6000613e67600e83614518565b9150613e728261497e565b602082019050919050565b6000613e8a601f83614518565b9150613e95826149a7565b602082019050919050565b6000613ead601083614518565b9150613eb8826149d0565b602082019050919050565b600061014083016000830151613edc6000860182613fab565b506020830151613eef6020860182613c94565b506040830151613f026040860182613fab565b506060830151613f156060860182613fab565b506080830151613f286080860182613c94565b5060a0830151613f3b60a0860182613c94565b5060c0830151613f4e60c0860182613fc9565b5060e083015184820360e0860152613f668282613cd0565b915050610100830151848203610100860152613f828282613cd0565b915050610120830151848203610120860152613f9e8282613cd0565b9150508091505092915050565b613fb48161461d565b82525050565b613fc38161461d565b82525050565b613fd281614627565b82525050565b613fe181614627565b82525050565b6000604082019050613ffc6000830185613c85565b6140096020830184613fba565b9392505050565b60006060820190506140256000830186613ca3565b6140326020830185613ca3565b61403f6040830184613fba565b949350505050565b600060408201905061405c6000830185613ca3565b6140696020830184613fba565b9392505050565b60006060820190506140856000830186613ca3565b6140926020830185613fba565b61409f6040830184613fba565b949350505050565b60006080820190506140bc6000830187613ca3565b6140c96020830186613fba565b6140d66040830185613fba565b6140e36060830184613fba565b95945050505050565b60006020820190506141016000830184613cb2565b92915050565b600060208201905061411c6000830184613cc1565b92915050565b6000602082019050818103600083015261413c8184613d09565b905092915050565b6000602082019050818103600083015261415d81613d42565b9050919050565b6000602082019050818103600083015261417d81613d65565b9050919050565b6000602082019050818103600083015261419d81613d88565b9050919050565b600060208201905081810360008301526141bd81613dab565b9050919050565b600060208201905081810360008301526141dd81613dce565b9050919050565b600060208201905081810360008301526141fd81613df1565b9050919050565b6000602082019050818103600083015261421d81613e14565b9050919050565b6000602082019050818103600083015261423d81613e37565b9050919050565b6000602082019050818103600083015261425d81613e5a565b9050919050565b6000602082019050818103600083015261427d81613e7d565b9050919050565b6000602082019050818103600083015261429d81613ea0565b9050919050565b600060208201905081810360008301526142be8184613ec3565b905092915050565b60006020820190506142db6000830184613fba565b92915050565b60006040820190506142f66000830185613fba565b6143036020830184613ca3565b9392505050565b600060608201905061431f6000830186613fba565b61432c6020830185613ca3565b6143396040830184613c85565b949350505050565b600060a0820190506143566000830188613fba565b6143636020830187613ca3565b6143706040830186613ca3565b61437d6060830185613fba565b61438a6080830184613fba565b9695505050505050565b600060c0820190506143a96000830189613fba565b6143b66020830188613ca3565b6143c36040830187613ca3565b6143d06060830186613fba565b6143dd6080830185613fd8565b6143ea60a0830184613fba565b979650505050505050565b60006101408201905061440b600083018d613fba565b614418602083018c613ca3565b614425604083018b613fba565b614432606083018a613fba565b61443f6080830189613ca3565b61444c60a0830188613ca3565b61445960c0830187613fd8565b81810360e083015261446b8186613d09565b90508181036101008301526144808185613d09565b90508181036101208301526144958184613d09565b90509b9a5050505050505050505050565b60006144b06144c1565b90506144bc82826146cf565b919050565b6000604051905090565b600067ffffffffffffffff8211156144e6576144e561475e565b5b6144ef8261478d565b9050602081019050919050565b600081519050919050565b600082825260208201905092915050565b600082825260208201905092915050565b60006145348261461d565b915061453f8361461d565b9250827fffffffffffffffffffffffffffffffffffffffffffffffffffffffffffffffff0382111561457457614573614700565b5b828201905092915050565b600061458a8261461d565b91506145958361461d565b9250828210156145a8576145a7614700565b5b828203905092915050565b60006145be826145fd565b9050919050565b60008115159050919050565b60007fffffffff0000000000000000000000000000000000000000000000000000000082169050919050565b600073ffffffffffffffffffffffffffffffffffffffff82169050919050565b6000819050919050565b600060ff82169050919050565b600061463f82614646565b9050919050565b600061465182614658565b9050919050565b6000614663826145fd565b9050919050565b60005b8381101561468857808201518184015260208101905061466d565b83811115614697576000848401525b50505050565b600060028204905060018216806146b557607f821691505b602082108114156146c9576146c861472f565b5b50919050565b6146d88261478d565b810181811067ffffffffffffffff821117156146f7576146f661475e565b5b80604052505050565b7f4e487b7100000000000000000000000000000000000000000000000000000000600052601160045260246000fd5b7f4e487b7100000000000000000000000000000000000000000000000000000000600052602260045260246000fd5b7f4e487b7100000000000000000000000000000000000000000000000000000000600052604160045260246000fd5b6000601f19601f8301169050919050565b7f546869732061736b20697320636c6f7365640000000000000000000000000000600082015250565b7f4f6e6c7920657363726f772063616e0000000000000000000000000000000000600082015250565b7f4f6e6c7920746f6b656e206f776e65722063616e20656469742061736b000000600082015250565b7f4f6e6c7920746f6b656e206f776e65722063616e206d616b652061736b000000600082015250565b7f4f6e6c7920657363726f77206f722062757965722063616e2063616c6c20627560008201527f794b534d00000000000000000000000000000000000000000000000000000000602082015250565b7f436f6e747261637420696e7374616e63652068617320616c726561647920626560008201527f656e20696e697469616c697a6564000000000000000000000000000000000000602082015250565b7f4e6f7420726967687420616d6f756e742073656e742c206861766520746f206260008201527f6520657175616c20707269636500000000000000000000000000000000000000602082015250565b7f4f6e6c7920657363726f77206f722062616c616e6365206f776e65722063616e60008201527f20776974686472617720616c6c204b534d000000000000000000000000000000602082015250565b7f4f6e6c79206f776e65722063616e000000000000000000000000000000000000600082015250565b7f5265656e7472616e637947756172643a207265656e7472616e742063616c6c00600082015250565b7f4e6f20737563682066756e6374696f6e00000000000000000000000000000000600082015250565b614a02816145b3565b8114614a0d57600080fd5b50565b614a19816145c5565b8114614a2457600080fd5b50565b614a308161461d565b8114614a3b57600080fd5b50565b614a4781614627565b8114614a5257600080fd5b5056fea2646970667358221220726216c1f0241a24656e28adc74acd06cd0ab70d971e7da6c3cf5936376307e764736f6c63430008040033",
  "immutableReferences": {},
  "source": "// SPDX-License-Identifier:  Apache License\npragma solidity >= 0.8.0;\nimport \"./interfaces/IERC721ext.sol\";\nimport \"@openzeppelin/contracts/token/ERC721/IERC721Receiver.sol\";\nimport \"@openzeppelin/contracts/utils/math/SafeMath.sol\";\nimport \"@openzeppelin/contracts/token/ERC20/IERC20.sol\";\nimport \"./Initializable.sol\";\n\n\ncontract MarketPlace_new is IERC721Receiver, Initializable {\n    using SafeMath for uint;\n    struct Order {\n        \n        uint256 idNFT;\n        address currencyCode; // UNIQ tokens as address address (1); wKSM \n        uint256 price;\n        uint256 time;\n        address idCollection;\n        address ownerAddr;\n        uint8 flagActive;\n        string name;\n        string symbol;\n        string tokenURI;        \n    }\n    Order[] public  orders;\n    uint test;\n    mapping (address => uint256) public balanceKSM;  //  [ownerAddr][currency] => [KSMs]\n    mapping (address => mapping (uint256 => uint256)) public  asks ; // [buyer][idCollection][idNFT] => idorder\n    mapping (address => mapping (uint => uint[])) public ordersbyNFT; // [addressCollection] =>idNFT =>idorder\n\n    mapping (address => uint[]) public asksbySeller; // [addressSeller] =>idorder\n\n    mapping (address =>bool) internal isEscrow;\n\n    //address escrow;\n    address owner;\n    address nativecoin;\n\n    // from abstract contract ReentrancyGuard \n    // Booleans are more expensive than uint256 or any type that takes up a full\n    // word because each write operation emits an extra SLOAD to first read the\n    // slot's contents, replace the bits taken up by the boolean, and then write\n    // back. This is the compiler's defense against contract upgrades and\n    // pointer aliasing, and it cannot be disabled.\n\n    // The values being non-zero value makes deployment a bit more expensive,\n    // but in exchange the refund on every call to nonReentrant will be lower in\n    // amount. Since refunds are capped to a percentage of the total\n    // transaction's gas, it is best to keep them low in cases like this one, to\n    // increase the likelihood of the full refund coming into effect.\n    uint8 private constant _NOT_ENTERED = 1;\n    uint8 private constant _ENTERED = 2;\n\n    uint8 private _status;\n\n    //constructor (address _owner, address _escrow) {\n     function initialize() public initializer {\n   \n        owner = msg.sender;\n\n         orders.push(Order(        \n                    0,\n                    address(0),\n                    0,\n                    0,\n                    address(0),\n                    address(0),\n                    0, \"\",\"\",\"\"));\n         _status = _NOT_ENTERED;\n\n    }\n\n    modifier nonReentrant() { // from abstract contract ReentrancyGuard \n        // On the first call to nonReentrant, _notEntered will be true\n        require(_status != _ENTERED, \"ReentrancyGuard: reentrant call\");\n\n        // Any calls to nonReentrant after this point will fail\n        _status = _ENTERED;\n\n        _;\n\n        // By storing the original value once again, a refund is triggered (see\n        // https://eips.ethereum.org/EIPS/eip-2200)\n        _status = _NOT_ENTERED;\n    }\n\n    modifier onlyEscrow () {\n        require(isEscrow [msg.sender] , \"Only escrow can\");\n        _;\n    }\n\n    modifier onlyOwner () {\n        require(msg.sender == owner, \"Only owner can\");\n        _;\n    }\n\n    /**\n    * Make bids (orders) to sell NFTs \n    */\n\n     \n    receive  () external payable onlyOwner {\n     //   revert (\"Can't accept payment without collection and IDs, use dApp to send\");\n    }\n    fallback () external payable {\n        revert (\"No such function\");\n    } \n\n    event AddedAsk (uint256 _price, \n                    address  _currencyCode, \n                    address _idCollection, \n                    uint256 _idNFT,\n                    uint256 orderId\n                  );\n    event EditedAsk (uint256 _price, \n                    address  _currencyCode, \n                    address _idCollection, \n                    uint256 _idNFT,\n                    uint8  _active,\n                    uint orderId);\n\n    event  CanceledAsk (address _idCollection, \n                        uint256 _idNFT, \n                        uint orderId\n                        );\n\n    event DepositedKSM (uint256 _amount,  address _sender);\n\n    event BoughtNFT4KSM (address _idCollection, uint256 _idNFT, uint orderID, uint orderPrice );\n\n    event BoughtNFT (address _idCollection, uint256 _idNFT, uint orderID, uint orderPrice );\n\n    event WithdrawnAllKSM (address _sender, uint256 balance); \n\n    event WithdrawnKSM (address _sender, uint256 balance); \n\n    event Withdrawn (uint256 _amount, address _currencyCode, address _sender);\n    \n\n   function setOwner  (address _newOwner) public onlyOwner {\n        owner = _newOwner;\n    }\n\n    function setEscrow  (address _escrow, bool _state) public onlyOwner returns (bool) {\n        if (isEscrow[_escrow] != _state)  {\n            isEscrow[_escrow] = _state;\n            return true;\n        }\n        return false;\n    }\n\n    function setNativeCoin  (address _coin) public onlyOwner {\n        nativecoin = _coin;\n    }\n\n\n    function addAsk (uint256 _price, \n                    address  _currencyCode, \n                    address _idCollection, \n                    uint256 _idNFT\n                  ) public  { //\n        address ownerNFT = IERC721ext(_idCollection).ownerOf(_idNFT);\n        require (ownerNFT == msg.sender, \"Only token owner can make ask\");\n        string memory nameNFT;\n        string memory symbolNFT;\n        string memory uriNFT;\n        try IERC721ext(_idCollection).name() returns (string memory name_) {\n            nameNFT = name_;\n        }\n        catch {\n            nameNFT=\"\";\n        }   \n        try IERC721ext(_idCollection).symbol() returns (string memory symbol_) {\n            symbolNFT = symbol_;\n        }\n        catch {\n            symbolNFT=\"\";\n        }  \n        try IERC721ext(_idCollection).tokenURI(_idNFT) returns (string memory uri_) {\n            uriNFT = uri_;\n        }\n        catch {\n            uriNFT=\"\";\n        }        \n        orders.push(Order(        \n                    _idNFT,\n                    _currencyCode,\n                    _price,\n                    block.timestamp,\n                    _idCollection,\n                    msg.sender,\n                    1, // 1 = is active\n                    nameNFT, \n                    symbolNFT,\n                    uriNFT\n             ));\n            \n            uint orderId = orders.length-1;\n            asks[_idCollection][_idNFT] = orderId;\n            asksbySeller[msg.sender].push(orderId);\n            IERC721ext(_idCollection).transferFrom(msg.sender, address(this), _idNFT);\n            emit AddedAsk(_price, _currencyCode, _idCollection, _idNFT, orderId);     \n    }\n\n    function editAsk (uint256 _price, \n                    address  _currencyCode, \n                    address _idCollection, \n                    uint256 _idNFT,\n                    uint8  _active) public {\n        \n\n        uint orderID =  asks[_idCollection][_idNFT];\n\n        require (orders[orderID].ownerAddr == msg.sender, \"Only token owner can edit ask\");\n        require (orders[orderID].flagActive != 0, \"This ask is closed\");\n        if (_price> 0 ) {\n            orders[orderID].price = _price ;  \n        }\n        \n        if (_currencyCode != address(0) ) {\n            orders[orderID].currencyCode = _currencyCode ;  \n        }\n\n        orders[orderID].time = block.timestamp;\n        orders[orderID].flagActive = _active;\n        \n        emit EditedAsk(_price, _currencyCode, _idCollection, _idNFT, _active, orderID);\n        }\n        \n\n    function cancelAsk (address _idCollection, \n                        uint256 _idNFT\n                        ) public {\n\n        uint orderID =  asks[_idCollection][_idNFT];\n\n        require (orders[orderID].ownerAddr == msg.sender, \"Only token owner can edit ask\");\n        require (orders[orderID].flagActive != 0, \"This ask is closed\");\n\n        orders[orderID].time = block.timestamp;\n        orders[orderID].flagActive = 0;\n        IERC721ext(_idCollection).transferFrom(address(this),orders[orderID].ownerAddr, _idNFT);\n        emit CanceledAsk(_idCollection, _idNFT, orderID);\n        }\n\n\n    function depositKSM (uint256 _amount,  address _sender) public onlyEscrow {\n\n        balanceKSM[_sender]= balanceKSM[_sender].add(_amount);\n        emit DepositedKSM(_amount, _sender);\n    }\n\n    function buyKSM (address _idCollection, uint256 _idNFT, address _buyer, address _receiver ) public {\n        \n        Order memory order = orders[ asks[_idCollection][_idNFT]];\n        require(isEscrow[msg.sender]  || msg.sender == _buyer, \"Only escrow or buyer can call buyKSM\" );\n        //1. reduce balance\n\n        balanceKSM[_buyer] = balanceKSM[_buyer].sub( order.price, \"Insuccificient KSMs funds\");\n        balanceKSM[order.ownerAddr] = balanceKSM[order.ownerAddr].add( order.price);\n        // 2. close order\n        orders[ asks[_idCollection][_idNFT]].flagActive = 0;\n        // 3. transfer NFT to buyer\n        IERC721ext(_idCollection).transferFrom(address(this), _receiver, _idNFT);\n        emit BoughtNFT4KSM(_idCollection, _idNFT, asks[_idCollection][_idNFT], order.price);\n\n    }\n    function buy (address _idCollection, uint256 _idNFT ) public payable returns (bool result) { //buing for UNQ like as ethers \n        \n        Order memory order = orders[asks[_idCollection][_idNFT]]; \n        //1. check sent amount and send to seller\n        require (msg.value == order.price, \"Not right amount sent, have to be equal price\" );     \n        // 2. close order\n        orders[ asks[_idCollection][_idNFT]].flagActive = 0;\n        \n        // 3. transfer NFT to buyer\n        IERC721ext(_idCollection).transferFrom(address(this), msg.sender, _idNFT);\n        //uint balance  = address(this).balance;\n        result = payable(order.ownerAddr).send (order.price); \n        emit BoughtNFT(_idCollection, _idNFT, asks[_idCollection][_idNFT], order.price);\n        \n    }\n\n/* \n    function buyOther (address _idCollection, uint256 _idNFT, address _currencyCode, uint _amount ) public  { //buy for sny token if seller wants\n        \n        Order memory order = orders[ asks[_idCollection][_idNFT]];\n        //1. check sent amount and transfer from buyer to seller\n        require (order.price == _amount && order.currencyCode == _currencyCode, \"Not right amount or currency sent, have to be equal currency and price\" );\n        // !!! transfer have to be approved to marketplace!\n        IERC20(order.currencyCode).transferFrom(msg.sender, address(this), order.price); //to not disclojure buyer's address \n        IERC20(order.currencyCode).transfer(order.ownerAddr, order.price);\n        // 2. close order\n        orders[ asks[_idCollection][_idNFT]].flagActive = 0;\n        // 3. transfer NFT to buyer\n        IERC721ext(_idCollection).transferFrom(address(this), msg.sender, _idNFT);\n\n\n    }\n */\n\n    function withdrawAllKSM (address _sender) public  nonReentrant returns (uint lastBalance ){\n        require(isEscrow[msg.sender]  || msg.sender == _sender, \"Only escrow or balance owner can withdraw all KSM\" );\n\n        lastBalance = balanceKSM[_sender];\n        balanceKSM[_sender] =0;\n        emit WithdrawnAllKSM(_sender, lastBalance);\n    }\n\n    function withdrawKSM (uint _amount, address _sender) onlyEscrow public returns (uint lastBalance ) {\n        lastBalance = balanceKSM[_sender].sub(_amount);\n        emit WithdrawnKSM(_sender, lastBalance);\n        \n    }\n\n    function withdraw (uint256 _amount, address _currencyCode) public  nonReentrant returns (bool result ){ //onlyOwner\n        address payable _sender = payable( msg.sender);\n        if (_currencyCode != nativecoin ) { //erc20 compat. tokens on UNIQUE chain\n            // uint balance = IERC20(_currencyCode).balanceOf(address(this));\n            IERC20(_currencyCode).transfer(_sender, _amount);\n        } else {\n            // uint balance  = address(this).balance;\n\n            result =  (_sender).send(_amount); // for UNQ like as ethers \n        }\n        emit Withdrawn(_amount, _currencyCode, _sender);\n        return result;\n\n    }\n   // event GettedOrder(uint , Order);\n    function getOrder (address _idCollection, uint256 _idNFT) public view returns (Order memory) {\n        uint orderId = asks[_idCollection][_idNFT];\n        Order memory order = orders[orderId];\n //       emit GettedOrder (orderId, order);\n        return order;\n    }\n\n    function getOrdersLen () public view returns (uint) {\n        return orders.length;\n    }\n\n    function onERC721Received(address operator, address from, uint256 tokenId, bytes calldata data)  public override pure returns(bytes4) {\n            return bytes4(keccak256(\"onERC721Received(address,address,uint256,bytes)\"));\n        }\n}",
  "sourcePath": "/mnt/512-2/Uniq/unique-marketplace-contracts/contracts/MarketPlace_new.sol",
  "compiler": {
    "name": "solc",
    "version": "0.8.4+commit.c7e474f2.Emscripten.clang"
  },
  "schemaVersion": "3.4.4",
  "updatedAt": "2022-01-25T14:15:18.334Z",
  "networkType": "ethereum",
  "devdoc": {
    "kind": "dev",
    "methods": {
      "onERC721Received(address,address,uint256,bytes)": {
        "details": "Whenever an {IERC721} `tokenId` token is transferred to this contract via {IERC721-safeTransferFrom} by `operator` from `from`, this function is called. It must return its Solidity selector to confirm the token transfer. If any other value is returned or the interface is not implemented by the recipient, the transfer will be reverted. The selector can be obtained in Solidity with `IERC721.onERC721Received.selector`."
      }
    },
    "version": 1
  },
  "userdoc": {
    "kind": "user",
    "methods": {},
    "version": 1
  }
}