{
  "contractName": "MarketPlace_new",
  "abi": [
    {
      "anonymous": false,
      "inputs": [
        {
          "indexed": false,
          "internalType": "uint256",
          "name": "_price",
          "type": "uint256"
        },
        {
          "indexed": false,
          "internalType": "address",
          "name": "_currencyCode",
          "type": "address"
        },
        {
          "indexed": false,
          "internalType": "address",
          "name": "_idCollection",
          "type": "address"
        },
        {
          "indexed": false,
          "internalType": "uint256",
          "name": "_idNFT",
          "type": "uint256"
        },
        {
          "indexed": false,
          "internalType": "uint256",
          "name": "orderId",
          "type": "uint256"
        }
      ],
      "name": "AddedAsk",
      "type": "event"
    },
    {
      "anonymous": false,
      "inputs": [
        {
          "indexed": false,
          "internalType": "address",
          "name": "_idCollection",
          "type": "address"
        },
        {
          "indexed": false,
          "internalType": "uint256",
          "name": "_idNFT",
          "type": "uint256"
        },
        {
          "indexed": false,
          "internalType": "uint256",
          "name": "orderID",
          "type": "uint256"
        },
        {
          "indexed": false,
          "internalType": "uint256",
          "name": "orderPrice",
          "type": "uint256"
        }
      ],
      "name": "BoughtNFT",
      "type": "event"
    },
    {
      "anonymous": false,
      "inputs": [
        {
          "indexed": false,
          "internalType": "address",
          "name": "_idCollection",
          "type": "address"
        },
        {
          "indexed": false,
          "internalType": "uint256",
          "name": "_idNFT",
          "type": "uint256"
        },
        {
          "indexed": false,
          "internalType": "uint256",
          "name": "orderID",
          "type": "uint256"
        },
        {
          "indexed": false,
          "internalType": "uint256",
          "name": "orderPrice",
          "type": "uint256"
        }
      ],
      "name": "BoughtNFT4KSM",
      "type": "event"
    },
    {
      "anonymous": false,
      "inputs": [
        {
          "indexed": false,
          "internalType": "address",
          "name": "_idCollection",
          "type": "address"
        },
        {
          "indexed": false,
          "internalType": "uint256",
          "name": "_idNFT",
          "type": "uint256"
        },
        {
          "indexed": false,
          "internalType": "uint256",
          "name": "orderId",
          "type": "uint256"
        }
      ],
      "name": "CanceledAsk",
      "type": "event"
    },
    {
      "anonymous": false,
      "inputs": [
        {
          "indexed": false,
          "internalType": "uint256",
          "name": "_amount",
          "type": "uint256"
        },
        {
          "indexed": false,
          "internalType": "address",
          "name": "_sender",
          "type": "address"
        }
      ],
      "name": "DepositedKSM",
      "type": "event"
    },
    {
      "anonymous": false,
      "inputs": [
        {
          "indexed": false,
          "internalType": "uint256",
          "name": "_price",
          "type": "uint256"
        },
        {
          "indexed": false,
          "internalType": "address",
          "name": "_currencyCode",
          "type": "address"
        },
        {
          "indexed": false,
          "internalType": "address",
          "name": "_idCollection",
          "type": "address"
        },
        {
          "indexed": false,
          "internalType": "uint256",
          "name": "_idNFT",
          "type": "uint256"
        },
        {
          "indexed": false,
          "internalType": "uint8",
          "name": "_active",
          "type": "uint8"
        },
        {
          "indexed": false,
          "internalType": "uint256",
          "name": "orderId",
          "type": "uint256"
        }
      ],
      "name": "EditedAsk",
      "type": "event"
    },
    {
      "anonymous": false,
      "inputs": [
        {
          "indexed": false,
          "internalType": "uint256",
          "name": "_amount",
          "type": "uint256"
        },
        {
          "indexed": false,
          "internalType": "address",
          "name": "_currencyCode",
          "type": "address"
        },
        {
          "indexed": false,
          "internalType": "address",
          "name": "_sender",
          "type": "address"
        }
      ],
      "name": "Withdrawn",
      "type": "event"
    },
    {
      "anonymous": false,
      "inputs": [
        {
          "indexed": false,
          "internalType": "address",
          "name": "_sender",
          "type": "address"
        },
        {
          "indexed": false,
          "internalType": "uint256",
          "name": "balance",
          "type": "uint256"
        }
      ],
      "name": "WithdrawnAllKSM",
      "type": "event"
    },
    {
      "anonymous": false,
      "inputs": [
        {
          "indexed": false,
          "internalType": "address",
          "name": "_sender",
          "type": "address"
        },
        {
          "indexed": false,
          "internalType": "uint256",
          "name": "balance",
          "type": "uint256"
        }
      ],
      "name": "WithdrawnKSM",
      "type": "event"
    },
    {
      "stateMutability": "payable",
      "type": "fallback"
    },
    {
      "inputs": [
        {
          "internalType": "address",
          "name": "",
          "type": "address"
        },
        {
          "internalType": "uint256",
          "name": "",
          "type": "uint256"
        }
      ],
      "name": "asks",
      "outputs": [
        {
          "internalType": "uint256",
          "name": "",
          "type": "uint256"
        }
      ],
      "stateMutability": "view",
      "type": "function"
    },
    {
      "inputs": [
        {
          "internalType": "address",
          "name": "",
          "type": "address"
        },
        {
          "internalType": "uint256",
          "name": "",
          "type": "uint256"
        }
      ],
      "name": "asksbySeller",
      "outputs": [
        {
          "internalType": "uint256",
          "name": "",
          "type": "uint256"
        }
      ],
      "stateMutability": "view",
      "type": "function"
    },
    {
      "inputs": [
        {
          "internalType": "address",
          "name": "",
          "type": "address"
        }
      ],
      "name": "balanceKSM",
      "outputs": [
        {
          "internalType": "uint256",
          "name": "",
          "type": "uint256"
        }
      ],
      "stateMutability": "view",
      "type": "function"
    },
    {
      "inputs": [
        {
          "internalType": "uint256",
          "name": "",
          "type": "uint256"
        }
      ],
      "name": "orders",
      "outputs": [
        {
          "internalType": "uint256",
          "name": "idNFT",
          "type": "uint256"
        },
        {
          "internalType": "address",
          "name": "currencyCode",
          "type": "address"
        },
        {
          "internalType": "uint256",
          "name": "price",
          "type": "uint256"
        },
        {
          "internalType": "uint256",
          "name": "time",
          "type": "uint256"
        },
        {
          "internalType": "address",
          "name": "idCollection",
          "type": "address"
        },
        {
          "internalType": "address",
          "name": "ownerAddr",
          "type": "address"
        },
        {
          "internalType": "uint8",
          "name": "flagActive",
          "type": "uint8"
        },
        {
          "internalType": "string",
          "name": "name",
          "type": "string"
        },
        {
          "internalType": "string",
          "name": "symbol",
          "type": "string"
        },
        {
          "internalType": "string",
          "name": "tokenURI",
          "type": "string"
        }
      ],
      "stateMutability": "view",
      "type": "function"
    },
    {
      "inputs": [
        {
          "internalType": "address",
          "name": "",
          "type": "address"
        },
        {
          "internalType": "uint256",
          "name": "",
          "type": "uint256"
        },
        {
          "internalType": "uint256",
          "name": "",
          "type": "uint256"
        }
      ],
      "name": "ordersbyNFT",
      "outputs": [
        {
          "internalType": "uint256",
          "name": "",
          "type": "uint256"
        }
      ],
      "stateMutability": "view",
      "type": "function"
    },
    {
      "stateMutability": "payable",
      "type": "receive"
    },
    {
      "inputs": [],
      "name": "initialize",
      "outputs": [],
      "stateMutability": "nonpayable",
      "type": "function"
    },
    {
      "inputs": [
        {
          "internalType": "address",
          "name": "_newOwner",
          "type": "address"
        }
      ],
      "name": "setOwner",
      "outputs": [],
      "stateMutability": "nonpayable",
      "type": "function"
    },
    {
      "inputs": [
        {
          "internalType": "address",
          "name": "_escrow",
          "type": "address"
        },
        {
          "internalType": "bool",
          "name": "_state",
          "type": "bool"
        }
      ],
      "name": "setEscrow",
      "outputs": [
        {
          "internalType": "bool",
          "name": "",
          "type": "bool"
        }
      ],
      "stateMutability": "nonpayable",
      "type": "function"
    },
    {
      "inputs": [
        {
          "internalType": "address",
          "name": "_coin",
          "type": "address"
        }
      ],
      "name": "setNativeCoin",
      "outputs": [],
      "stateMutability": "nonpayable",
      "type": "function"
    },
    {
      "inputs": [
        {
          "internalType": "uint256",
          "name": "_price",
          "type": "uint256"
        },
        {
          "internalType": "address",
          "name": "_currencyCode",
          "type": "address"
        },
        {
          "internalType": "address",
          "name": "_idCollection",
          "type": "address"
        },
        {
          "internalType": "uint256",
          "name": "_idNFT",
          "type": "uint256"
        }
      ],
      "name": "addAsk",
      "outputs": [],
      "stateMutability": "nonpayable",
      "type": "function"
    },
    {
      "inputs": [
        {
          "internalType": "uint256",
          "name": "_price",
          "type": "uint256"
        },
        {
          "internalType": "address",
          "name": "_currencyCode",
          "type": "address"
        },
        {
          "internalType": "address",
          "name": "_idCollection",
          "type": "address"
        },
        {
          "internalType": "uint256",
          "name": "_idNFT",
          "type": "uint256"
        },
        {
          "internalType": "uint8",
          "name": "_active",
          "type": "uint8"
        }
      ],
      "name": "editAsk",
      "outputs": [],
      "stateMutability": "nonpayable",
      "type": "function"
    },
    {
      "inputs": [
        {
          "internalType": "address",
          "name": "_idCollection",
          "type": "address"
        },
        {
          "internalType": "uint256",
          "name": "_idNFT",
          "type": "uint256"
        }
      ],
      "name": "cancelAsk",
      "outputs": [],
      "stateMutability": "nonpayable",
      "type": "function"
    },
    {
      "inputs": [
        {
          "internalType": "uint256",
          "name": "_amount",
          "type": "uint256"
        },
        {
          "internalType": "address",
          "name": "_sender",
          "type": "address"
        }
      ],
      "name": "depositKSM",
      "outputs": [],
      "stateMutability": "nonpayable",
      "type": "function"
    },
    {
      "inputs": [
        {
          "internalType": "address",
          "name": "_idCollection",
          "type": "address"
        },
        {
          "internalType": "uint256",
          "name": "_idNFT",
          "type": "uint256"
        },
        {
          "internalType": "address",
          "name": "_buyer",
          "type": "address"
        },
        {
          "internalType": "address",
          "name": "_receiver",
          "type": "address"
        }
      ],
      "name": "buyKSM",
      "outputs": [],
      "stateMutability": "nonpayable",
      "type": "function"
    },
    {
      "inputs": [
        {
          "internalType": "address",
          "name": "_idCollection",
          "type": "address"
        },
        {
          "internalType": "uint256",
          "name": "_idNFT",
          "type": "uint256"
        }
      ],
      "name": "buy",
      "outputs": [
        {
          "internalType": "bool",
          "name": "result",
          "type": "bool"
        }
      ],
      "stateMutability": "payable",
      "type": "function"
    },
    {
      "inputs": [
        {
          "internalType": "address",
          "name": "_sender",
          "type": "address"
        }
      ],
      "name": "withdrawAllKSM",
      "outputs": [
        {
          "internalType": "uint256",
          "name": "lastBalance",
          "type": "uint256"
        }
      ],
      "stateMutability": "nonpayable",
      "type": "function"
    },
    {
      "inputs": [
        {
          "internalType": "uint256",
          "name": "_amount",
          "type": "uint256"
        },
        {
          "internalType": "address",
          "name": "_sender",
          "type": "address"
        }
      ],
      "name": "withdrawKSM",
      "outputs": [
        {
          "internalType": "uint256",
          "name": "lastBalance",
          "type": "uint256"
        }
      ],
      "stateMutability": "nonpayable",
      "type": "function"
    },
    {
      "inputs": [
        {
          "internalType": "uint256",
          "name": "_amount",
          "type": "uint256"
        },
        {
          "internalType": "address",
          "name": "_currencyCode",
          "type": "address"
        }
      ],
      "name": "withdraw",
      "outputs": [
        {
          "internalType": "bool",
          "name": "result",
          "type": "bool"
        }
      ],
      "stateMutability": "nonpayable",
      "type": "function"
    },
    {
      "inputs": [
        {
          "internalType": "address",
          "name": "_idCollection",
          "type": "address"
        },
        {
          "internalType": "uint256",
          "name": "_idNFT",
          "type": "uint256"
        }
      ],
      "name": "getOrder",
      "outputs": [
        {
          "components": [
            {
              "internalType": "uint256",
              "name": "idNFT",
              "type": "uint256"
            },
            {
              "internalType": "address",
              "name": "currencyCode",
              "type": "address"
            },
            {
              "internalType": "uint256",
              "name": "price",
              "type": "uint256"
            },
            {
              "internalType": "uint256",
              "name": "time",
              "type": "uint256"
            },
            {
              "internalType": "address",
              "name": "idCollection",
              "type": "address"
            },
            {
              "internalType": "address",
              "name": "ownerAddr",
              "type": "address"
            },
            {
              "internalType": "uint8",
              "name": "flagActive",
              "type": "uint8"
            },
            {
              "internalType": "string",
              "name": "name",
              "type": "string"
            },
            {
              "internalType": "string",
              "name": "symbol",
              "type": "string"
            },
            {
              "internalType": "string",
              "name": "tokenURI",
              "type": "string"
            }
          ],
          "internalType": "struct MarketPlace_new.Order",
          "name": "",
          "type": "tuple"
        }
      ],
      "stateMutability": "view",
      "type": "function"
    },
    {
      "inputs": [],
      "name": "getOrdersLen",
      "outputs": [
        {
          "internalType": "uint256",
          "name": "",
          "type": "uint256"
        }
      ],
      "stateMutability": "view",
      "type": "function"
    },
    {
      "inputs": [
        {
          "internalType": "address",
          "name": "operator",
          "type": "address"
        },
        {
          "internalType": "address",
          "name": "from",
          "type": "address"
        },
        {
          "internalType": "uint256",
          "name": "tokenId",
          "type": "uint256"
        },
        {
          "internalType": "bytes",
          "name": "data",
          "type": "bytes"
        }
      ],
      "name": "onERC721Received",
      "outputs": [
        {
          "internalType": "bytes4",
          "name": "",
          "type": "bytes4"
        }
      ],
      "stateMutability": "pure",
      "type": "function"
    }
  ],
  "bytecode": "0x608060405234801561001057600080fd5b50614aec806100206000396000f3fe60806040526004361061012d5760003560e01c8063791bd866116100ab578063a85c38ef1161006f578063a85c38ef1461048b578063b4c3e8ea146104d1578063cce7ec131461050e578063e22d4f7d1461053e578063edb258411461057b578063fd8868c7146105b85761016d565b8063791bd866146103a65780638129fc1c146103cf5780638c088f00146103e657806393cdd3341461041157806399f2d4eb1461044e5761016d565b806337c4eb58116100f257806337c4eb58146102c55780633ce61756146102ee57806340b807461461031757806341fd6790146103405780636b084b251461037d5761016d565b8062f714ce146101a857806313af4035146101e5578063150b7a021461020e578063224234041461024b578063229003ec146102885761016d565b3661016d576040517f08c379a0000000000000000000000000000000000000000000000000000000008152600401610164906141f0565b60405180910390fd5b6040517f08c379a000000000000000000000000000000000000000000000000000000000815260040161019f90614270565b60405180910390fd5b3480156101b457600080fd5b506101cf60048036038101906101ca9190613b18565b6105e1565b6040516101dc91906140b8565b60405180910390f35b3480156101f157600080fd5b5061020c60048036038101906102079190613889565b6107db565b005b34801561021a57600080fd5b50610235600480360381019061023091906138db565b6108af565b60405161024291906140d3565b60405180910390f35b34801561025757600080fd5b50610272600480360381019061026d9190613b18565b6108dd565b60405161027f91906142b2565b60405180910390f35b34801561029457600080fd5b506102af60048036038101906102aa919061395b565b6109fe565b6040516102bc91906140b8565b60405180910390f35b3480156102d157600080fd5b506102ec60048036038101906102e79190613b54565b610b52565b005b3480156102fa57600080fd5b5061031560048036038101906103109190613889565b6111e1565b005b34801561032357600080fd5b5061033e60048036038101906103399190613997565b6112b5565b005b34801561034c57600080fd5b5061036760048036038101906103629190613a36565b611651565b60405161037491906142b2565b60405180910390f35b34801561038957600080fd5b506103a4600480360381019061039f9190613bb7565b61168f565b005b3480156103b257600080fd5b506103cd60048036038101906103c89190613b18565b611a72565b005b3480156103db57600080fd5b506103e4611bd0565b005b3480156103f257600080fd5b506103fb611f6e565b60405161040891906142b2565b60405180910390f35b34801561041d57600080fd5b5061043860048036038101906104339190613889565b611f7b565b60405161044591906142b2565b60405180910390f35b34801561045a57600080fd5b5061047560048036038101906104709190613997565b612195565b60405161048291906142b2565b60405180910390f35b34801561049757600080fd5b506104b260048036038101906104ad9190613aef565b6121c6565b6040516104c89a999897969594939291906143e1565b60405180910390f35b3480156104dd57600080fd5b506104f860048036038101906104f39190613889565b61242f565b60405161050591906142b2565b60405180910390f35b61052860048036038101906105239190613997565b612447565b60405161053591906140b8565b60405180910390f35b34801561054a57600080fd5b5061056560048036038101906105609190613997565b612a24565b60405161057291906142b2565b60405180910390f35b34801561058757600080fd5b506105a2600480360381019061059d9190613997565b612a49565b6040516105af9190614290565b60405180910390f35b3480156105c457600080fd5b506105df60048036038101906105da91906139d3565b612dfc565b005b6000600260ff16603b60149054906101000a900460ff1660ff16141561063c576040517f08c379a000000000000000000000000000000000000000000000000000000000815260040161063390614250565b60405180910390fd5b6002603b60146101000a81548160ff021916908360ff1602179055506000339050603b60009054906101000a900473ffffffffffffffffffffffffffffffffffffffff1673ffffffffffffffffffffffffffffffffffffffff168373ffffffffffffffffffffffffffffffffffffffff1614610745578273ffffffffffffffffffffffffffffffffffffffff1663a9059cbb82866040518363ffffffff1660e01b81526004016106ed929190613fb3565b602060405180830381600087803b15801561070757600080fd5b505af115801561071b573d6000803e3d6000fd5b505050506040513d601f19601f8201168201806040525081019061073f9190613a85565b5061077d565b8073ffffffffffffffffffffffffffffffffffffffff166108fc859081150290604051600060405180830381858888f1935050505091505b7fb524bace85e4ce0f8da306e32f39263c5724780ca00b7551c051c8e3dc36adaf8484836040516107b0939291906142f6565b60405180910390a1506001603b60146101000a81548160ff021916908360ff16021790555092915050565b603a60009054906101000a900473ffffffffffffffffffffffffffffffffffffffff1673ffffffffffffffffffffffffffffffffffffffff163373ffffffffffffffffffffffffffffffffffffffff161461086b576040517f08c379a000000000000000000000000000000000000000000000000000000000815260040161086290614230565b60405180910390fd5b80603a60006101000a81548173ffffffffffffffffffffffffffffffffffffffff021916908373ffffffffffffffffffffffffffffffffffffffff16021790555050565b60007f150b7a023d4804d13e8c85fb27262cb750cf6ba9f9dd3bb30d90f482ceeb4b1f905095945050505050565b6000603960003373ffffffffffffffffffffffffffffffffffffffff1673ffffffffffffffffffffffffffffffffffffffff16815260200190815260200160002060009054906101000a900460ff1661096b576040517f08c379a000000000000000000000000000000000000000000000000000000000815260040161096290614150565b60405180910390fd5b6109bd83603560008573ffffffffffffffffffffffffffffffffffffffff1673ffffffffffffffffffffffffffffffffffffffff1681526020019081526020016000205461358690919063ffffffff16565b90507f8f0e5e76c8c320276261215f096e3d3a21af66eaa72e646ce6351e07e28e2e1a82826040516109f0929190614013565b60405180910390a192915050565b6000603a60009054906101000a900473ffffffffffffffffffffffffffffffffffffffff1673ffffffffffffffffffffffffffffffffffffffff163373ffffffffffffffffffffffffffffffffffffffff1614610a90576040517f08c379a0000000000000000000000000000000000000000000000000000000008152600401610a8790614230565b60405180910390fd5b811515603960008573ffffffffffffffffffffffffffffffffffffffff1673ffffffffffffffffffffffffffffffffffffffff16815260200190815260200160002060009054906101000a900460ff16151514610b475781603960008573ffffffffffffffffffffffffffffffffffffffff1673ffffffffffffffffffffffffffffffffffffffff16815260200190815260200160002060006101000a81548160ff02191690831515021790555060019050610b4c565b600090505b92915050565b60008273ffffffffffffffffffffffffffffffffffffffff16636352211e836040518263ffffffff1660e01b8152600401610b8d91906142b2565b60206040518083038186803b158015610ba557600080fd5b505afa158015610bb9573d6000803e3d6000fd5b505050506040513d601f19601f82011682018060405250810190610bdd91906138b2565b90503373ffffffffffffffffffffffffffffffffffffffff168173ffffffffffffffffffffffffffffffffffffffff1614610c4d576040517f08c379a0000000000000000000000000000000000000000000000000000000008152600401610c4490614190565b60405180910390fd5b60608060608573ffffffffffffffffffffffffffffffffffffffff166306fdde036040518163ffffffff1660e01b815260040160006040518083038186803b158015610c9857600080fd5b505afa925050508015610cce57506040513d6000823e3d601f19601f82011682018060405250810190610ccb9190613aae565b60015b610ce957604051806020016040528060008152509250610cee565b809350505b8573ffffffffffffffffffffffffffffffffffffffff166395d89b416040518163ffffffff1660e01b815260040160006040518083038186803b158015610d3457600080fd5b505afa925050508015610d6a57506040513d6000823e3d601f19601f82011682018060405250810190610d679190613aae565b60015b610d8557604051806020016040528060008152509150610d8a565b809250505b8573ffffffffffffffffffffffffffffffffffffffff1663c87b56dd866040518263ffffffff1660e01b8152600401610dc391906142b2565b60006040518083038186803b158015610ddb57600080fd5b505afa925050508015610e1157506040513d6000823e3d601f19601f82011682018060405250810190610e0e9190613aae565b60015b610e2c57604051806020016040528060008152509050610e31565b809150505b60336040518061014001604052808781526020018973ffffffffffffffffffffffffffffffffffffffff1681526020018a81526020014281526020018873ffffffffffffffffffffffffffffffffffffffff1681526020013373ffffffffffffffffffffffffffffffffffffffff168152602001600160ff1681526020018581526020018481526020018381525090806001815401808255809150506001900390600052602060002090600902016000909190919091506000820151816000015560208201518160010160006101000a81548173ffffffffffffffffffffffffffffffffffffffff021916908373ffffffffffffffffffffffffffffffffffffffff160217905550604082015181600201556060820151816003015560808201518160040160006101000a81548173ffffffffffffffffffffffffffffffffffffffff021916908373ffffffffffffffffffffffffffffffffffffffff16021790555060a08201518160050160006101000a81548173ffffffffffffffffffffffffffffffffffffffff021916908373ffffffffffffffffffffffffffffffffffffffff16021790555060c08201518160050160146101000a81548160ff021916908360ff16021790555060e082015181600601908051906020019061101892919061361e565b5061010082015181600701908051906020019061103692919061361e565b5061012082015181600801908051906020019061105492919061361e565b5050506000600160338054905061106b919061456b565b905080603660008973ffffffffffffffffffffffffffffffffffffffff1673ffffffffffffffffffffffffffffffffffffffff168152602001908152602001600020600088815260200190815260200160002081905550603860003373ffffffffffffffffffffffffffffffffffffffff1673ffffffffffffffffffffffffffffffffffffffff1681526020019081526020016000208190806001815401808255809150506001900390600052602060002001600090919091909150558673ffffffffffffffffffffffffffffffffffffffff166323b872dd3330896040518463ffffffff1660e01b815260040161116593929190613fdc565b600060405180830381600087803b15801561117f57600080fd5b505af1158015611193573d6000803e3d6000fd5b505050507f83b3a8754d705365b581ab63c329c1e55255a22aa78c67b5fcef378bfb2d9b9989898989856040516111ce95949392919061432d565b60405180910390a1505050505050505050565b603a60009054906101000a900473ffffffffffffffffffffffffffffffffffffffff1673ffffffffffffffffffffffffffffffffffffffff163373ffffffffffffffffffffffffffffffffffffffff1614611271576040517f08c379a000000000000000000000000000000000000000000000000000000000815260040161126890614230565b60405180910390fd5b80603b60006101000a81548173ffffffffffffffffffffffffffffffffffffffff021916908373ffffffffffffffffffffffffffffffffffffffff16021790555050565b6000603660008473ffffffffffffffffffffffffffffffffffffffff1673ffffffffffffffffffffffffffffffffffffffff16815260200190815260200160002060008381526020019081526020016000205490503373ffffffffffffffffffffffffffffffffffffffff166033828154811061135b577f4e487b7100000000000000000000000000000000000000000000000000000000600052603260045260246000fd5b906000526020600020906009020160050160009054906101000a900473ffffffffffffffffffffffffffffffffffffffff1673ffffffffffffffffffffffffffffffffffffffff16146113e3576040517f08c379a00000000000000000000000000000000000000000000000000000000081526004016113da90614170565b60405180910390fd5b60006033828154811061141f577f4e487b7100000000000000000000000000000000000000000000000000000000600052603260045260246000fd5b906000526020600020906009020160050160149054906101000a900460ff1660ff161415611482576040517f08c379a000000000000000000000000000000000000000000000000000000000815260040161147990614110565b60405180910390fd5b42603382815481106114bd577f4e487b7100000000000000000000000000000000000000000000000000000000600052603260045260246000fd5b90600052602060002090600902016003018190555060006033828154811061150e577f4e487b7100000000000000000000000000000000000000000000000000000000600052603260045260246000fd5b906000526020600020906009020160050160146101000a81548160ff021916908360ff1602179055508273ffffffffffffffffffffffffffffffffffffffff166323b872dd306033848154811061158e577f4e487b7100000000000000000000000000000000000000000000000000000000600052603260045260246000fd5b906000526020600020906009020160050160009054906101000a900473ffffffffffffffffffffffffffffffffffffffff16856040518463ffffffff1660e01b81526004016115df93929190613fdc565b600060405180830381600087803b1580156115f957600080fd5b505af115801561160d573d6000803e3d6000fd5b505050507f6330f58b476cc7f9dd8db8130a0fbb49b291ebc32531eb36e9646f56ee20174b8383836040516116449392919061403c565b60405180910390a1505050565b6037602052826000526040600020602052816000526040600020818154811061167957600080fd5b9060005260206000200160009250925050505481565b6000603660008573ffffffffffffffffffffffffffffffffffffffff1673ffffffffffffffffffffffffffffffffffffffff16815260200190815260200160002060008481526020019081526020016000205490503373ffffffffffffffffffffffffffffffffffffffff1660338281548110611735577f4e487b7100000000000000000000000000000000000000000000000000000000600052603260045260246000fd5b906000526020600020906009020160050160009054906101000a900473ffffffffffffffffffffffffffffffffffffffff1673ffffffffffffffffffffffffffffffffffffffff16146117bd576040517f08c379a00000000000000000000000000000000000000000000000000000000081526004016117b490614170565b60405180910390fd5b6000603382815481106117f9577f4e487b7100000000000000000000000000000000000000000000000000000000600052603260045260246000fd5b906000526020600020906009020160050160149054906101000a900460ff1660ff16141561185c576040517f08c379a000000000000000000000000000000000000000000000000000000000815260040161185390614110565b60405180910390fd5b60008611156118b65785603382815481106118a0577f4e487b7100000000000000000000000000000000000000000000000000000000600052603260045260246000fd5b9060005260206000209060090201600201819055505b600073ffffffffffffffffffffffffffffffffffffffff168573ffffffffffffffffffffffffffffffffffffffff1614611975578460338281548110611925577f4e487b7100000000000000000000000000000000000000000000000000000000600052603260045260246000fd5b906000526020600020906009020160010160006101000a81548173ffffffffffffffffffffffffffffffffffffffff021916908373ffffffffffffffffffffffffffffffffffffffff1602179055505b42603382815481106119b0577f4e487b7100000000000000000000000000000000000000000000000000000000600052603260045260246000fd5b9060005260206000209060090201600301819055508160338281548110611a00577f4e487b7100000000000000000000000000000000000000000000000000000000600052603260045260246000fd5b906000526020600020906009020160050160146101000a81548160ff021916908360ff1602179055507f04211d838289b72af597bf28a4ccff5a30d6056f5fce2eddb127ab4ffea0963d868686868686604051611a6296959493929190614380565b60405180910390a1505050505050565b603960003373ffffffffffffffffffffffffffffffffffffffff1673ffffffffffffffffffffffffffffffffffffffff16815260200190815260200160002060009054906101000a900460ff16611afe576040517f08c379a0000000000000000000000000000000000000000000000000000000008152600401611af590614150565b60405180910390fd5b611b5082603560008473ffffffffffffffffffffffffffffffffffffffff1673ffffffffffffffffffffffffffffffffffffffff1681526020019081526020016000205461359c90919063ffffffff16565b603560008373ffffffffffffffffffffffffffffffffffffffff1673ffffffffffffffffffffffffffffffffffffffff168152602001908152602001600020819055507f291ce0b690061cb1b3f1111bf6500efe526983251fb0f863251ec3670d035fc48282604051611bc49291906142cd565b60405180910390a15050565b600060019054906101000a900460ff1680611bef5750611bee6135b2565b5b80611c05575060008054906101000a900460ff16155b611c44576040517f08c379a0000000000000000000000000000000000000000000000000000000008152600401611c3b906141d0565b60405180910390fd5b60008060019054906101000a900460ff161590508015611c94576001600060016101000a81548160ff02191690831515021790555060016000806101000a81548160ff0219169083151502179055505b33603a60006101000a81548173ffffffffffffffffffffffffffffffffffffffff021916908373ffffffffffffffffffffffffffffffffffffffff160217905550603360405180610140016040528060008152602001600073ffffffffffffffffffffffffffffffffffffffff1681526020016000815260200160008152602001600073ffffffffffffffffffffffffffffffffffffffff168152602001600073ffffffffffffffffffffffffffffffffffffffff168152602001600060ff1681526020016040518060200160405280600081525081526020016040518060200160405280600081525081526020016040518060200160405280600081525081525090806001815401808255809150506001900390600052602060002090600902016000909190919091506000820151816000015560208201518160010160006101000a81548173ffffffffffffffffffffffffffffffffffffffff021916908373ffffffffffffffffffffffffffffffffffffffff160217905550604082015181600201556060820151816003015560808201518160040160006101000a81548173ffffffffffffffffffffffffffffffffffffffff021916908373ffffffffffffffffffffffffffffffffffffffff16021790555060a08201518160050160006101000a81548173ffffffffffffffffffffffffffffffffffffffff021916908373ffffffffffffffffffffffffffffffffffffffff16021790555060c08201518160050160146101000a81548160ff021916908360ff16021790555060e0820151816006019080519060200190611eef92919061361e565b50610100820151816007019080519060200190611f0d92919061361e565b50610120820151816008019080519060200190611f2b92919061361e565b5050506001603b60146101000a81548160ff021916908360ff1602179055508015611f6b5760008060016101000a81548160ff0219169083151502179055505b50565b6000603380549050905090565b6000600260ff16603b60149054906101000a900460ff1660ff161415611fd6576040517f08c379a0000000000000000000000000000000000000000000000000000000008152600401611fcd90614250565b60405180910390fd5b6002603b60146101000a81548160ff021916908360ff160217905550603960003373ffffffffffffffffffffffffffffffffffffffff1673ffffffffffffffffffffffffffffffffffffffff16815260200190815260200160002060009054906101000a900460ff168061207557508173ffffffffffffffffffffffffffffffffffffffff163373ffffffffffffffffffffffffffffffffffffffff16145b6120b4576040517f08c379a00000000000000000000000000000000000000000000000000000000081526004016120ab90614130565b60405180910390fd5b603560008373ffffffffffffffffffffffffffffffffffffffff1673ffffffffffffffffffffffffffffffffffffffff1681526020019081526020016000205490506000603560008473ffffffffffffffffffffffffffffffffffffffff1673ffffffffffffffffffffffffffffffffffffffff168152602001908152602001600020819055507f027aeacbc6fbfa7fe735ff8f14a600469ad1a3197ce1c8c8a159641cf68fe592828260405161216c929190614013565b60405180910390a16001603b60146101000a81548160ff021916908360ff160217905550919050565b603860205281600052604060002081815481106121b157600080fd5b90600052602060002001600091509150505481565b603381815481106121d657600080fd5b90600052602060002090600902016000915090508060000154908060010160009054906101000a900473ffffffffffffffffffffffffffffffffffffffff16908060020154908060030154908060040160009054906101000a900473ffffffffffffffffffffffffffffffffffffffff16908060050160009054906101000a900473ffffffffffffffffffffffffffffffffffffffff16908060050160149054906101000a900460ff169080600601805461229090614689565b80601f01602080910402602001604051908101604052809291908181526020018280546122bc90614689565b80156123095780601f106122de57610100808354040283529160200191612309565b820191906000526020600020905b8154815290600101906020018083116122ec57829003601f168201915b50505050509080600701805461231e90614689565b80601f016020809104026020016040519081016040528092919081815260200182805461234a90614689565b80156123975780601f1061236c57610100808354040283529160200191612397565b820191906000526020600020905b81548152906001019060200180831161237a57829003601f168201915b5050505050908060080180546123ac90614689565b80601f01602080910402602001604051908101604052809291908181526020018280546123d890614689565b80156124255780601f106123fa57610100808354040283529160200191612425565b820191906000526020600020905b81548152906001019060200180831161240857829003601f168201915b505050505090508a565b60356020528060005260406000206000915090505481565b6000806033603660008673ffffffffffffffffffffffffffffffffffffffff1673ffffffffffffffffffffffffffffffffffffffff168152602001908152602001600020600085815260200190815260200160002054815481106124d4577f4e487b7100000000000000000000000000000000000000000000000000000000600052603260045260246000fd5b906000526020600020906009020160405180610140016040529081600082015481526020016001820160009054906101000a900473ffffffffffffffffffffffffffffffffffffffff1673ffffffffffffffffffffffffffffffffffffffff1673ffffffffffffffffffffffffffffffffffffffff16815260200160028201548152602001600382015481526020016004820160009054906101000a900473ffffffffffffffffffffffffffffffffffffffff1673ffffffffffffffffffffffffffffffffffffffff1673ffffffffffffffffffffffffffffffffffffffff1681526020016005820160009054906101000a900473ffffffffffffffffffffffffffffffffffffffff1673ffffffffffffffffffffffffffffffffffffffff1673ffffffffffffffffffffffffffffffffffffffff1681526020016005820160149054906101000a900460ff1660ff1660ff16815260200160068201805461263b90614689565b80601f016020809104026020016040519081016040528092919081815260200182805461266790614689565b80156126b45780601f10612689576101008083540402835291602001916126b4565b820191906000526020600020905b81548152906001019060200180831161269757829003601f168201915b505050505081526020016007820180546126cd90614689565b80601f01602080910402602001604051908101604052809291908181526020018280546126f990614689565b80156127465780601f1061271b57610100808354040283529160200191612746565b820191906000526020600020905b81548152906001019060200180831161272957829003601f168201915b5050505050815260200160088201805461275f90614689565b80601f016020809104026020016040519081016040528092919081815260200182805461278b90614689565b80156127d85780601f106127ad576101008083540402835291602001916127d8565b820191906000526020600020905b8154815290600101906020018083116127bb57829003601f168201915b505050505081525050905080604001513414612829576040517f08c379a000000000000000000000000000000000000000000000000000000000815260040161282090614210565b60405180910390fd5b60006033603660008773ffffffffffffffffffffffffffffffffffffffff1673ffffffffffffffffffffffffffffffffffffffff168152602001908152602001600020600086815260200190815260200160002054815481106128b5577f4e487b7100000000000000000000000000000000000000000000000000000000600052603260045260246000fd5b906000526020600020906009020160050160146101000a81548160ff021916908360ff1602179055508373ffffffffffffffffffffffffffffffffffffffff166323b872dd3033866040518463ffffffff1660e01b815260040161291b93929190613fdc565b600060405180830381600087803b15801561293557600080fd5b505af1158015612949573d6000803e3d6000fd5b505050508060a0015173ffffffffffffffffffffffffffffffffffffffff166108fc82604001519081150290604051600060405180830381858888f1935050505091507fc220cf2a12d6492e23ed1141c55018997799699d009b00ebd5a4874c60f5c31e8484603660008873ffffffffffffffffffffffffffffffffffffffff1673ffffffffffffffffffffffffffffffffffffffff1681526020019081526020016000206000878152602001908152602001600020548460400151604051612a159493929190614073565b60405180910390a15092915050565b6036602052816000526040600020602052806000526040600020600091509150505481565b612a516136a4565b6000603660008573ffffffffffffffffffffffffffffffffffffffff1673ffffffffffffffffffffffffffffffffffffffff1681526020019081526020016000206000848152602001908152602001600020549050600060338281548110612ae2577f4e487b7100000000000000000000000000000000000000000000000000000000600052603260045260246000fd5b906000526020600020906009020160405180610140016040529081600082015481526020016001820160009054906101000a900473ffffffffffffffffffffffffffffffffffffffff1673ffffffffffffffffffffffffffffffffffffffff1673ffffffffffffffffffffffffffffffffffffffff16815260200160028201548152602001600382015481526020016004820160009054906101000a900473ffffffffffffffffffffffffffffffffffffffff1673ffffffffffffffffffffffffffffffffffffffff1673ffffffffffffffffffffffffffffffffffffffff1681526020016005820160009054906101000a900473ffffffffffffffffffffffffffffffffffffffff1673ffffffffffffffffffffffffffffffffffffffff1673ffffffffffffffffffffffffffffffffffffffff1681526020016005820160149054906101000a900460ff1660ff1660ff168152602001600682018054612c4990614689565b80601f0160208091040260200160405190810160405280929190818152602001828054612c7590614689565b8015612cc25780601f10612c9757610100808354040283529160200191612cc2565b820191906000526020600020905b815481529060010190602001808311612ca557829003601f168201915b50505050508152602001600782018054612cdb90614689565b80601f0160208091040260200160405190810160405280929190818152602001828054612d0790614689565b8015612d545780601f10612d2957610100808354040283529160200191612d54565b820191906000526020600020905b815481529060010190602001808311612d3757829003601f168201915b50505050508152602001600882018054612d6d90614689565b80601f0160208091040260200160405190810160405280929190818152602001828054612d9990614689565b8015612de65780601f10612dbb57610100808354040283529160200191612de6565b820191906000526020600020905b815481529060010190602001808311612dc957829003601f168201915b5050505050815250509050809250505092915050565b60006033603660008773ffffffffffffffffffffffffffffffffffffffff1673ffffffffffffffffffffffffffffffffffffffff16815260200190815260200160002060008681526020019081526020016000205481548110612e88577f4e487b7100000000000000000000000000000000000000000000000000000000600052603260045260246000fd5b906000526020600020906009020160405180610140016040529081600082015481526020016001820160009054906101000a900473ffffffffffffffffffffffffffffffffffffffff1673ffffffffffffffffffffffffffffffffffffffff1673ffffffffffffffffffffffffffffffffffffffff16815260200160028201548152602001600382015481526020016004820160009054906101000a900473ffffffffffffffffffffffffffffffffffffffff1673ffffffffffffffffffffffffffffffffffffffff1673ffffffffffffffffffffffffffffffffffffffff1681526020016005820160009054906101000a900473ffffffffffffffffffffffffffffffffffffffff1673ffffffffffffffffffffffffffffffffffffffff1673ffffffffffffffffffffffffffffffffffffffff1681526020016005820160149054906101000a900460ff1660ff1660ff168152602001600682018054612fef90614689565b80601f016020809104026020016040519081016040528092919081815260200182805461301b90614689565b80156130685780601f1061303d57610100808354040283529160200191613068565b820191906000526020600020905b81548152906001019060200180831161304b57829003601f168201915b5050505050815260200160078201805461308190614689565b80601f01602080910402602001604051908101604052809291908181526020018280546130ad90614689565b80156130fa5780601f106130cf576101008083540402835291602001916130fa565b820191906000526020600020905b8154815290600101906020018083116130dd57829003601f168201915b5050505050815260200160088201805461311390614689565b80601f016020809104026020016040519081016040528092919081815260200182805461313f90614689565b801561318c5780601f106131615761010080835404028352916020019161318c565b820191906000526020600020905b81548152906001019060200180831161316f57829003601f168201915b5050505050815250509050603960003373ffffffffffffffffffffffffffffffffffffffff1673ffffffffffffffffffffffffffffffffffffffff16815260200190815260200160002060009054906101000a900460ff168061321a57508273ffffffffffffffffffffffffffffffffffffffff163373ffffffffffffffffffffffffffffffffffffffff16145b613259576040517f08c379a0000000000000000000000000000000000000000000000000000000008152600401613250906141b0565b60405180910390fd5b6132e681604001516040518060400160405280601981526020017f496e737563636966696369656e74204b534d732066756e647300000000000000815250603560008773ffffffffffffffffffffffffffffffffffffffff1673ffffffffffffffffffffffffffffffffffffffff168152602001908152602001600020546135c99092919063ffffffff16565b603560008573ffffffffffffffffffffffffffffffffffffffff1673ffffffffffffffffffffffffffffffffffffffff168152602001908152602001600020819055506133838160400151603560008460a0015173ffffffffffffffffffffffffffffffffffffffff1673ffffffffffffffffffffffffffffffffffffffff1681526020019081526020016000205461359c90919063ffffffff16565b603560008360a0015173ffffffffffffffffffffffffffffffffffffffff1673ffffffffffffffffffffffffffffffffffffffff1681526020019081526020016000208190555060006033603660008873ffffffffffffffffffffffffffffffffffffffff1673ffffffffffffffffffffffffffffffffffffffff16815260200190815260200160002060008781526020019081526020016000205481548110613456577f4e487b7100000000000000000000000000000000000000000000000000000000600052603260045260246000fd5b906000526020600020906009020160050160146101000a81548160ff021916908360ff1602179055508473ffffffffffffffffffffffffffffffffffffffff166323b872dd3084876040518463ffffffff1660e01b81526004016134bc93929190613fdc565b600060405180830381600087803b1580156134d657600080fd5b505af11580156134ea573d6000803e3d6000fd5b505050507f68bdd3548f3f05742b376651745ca73472eb18f2230f64b893d7a48e575eb0148585603660008973ffffffffffffffffffffffffffffffffffffffff1673ffffffffffffffffffffffffffffffffffffffff16815260200190815260200160002060008881526020019081526020016000205484604001516040516135779493929190614073565b60405180910390a15050505050565b60008183613594919061456b565b905092915050565b600081836135aa9190614515565b905092915050565b6000803090506000813b9050600081149250505090565b6000838311158290613611576040517f08c379a000000000000000000000000000000000000000000000000000000000815260040161360891906140ee565b60405180910390fd5b5082840390509392505050565b82805461362a90614689565b90600052602060002090601f01602090048101928261364c5760008555613693565b82601f1061366557805160ff1916838001178555613693565b82800160010185558215613693579182015b82811115613692578251825591602001919060010190613677565b5b5090506136a0919061373c565b5090565b60405180610140016040528060008152602001600073ffffffffffffffffffffffffffffffffffffffff1681526020016000815260200160008152602001600073ffffffffffffffffffffffffffffffffffffffff168152602001600073ffffffffffffffffffffffffffffffffffffffff168152602001600060ff1681526020016060815260200160608152602001606081525090565b5b8082111561375557600081600090555060010161373d565b5090565b600061376c613767846144b7565b614492565b90508281526020810184848401111561378457600080fd5b61378f848285614656565b509392505050565b6000813590506137a681614a5a565b92915050565b6000815190506137bb81614a5a565b92915050565b6000813590506137d081614a71565b92915050565b6000815190506137e581614a71565b92915050565b60008083601f8401126137fd57600080fd5b8235905067ffffffffffffffff81111561381657600080fd5b60208301915083600182028301111561382e57600080fd5b9250929050565b600082601f83011261384657600080fd5b8151613856848260208601613759565b91505092915050565b60008135905061386e81614a88565b92915050565b60008135905061388381614a9f565b92915050565b60006020828403121561389b57600080fd5b60006138a984828501613797565b91505092915050565b6000602082840312156138c457600080fd5b60006138d2848285016137ac565b91505092915050565b6000806000806000608086880312156138f357600080fd5b600061390188828901613797565b955050602061391288828901613797565b94505060406139238882890161385f565b935050606086013567ffffffffffffffff81111561394057600080fd5b61394c888289016137eb565b92509250509295509295909350565b6000806040838503121561396e57600080fd5b600061397c85828601613797565b925050602061398d858286016137c1565b9150509250929050565b600080604083850312156139aa57600080fd5b60006139b885828601613797565b92505060206139c98582860161385f565b9150509250929050565b600080600080608085870312156139e957600080fd5b60006139f787828801613797565b9450506020613a088782880161385f565b9350506040613a1987828801613797565b9250506060613a2a87828801613797565b91505092959194509250565b600080600060608486031215613a4b57600080fd5b6000613a5986828701613797565b9350506020613a6a8682870161385f565b9250506040613a7b8682870161385f565b9150509250925092565b600060208284031215613a9757600080fd5b6000613aa5848285016137d6565b91505092915050565b600060208284031215613ac057600080fd5b600082015167ffffffffffffffff811115613ada57600080fd5b613ae684828501613835565b91505092915050565b600060208284031215613b0157600080fd5b6000613b0f8482850161385f565b91505092915050565b60008060408385031215613b2b57600080fd5b6000613b398582860161385f565b9250506020613b4a85828601613797565b9150509250929050565b60008060008060808587031215613b6a57600080fd5b6000613b788782880161385f565b9450506020613b8987828801613797565b9350506040613b9a87828801613797565b9250506060613bab8782880161385f565b91505092959194509250565b600080600080600060a08688031215613bcf57600080fd5b6000613bdd8882890161385f565b9550506020613bee88828901613797565b9450506040613bff88828901613797565b9350506060613c108882890161385f565b9250506080613c2188828901613874565b9150509295509295909350565b613c3781614620565b82525050565b613c468161459f565b82525050565b613c558161459f565b82525050565b613c64816145b1565b82525050565b613c73816145bd565b82525050565b6000613c84826144e8565b613c8e81856144f3565b9350613c9e818560208601614656565b613ca781614779565b840191505092915050565b6000613cbd826144e8565b613cc78185614504565b9350613cd7818560208601614656565b613ce081614779565b840191505092915050565b6000613cf8601283614504565b9150613d038261478a565b602082019050919050565b6000613d1b602983614504565b9150613d26826147b3565b604082019050919050565b6000613d3e600f83614504565b9150613d4982614802565b602082019050919050565b6000613d61601d83614504565b9150613d6c8261482b565b602082019050919050565b6000613d84601d83614504565b9150613d8f82614854565b602082019050919050565b6000613da7602483614504565b9150613db28261487d565b604082019050919050565b6000613dca602e83614504565b9150613dd5826148cc565b604082019050919050565b6000613ded604183614504565b9150613df88261491b565b606082019050919050565b6000613e10602d83614504565b9150613e1b82614990565b604082019050919050565b6000613e33600e83614504565b9150613e3e826149df565b602082019050919050565b6000613e56601f83614504565b9150613e6182614a08565b602082019050919050565b6000613e79601083614504565b9150613e8482614a31565b602082019050919050565b600061014083016000830151613ea86000860182613f77565b506020830151613ebb6020860182613c3d565b506040830151613ece6040860182613f77565b506060830151613ee16060860182613f77565b506080830151613ef46080860182613c3d565b5060a0830151613f0760a0860182613c3d565b5060c0830151613f1a60c0860182613f95565b5060e083015184820360e0860152613f328282613c79565b915050610100830151848203610100860152613f4e8282613c79565b915050610120830151848203610120860152613f6a8282613c79565b9150508091505092915050565b613f8081614609565b82525050565b613f8f81614609565b82525050565b613f9e81614613565b82525050565b613fad81614613565b82525050565b6000604082019050613fc86000830185613c2e565b613fd56020830184613f86565b9392505050565b6000606082019050613ff16000830186613c4c565b613ffe6020830185613c4c565b61400b6040830184613f86565b949350505050565b60006040820190506140286000830185613c4c565b6140356020830184613f86565b9392505050565b60006060820190506140516000830186613c4c565b61405e6020830185613f86565b61406b6040830184613f86565b949350505050565b60006080820190506140886000830187613c4c565b6140956020830186613f86565b6140a26040830185613f86565b6140af6060830184613f86565b95945050505050565b60006020820190506140cd6000830184613c5b565b92915050565b60006020820190506140e86000830184613c6a565b92915050565b600060208201905081810360008301526141088184613cb2565b905092915050565b6000602082019050818103600083015261412981613ceb565b9050919050565b6000602082019050818103600083015261414981613d0e565b9050919050565b6000602082019050818103600083015261416981613d31565b9050919050565b6000602082019050818103600083015261418981613d54565b9050919050565b600060208201905081810360008301526141a981613d77565b9050919050565b600060208201905081810360008301526141c981613d9a565b9050919050565b600060208201905081810360008301526141e981613dbd565b9050919050565b6000602082019050818103600083015261420981613de0565b9050919050565b6000602082019050818103600083015261422981613e03565b9050919050565b6000602082019050818103600083015261424981613e26565b9050919050565b6000602082019050818103600083015261426981613e49565b9050919050565b6000602082019050818103600083015261428981613e6c565b9050919050565b600060208201905081810360008301526142aa8184613e8f565b905092915050565b60006020820190506142c76000830184613f86565b92915050565b60006040820190506142e26000830185613f86565b6142ef6020830184613c4c565b9392505050565b600060608201905061430b6000830186613f86565b6143186020830185613c4c565b6143256040830184613c2e565b949350505050565b600060a0820190506143426000830188613f86565b61434f6020830187613c4c565b61435c6040830186613c4c565b6143696060830185613f86565b6143766080830184613f86565b9695505050505050565b600060c0820190506143956000830189613f86565b6143a26020830188613c4c565b6143af6040830187613c4c565b6143bc6060830186613f86565b6143c96080830185613fa4565b6143d660a0830184613f86565b979650505050505050565b6000610140820190506143f7600083018d613f86565b614404602083018c613c4c565b614411604083018b613f86565b61441e606083018a613f86565b61442b6080830189613c4c565b61443860a0830188613c4c565b61444560c0830187613fa4565b81810360e08301526144578186613cb2565b905081810361010083015261446c8185613cb2565b90508181036101208301526144818184613cb2565b90509b9a5050505050505050505050565b600061449c6144ad565b90506144a882826146bb565b919050565b6000604051905090565b600067ffffffffffffffff8211156144d2576144d161474a565b5b6144db82614779565b9050602081019050919050565b600081519050919050565b600082825260208201905092915050565b600082825260208201905092915050565b600061452082614609565b915061452b83614609565b9250827fffffffffffffffffffffffffffffffffffffffffffffffffffffffffffffffff038211156145605761455f6146ec565b5b828201905092915050565b600061457682614609565b915061458183614609565b925082821015614594576145936146ec565b5b828203905092915050565b60006145aa826145e9565b9050919050565b60008115159050919050565b60007fffffffff0000000000000000000000000000000000000000000000000000000082169050919050565b600073ffffffffffffffffffffffffffffffffffffffff82169050919050565b6000819050919050565b600060ff82169050919050565b600061462b82614632565b9050919050565b600061463d82614644565b9050919050565b600061464f826145e9565b9050919050565b60005b83811015614674578082015181840152602081019050614659565b83811115614683576000848401525b50505050565b600060028204905060018216806146a157607f821691505b602082108114156146b5576146b461471b565b5b50919050565b6146c482614779565b810181811067ffffffffffffffff821117156146e3576146e261474a565b5b80604052505050565b7f4e487b7100000000000000000000000000000000000000000000000000000000600052601160045260246000fd5b7f4e487b7100000000000000000000000000000000000000000000000000000000600052602260045260246000fd5b7f4e487b7100000000000000000000000000000000000000000000000000000000600052604160045260246000fd5b6000601f19601f8301169050919050565b7f546869732061736b20697320636c6f7365640000000000000000000000000000600082015250565b7f4f6e6c7920657363726f77206f722062757965722063616e207769746864726160008201527f7720616c6c204b534d0000000000000000000000000000000000000000000000602082015250565b7f4f6e6c7920657363726f772063616e0000000000000000000000000000000000600082015250565b7f4f6e6c7920746f6b656e206f776e65722063616e20656469742061736b000000600082015250565b7f4f6e6c7920746f6b656e206f776e65722063616e206d616b652061736b000000600082015250565b7f4f6e6c7920657363726f77206f722062757965722063616e2063616c6c20627560008201527f794b534d00000000000000000000000000000000000000000000000000000000602082015250565b7f436f6e747261637420696e7374616e63652068617320616c726561647920626560008201527f656e20696e697469616c697a6564000000000000000000000000000000000000602082015250565b7f43616e277420616363657074207061796d656e7420776974686f757420636f6c60008201527f6c656374696f6e20616e64204944732c20757365206441707020746f2073656e60208201527f6400000000000000000000000000000000000000000000000000000000000000604082015250565b7f4e6f7420726967687420616d6f756e742073656e742c206861766520746f206260008201527f6520657175616c20707269636500000000000000000000000000000000000000602082015250565b7f4f6e6c79206f776e65722063616e000000000000000000000000000000000000600082015250565b7f5265656e7472616e637947756172643a207265656e7472616e742063616c6c00600082015250565b7f4e6f20737563682066756e6374696f6e00000000000000000000000000000000600082015250565b614a638161459f565b8114614a6e57600080fd5b50565b614a7a816145b1565b8114614a8557600080fd5b50565b614a9181614609565b8114614a9c57600080fd5b50565b614aa881614613565b8114614ab357600080fd5b5056fea2646970667358221220cdbeedfdc85073861a507ef64e2cfc672f34610b7b3e92b4cac99d4318a3a39c64736f6c63430008040033",
  "immutableReferences": {},
  "source": "// SPDX-License-Identifier:  Apache License\npragma solidity >= 0.8.0;\nimport \"./interfaces/IERC721ext.sol\";\nimport \"@openzeppelin/contracts/token/ERC721/IERC721Receiver.sol\";\nimport \"@openzeppelin/contracts/utils/math/SafeMath.sol\";\nimport \"@openzeppelin/contracts/token/ERC20/IERC20.sol\";\nimport \"./Initializable.sol\";\n\n\ncontract MarketPlace_new is IERC721Receiver, Initializable {\n    using SafeMath for uint;\n    struct Order {\n        \n        uint256 idNFT;\n        address currencyCode; // UNIQ tokens as address address (1); wKSM \n        uint256 price;\n        uint256 time;\n        address idCollection;\n        address ownerAddr;\n        uint8 flagActive;\n        string name;\n        string symbol;\n        string tokenURI;        \n    }\n    Order[] public  orders;\n    uint test;\n    mapping (address => uint256) public balanceKSM;  //  [ownerAddr][currency] => [KSMs]\n    mapping (address => mapping (uint256 => uint256)) public  asks ; // [buyer][idCollection][idNFT] => idorder\n    mapping (address => mapping (uint => uint[])) public ordersbyNFT; // [addressCollection] =>idNFT =>idorder\n\n    mapping (address => uint[]) public asksbySeller; // [addressSeller] =>idorder\n\n    mapping (address =>bool) internal isEscrow;\n\n    //address escrow;\n    address owner;\n    address nativecoin;\n\n    // from abstract contract ReentrancyGuard \n    // Booleans are more expensive than uint256 or any type that takes up a full\n    // word because each write operation emits an extra SLOAD to first read the\n    // slot's contents, replace the bits taken up by the boolean, and then write\n    // back. This is the compiler's defense against contract upgrades and\n    // pointer aliasing, and it cannot be disabled.\n\n    // The values being non-zero value makes deployment a bit more expensive,\n    // but in exchange the refund on every call to nonReentrant will be lower in\n    // amount. Since refunds are capped to a percentage of the total\n    // transaction's gas, it is best to keep them low in cases like this one, to\n    // increase the likelihood of the full refund coming into effect.\n    uint8 private constant _NOT_ENTERED = 1;\n    uint8 private constant _ENTERED = 2;\n\n    uint8 private _status;\n\n    //constructor (address _owner, address _escrow) {\n     function initialize() public initializer {\n   \n        owner = msg.sender;\n\n         orders.push(Order(        \n                    0,\n                    address(0),\n                    0,\n                    0,\n                    address(0),\n                    address(0),\n                    0, \"\",\"\",\"\"));\n         _status = _NOT_ENTERED;\n\n    }\n\n    modifier nonReentrant() { // from abstract contract ReentrancyGuard \n        // On the first call to nonReentrant, _notEntered will be true\n        require(_status != _ENTERED, \"ReentrancyGuard: reentrant call\");\n\n        // Any calls to nonReentrant after this point will fail\n        _status = _ENTERED;\n\n        _;\n\n        // By storing the original value once again, a refund is triggered (see\n        // https://eips.ethereum.org/EIPS/eip-2200)\n        _status = _NOT_ENTERED;\n    }\n\n    modifier onlyEscrow () {\n        require(isEscrow [msg.sender] , \"Only escrow can\");\n        _;\n    }\n\n    modifier onlyOwner () {\n        require(msg.sender == owner, \"Only owner can\");\n        _;\n    }\n\n    /**\n    * Make bids (orders) to sell NFTs \n    */\n    \n    receive  () external payable {\n        revert (\"Can't accept payment without collection and IDs, use dApp to send\");\n    }\n    fallback () external payable {\n        revert (\"No such function\");\n    }\n\n    event AddedAsk (uint256 _price, \n                    address  _currencyCode, \n                    address _idCollection, \n                    uint256 _idNFT,\n                    uint256 orderId\n                  );\n    event EditedAsk (uint256 _price, \n                    address  _currencyCode, \n                    address _idCollection, \n                    uint256 _idNFT,\n                    uint8  _active,\n                    uint orderId);\n\n    event  CanceledAsk (address _idCollection, \n                        uint256 _idNFT, \n                        uint orderId\n                        );\n\n    event DepositedKSM (uint256 _amount,  address _sender);\n\n    event BoughtNFT4KSM (address _idCollection, uint256 _idNFT, uint orderID, uint orderPrice );\n\n    event BoughtNFT (address _idCollection, uint256 _idNFT, uint orderID, uint orderPrice );\n\n    event WithdrawnAllKSM (address _sender, uint256 balance); \n\n    event WithdrawnKSM (address _sender, uint256 balance); \n\n    event Withdrawn (uint256 _amount, address _currencyCode, address _sender);\n    \n\n   function setOwner  (address _newOwner) public onlyOwner {\n        owner = _newOwner;\n    }\n\n    function setEscrow  (address _escrow, bool _state) public onlyOwner returns (bool) {\n        if (isEscrow[_escrow] != _state)  {\n            isEscrow[_escrow] = _state;\n            return true;\n        }\n        return false;\n    }\n\n    function setNativeCoin  (address _coin) public onlyOwner {\n        nativecoin = _coin;\n    }\n\n\n    function addAsk (uint256 _price, \n                    address  _currencyCode, \n                    address _idCollection, \n                    uint256 _idNFT\n                  ) public  { //\n        address ownerNFT = IERC721ext(_idCollection).ownerOf(_idNFT);\n        require (ownerNFT == msg.sender, \"Only token owner can make ask\");\n        string memory nameNFT;\n        string memory symbolNFT;\n        string memory uriNFT;\n        try IERC721ext(_idCollection).name() returns (string memory name_) {\n            nameNFT = name_;\n        }\n        catch {\n            nameNFT=\"\";\n        }   \n        try IERC721ext(_idCollection).symbol() returns (string memory symbol_) {\n            symbolNFT = symbol_;\n        }\n        catch {\n            symbolNFT=\"\";\n        }  \n        try IERC721ext(_idCollection).tokenURI(_idNFT) returns (string memory uri_) {\n            uriNFT = uri_;\n        }\n        catch {\n            uriNFT=\"\";\n        }        \n        orders.push(Order(        \n                    _idNFT,\n                    _currencyCode,\n                    _price,\n                    block.timestamp,\n                    _idCollection,\n                    msg.sender,\n                    1, // 1 = is active\n                    nameNFT, \n                    symbolNFT,\n                    uriNFT\n             ));\n            \n            uint orderId = orders.length-1;\n            asks[_idCollection][_idNFT] = orderId;\n            asksbySeller[msg.sender].push(orderId);\n            IERC721ext(_idCollection).transferFrom(msg.sender, address(this), _idNFT);\n            emit AddedAsk(_price, _currencyCode, _idCollection, _idNFT, orderId);     \n    }\n\n    function editAsk (uint256 _price, \n                    address  _currencyCode, \n                    address _idCollection, \n                    uint256 _idNFT,\n                    uint8  _active) public {\n        \n\n        uint orderID =  asks[_idCollection][_idNFT];\n\n        require (orders[orderID].ownerAddr == msg.sender, \"Only token owner can edit ask\");\n        require (orders[orderID].flagActive != 0, \"This ask is closed\");\n        if (_price> 0 ) {\n            orders[orderID].price = _price ;  \n        }\n        \n        if (_currencyCode != address(0) ) {\n            orders[orderID].currencyCode = _currencyCode ;  \n        }\n\n        orders[orderID].time = block.timestamp;\n        orders[orderID].flagActive = _active;\n        \n        emit EditedAsk(_price, _currencyCode, _idCollection, _idNFT, _active, orderID);\n        }\n        \n\n    function cancelAsk (address _idCollection, \n                        uint256 _idNFT\n                        ) public {\n\n        uint orderID =  asks[_idCollection][_idNFT];\n\n        require (orders[orderID].ownerAddr == msg.sender, \"Only token owner can edit ask\");\n        require (orders[orderID].flagActive != 0, \"This ask is closed\");\n\n        orders[orderID].time = block.timestamp;\n        orders[orderID].flagActive = 0;\n        IERC721ext(_idCollection).transferFrom(address(this),orders[orderID].ownerAddr, _idNFT);\n        emit CanceledAsk(_idCollection, _idNFT, orderID);\n        }\n\n\n    function depositKSM (uint256 _amount,  address _sender) public onlyEscrow {\n\n        balanceKSM[_sender]= balanceKSM[_sender].add(_amount);\n        emit DepositedKSM(_amount, _sender);\n    }\n\n    function buyKSM (address _idCollection, uint256 _idNFT, address _buyer, address _receiver ) public {\n        \n        Order memory order = orders[ asks[_idCollection][_idNFT]];\n        require(isEscrow[msg.sender]  || msg.sender == _buyer, \"Only escrow or buyer can call buyKSM\" );\n        //1. reduce balance\n\n        balanceKSM[_buyer] = balanceKSM[_buyer].sub( order.price, \"Insuccificient KSMs funds\");\n        balanceKSM[order.ownerAddr] = balanceKSM[order.ownerAddr].add( order.price);\n        // 2. close order\n        orders[ asks[_idCollection][_idNFT]].flagActive = 0;\n        // 3. transfer NFT to buyer\n        IERC721ext(_idCollection).transferFrom(address(this), _receiver, _idNFT);\n        emit BoughtNFT4KSM(_idCollection, _idNFT, asks[_idCollection][_idNFT], order.price);\n\n    }\n    function buy (address _idCollection, uint256 _idNFT ) public payable returns (bool result) { //buing for UNQ like as ethers \n        \n        Order memory order = orders[asks[_idCollection][_idNFT]]; \n        //1. check sent amount and send to seller\n        require (msg.value == order.price, \"Not right amount sent, have to be equal price\" );     \n        // 2. close order\n        orders[ asks[_idCollection][_idNFT]].flagActive = 0;\n        \n        // 3. transfer NFT to buyer\n        IERC721ext(_idCollection).transferFrom(address(this), msg.sender, _idNFT);\n        //uint balance  = address(this).balance;\n        result = payable(order.ownerAddr).send (order.price); \n        emit BoughtNFT(_idCollection, _idNFT, asks[_idCollection][_idNFT], order.price);\n        \n    }\n\n/* \n    function buyOther (address _idCollection, uint256 _idNFT, address _currencyCode, uint _amount ) public  { //buy for sny token if seller wants\n        \n        Order memory order = orders[ asks[_idCollection][_idNFT]];\n        //1. check sent amount and transfer from buyer to seller\n        require (order.price == _amount && order.currencyCode == _currencyCode, \"Not right amount or currency sent, have to be equal currency and price\" );\n        // !!! transfer have to be approved to marketplace!\n        IERC20(order.currencyCode).transferFrom(msg.sender, address(this), order.price); //to not disclojure buyer's address \n        IERC20(order.currencyCode).transfer(order.ownerAddr, order.price);\n        // 2. close order\n        orders[ asks[_idCollection][_idNFT]].flagActive = 0;\n        // 3. transfer NFT to buyer\n        IERC721ext(_idCollection).transferFrom(address(this), msg.sender, _idNFT);\n\n\n    }\n */\n\n    function withdrawAllKSM (address _sender) public  nonReentrant returns (uint lastBalance ){\n        require(isEscrow[msg.sender]  || msg.sender == _sender, \"Only escrow or buyer can withdraw all KSM\" );\n\n        lastBalance = balanceKSM[_sender];\n        balanceKSM[_sender] =0;\n        emit WithdrawnAllKSM(_sender, lastBalance);\n    }\n\n    function withdrawKSM (uint _amount, address _sender) onlyEscrow public returns (uint lastBalance ) {\n        lastBalance = balanceKSM[_sender].sub(_amount);\n        emit WithdrawnKSM(_sender, lastBalance);\n        \n    }\n\n    function withdraw (uint256 _amount, address _currencyCode) public  nonReentrant returns (bool result ){ //onlyOwner\n        address payable _sender = payable( msg.sender);\n        if (_currencyCode != nativecoin ) { //erc20 compat. tokens on UNIQUE chain\n            // uint balance = IERC20(_currencyCode).balanceOf(address(this));\n            IERC20(_currencyCode).transfer(_sender, _amount);\n        } else {\n            // uint balance  = address(this).balance;\n\n            result =  (_sender).send(_amount); // for UNQ like as ethers \n        }\n        emit Withdrawn(_amount, _currencyCode, _sender);\n        return result;\n\n    }\n   // event GettedOrder(uint , Order);\n    function getOrder (address _idCollection, uint256 _idNFT) public view returns (Order memory) {\n        uint orderId = asks[_idCollection][_idNFT];\n        Order memory order = orders[orderId];\n //       emit GettedOrder (orderId, order);\n        return order;\n    }\n\n    function getOrdersLen () public view returns (uint) {\n        return orders.length;\n    }\n\n    function onERC721Received(address operator, address from, uint256 tokenId, bytes calldata data)  public override pure returns(bytes4) {\n            return bytes4(keccak256(\"onERC721Received(address,address,uint256,bytes)\"));\n        }\n}",
  "sourcePath": "/mnt/512-2/Uniq/unique-marketplace-contracts/contracts/MarketPlace_new.sol",
  "compiler": {
    "name": "solc",
    "version": "0.8.4+commit.c7e474f2.Emscripten.clang"
  },
  "schemaVersion": "3.4.4",
  "updatedAt": "2022-01-25T06:28:48.024Z",
  "devdoc": {
    "kind": "dev",
    "methods": {
      "onERC721Received(address,address,uint256,bytes)": {
        "details": "Whenever an {IERC721} `tokenId` token is transferred to this contract via {IERC721-safeTransferFrom} by `operator` from `from`, this function is called. It must return its Solidity selector to confirm the token transfer. If any other value is returned or the interface is not implemented by the recipient, the transfer will be reverted. The selector can be obtained in Solidity with `IERC721.onERC721Received.selector`."
      }
    },
    "version": 1
  },
  "userdoc": {
    "kind": "user",
    "methods": {},
    "version": 1
  }
}