{
  "contractName": "MarketPlace",
  "abi": [
    {
      "inputs": [
        {
          "internalType": "address",
          "name": "_escrow",
          "type": "address"
        }
      ],
      "stateMutability": "nonpayable",
      "type": "constructor"
    },
    {
      "anonymous": false,
      "inputs": [
        {
          "indexed": false,
          "internalType": "uint256",
          "name": "_price",
          "type": "uint256"
        },
        {
          "indexed": false,
          "internalType": "address",
          "name": "_currencyCode",
          "type": "address"
        },
        {
          "indexed": false,
          "internalType": "address",
          "name": "_idCollection",
          "type": "address"
        },
        {
          "indexed": false,
          "internalType": "uint256",
          "name": "_idNFT",
          "type": "uint256"
        },
        {
          "indexed": false,
          "internalType": "uint256",
          "name": "orderId",
          "type": "uint256"
        }
      ],
      "name": "AddedAsk",
      "type": "event"
    },
    {
      "anonymous": false,
      "inputs": [
        {
          "indexed": false,
          "internalType": "address",
          "name": "_idCollection",
          "type": "address"
        },
        {
          "indexed": false,
          "internalType": "uint256",
          "name": "_idNFT",
          "type": "uint256"
        },
        {
          "indexed": false,
          "internalType": "uint256",
          "name": "orderID",
          "type": "uint256"
        },
        {
          "indexed": false,
          "internalType": "uint256",
          "name": "orderPrice",
          "type": "uint256"
        }
      ],
      "name": "BoughtNFT",
      "type": "event"
    },
    {
      "anonymous": false,
      "inputs": [
        {
          "indexed": false,
          "internalType": "address",
          "name": "_idCollection",
          "type": "address"
        },
        {
          "indexed": false,
          "internalType": "uint256",
          "name": "_idNFT",
          "type": "uint256"
        },
        {
          "indexed": false,
          "internalType": "uint256",
          "name": "orderID",
          "type": "uint256"
        },
        {
          "indexed": false,
          "internalType": "uint256",
          "name": "orderPrice",
          "type": "uint256"
        }
      ],
      "name": "BoughtNFT4KSM",
      "type": "event"
    },
    {
      "anonymous": false,
      "inputs": [
        {
          "indexed": false,
          "internalType": "address",
          "name": "_idCollection",
          "type": "address"
        },
        {
          "indexed": false,
          "internalType": "uint256",
          "name": "_idNFT",
          "type": "uint256"
        },
        {
          "indexed": false,
          "internalType": "uint256",
          "name": "orderId",
          "type": "uint256"
        }
      ],
      "name": "CanceledAsk",
      "type": "event"
    },
    {
      "anonymous": false,
      "inputs": [
        {
          "indexed": false,
          "internalType": "uint256",
          "name": "_amount",
          "type": "uint256"
        },
        {
          "indexed": false,
          "internalType": "address",
          "name": "_sender",
          "type": "address"
        }
      ],
      "name": "DepositedKSM",
      "type": "event"
    },
    {
      "anonymous": false,
      "inputs": [
        {
          "indexed": false,
          "internalType": "uint256",
          "name": "_price",
          "type": "uint256"
        },
        {
          "indexed": false,
          "internalType": "address",
          "name": "_currencyCode",
          "type": "address"
        },
        {
          "indexed": false,
          "internalType": "address",
          "name": "_idCollection",
          "type": "address"
        },
        {
          "indexed": false,
          "internalType": "uint256",
          "name": "_idNFT",
          "type": "uint256"
        },
        {
          "indexed": false,
          "internalType": "uint8",
          "name": "_active",
          "type": "uint8"
        },
        {
          "indexed": false,
          "internalType": "uint256",
          "name": "orderId",
          "type": "uint256"
        }
      ],
      "name": "EditedAsk",
      "type": "event"
    },
    {
      "anonymous": false,
      "inputs": [
        {
          "indexed": false,
          "internalType": "uint256",
          "name": "_amount",
          "type": "uint256"
        },
        {
          "indexed": false,
          "internalType": "address",
          "name": "_currencyCode",
          "type": "address"
        },
        {
          "indexed": false,
          "internalType": "address",
          "name": "_sender",
          "type": "address"
        }
      ],
      "name": "Withdrawn",
      "type": "event"
    },
    {
      "anonymous": false,
      "inputs": [
        {
          "indexed": false,
          "internalType": "address",
          "name": "_sender",
          "type": "address"
        },
        {
          "indexed": false,
          "internalType": "uint256",
          "name": "balance",
          "type": "uint256"
        }
      ],
      "name": "WithdrawnAllKSM",
      "type": "event"
    },
    {
      "stateMutability": "payable",
      "type": "fallback",
      "payable": true
    },
    {
      "inputs": [
        {
          "internalType": "address",
          "name": "",
          "type": "address"
        },
        {
          "internalType": "uint256",
          "name": "",
          "type": "uint256"
        }
      ],
      "name": "asks",
      "outputs": [
        {
          "internalType": "uint256",
          "name": "",
          "type": "uint256"
        }
      ],
      "stateMutability": "view",
      "type": "function",
      "constant": true
    },
    {
      "inputs": [
        {
          "internalType": "address",
          "name": "",
          "type": "address"
        },
        {
          "internalType": "uint256",
          "name": "",
          "type": "uint256"
        }
      ],
      "name": "asksbySeller",
      "outputs": [
        {
          "internalType": "uint256",
          "name": "",
          "type": "uint256"
        }
      ],
      "stateMutability": "view",
      "type": "function",
      "constant": true
    },
    {
      "inputs": [
        {
          "internalType": "address",
          "name": "",
          "type": "address"
        }
      ],
      "name": "balanceKSM",
      "outputs": [
        {
          "internalType": "uint256",
          "name": "",
          "type": "uint256"
        }
      ],
      "stateMutability": "view",
      "type": "function",
      "constant": true
    },
    {
      "inputs": [
        {
          "internalType": "uint256",
          "name": "",
          "type": "uint256"
        }
      ],
      "name": "orders",
      "outputs": [
        {
          "internalType": "uint256",
          "name": "idNFT",
          "type": "uint256"
        },
        {
          "internalType": "address",
          "name": "currencyCode",
          "type": "address"
        },
        {
          "internalType": "uint256",
          "name": "price",
          "type": "uint256"
        },
        {
          "internalType": "uint256",
          "name": "time",
          "type": "uint256"
        },
        {
          "internalType": "address",
          "name": "idCollection",
          "type": "address"
        },
        {
          "internalType": "address",
          "name": "ownerAddr",
          "type": "address"
        },
        {
          "internalType": "uint8",
          "name": "flagActive",
          "type": "uint8"
        },
        {
          "internalType": "string",
          "name": "name",
          "type": "string"
        },
        {
          "internalType": "string",
          "name": "symbol",
          "type": "string"
        },
        {
          "internalType": "string",
          "name": "tokenURI",
          "type": "string"
        }
      ],
      "stateMutability": "view",
      "type": "function",
      "constant": true
    },
    {
      "inputs": [
        {
          "internalType": "address",
          "name": "",
          "type": "address"
        },
        {
          "internalType": "uint256",
          "name": "",
          "type": "uint256"
        },
        {
          "internalType": "uint256",
          "name": "",
          "type": "uint256"
        }
      ],
      "name": "ordersbyNFT",
      "outputs": [
        {
          "internalType": "uint256",
          "name": "",
          "type": "uint256"
        }
      ],
      "stateMutability": "view",
      "type": "function",
      "constant": true
    },
    {
      "stateMutability": "payable",
      "type": "receive",
      "payable": true
    },
    {
      "inputs": [
        {
          "internalType": "address",
          "name": "_newEscrow",
          "type": "address"
        }
      ],
      "name": "setOwner",
      "outputs": [],
      "stateMutability": "nonpayable",
      "type": "function"
    },
    {
      "inputs": [
        {
          "internalType": "address",
          "name": "_newEscrow",
          "type": "address"
        }
      ],
      "name": "setEscrow",
      "outputs": [],
      "stateMutability": "nonpayable",
      "type": "function"
    },
    {
      "inputs": [
        {
          "internalType": "address",
          "name": "_coin",
          "type": "address"
        }
      ],
      "name": "setNativeCoin",
      "outputs": [],
      "stateMutability": "nonpayable",
      "type": "function"
    },
    {
      "inputs": [
        {
          "internalType": "uint256",
          "name": "_price",
          "type": "uint256"
        },
        {
          "internalType": "address",
          "name": "_currencyCode",
          "type": "address"
        },
        {
          "internalType": "address",
          "name": "_idCollection",
          "type": "address"
        },
        {
          "internalType": "uint256",
          "name": "_idNFT",
          "type": "uint256"
        }
      ],
      "name": "addAsk",
      "outputs": [],
      "stateMutability": "nonpayable",
      "type": "function"
    },
    {
      "inputs": [
        {
          "internalType": "uint256",
          "name": "_price",
          "type": "uint256"
        },
        {
          "internalType": "address",
          "name": "_currencyCode",
          "type": "address"
        },
        {
          "internalType": "address",
          "name": "_idCollection",
          "type": "address"
        },
        {
          "internalType": "uint256",
          "name": "_idNFT",
          "type": "uint256"
        },
        {
          "internalType": "uint8",
          "name": "_active",
          "type": "uint8"
        }
      ],
      "name": "editAsk",
      "outputs": [],
      "stateMutability": "nonpayable",
      "type": "function"
    },
    {
      "inputs": [
        {
          "internalType": "address",
          "name": "_idCollection",
          "type": "address"
        },
        {
          "internalType": "uint256",
          "name": "_idNFT",
          "type": "uint256"
        }
      ],
      "name": "cancelAsk",
      "outputs": [],
      "stateMutability": "nonpayable",
      "type": "function"
    },
    {
      "inputs": [
        {
          "internalType": "uint256",
          "name": "_amount",
          "type": "uint256"
        },
        {
          "internalType": "address",
          "name": "_sender",
          "type": "address"
        }
      ],
      "name": "depositKSM",
      "outputs": [],
      "stateMutability": "nonpayable",
      "type": "function"
    },
    {
      "inputs": [
        {
          "internalType": "address",
          "name": "_idCollection",
          "type": "address"
        },
        {
          "internalType": "uint256",
          "name": "_idNFT",
          "type": "uint256"
        },
        {
          "internalType": "address",
          "name": "_buyer",
          "type": "address"
        },
        {
          "internalType": "address",
          "name": "_receiver",
          "type": "address"
        }
      ],
      "name": "buyKSM",
      "outputs": [],
      "stateMutability": "nonpayable",
      "type": "function"
    },
    {
      "inputs": [
        {
          "internalType": "address",
          "name": "_idCollection",
          "type": "address"
        },
        {
          "internalType": "uint256",
          "name": "_idNFT",
          "type": "uint256"
        }
      ],
      "name": "buy",
      "outputs": [
        {
          "internalType": "bool",
          "name": "result",
          "type": "bool"
        }
      ],
      "stateMutability": "payable",
      "type": "function",
      "payable": true
    },
    {
      "inputs": [
        {
          "internalType": "address",
          "name": "_sender",
          "type": "address"
        }
      ],
      "name": "withdrawAllKSM",
      "outputs": [
        {
          "internalType": "uint256",
          "name": "lastBalance",
          "type": "uint256"
        }
      ],
      "stateMutability": "nonpayable",
      "type": "function"
    },
    {
      "inputs": [
        {
          "internalType": "uint256",
          "name": "_amount",
          "type": "uint256"
        },
        {
          "internalType": "address",
          "name": "_currencyCode",
          "type": "address"
        },
        {
          "internalType": "address payable",
          "name": "_sender",
          "type": "address"
        }
      ],
      "name": "withdraw",
      "outputs": [
        {
          "internalType": "bool",
          "name": "result",
          "type": "bool"
        }
      ],
      "stateMutability": "nonpayable",
      "type": "function"
    },
    {
      "inputs": [
        {
          "internalType": "address",
          "name": "_idCollection",
          "type": "address"
        },
        {
          "internalType": "uint256",
          "name": "_idNFT",
          "type": "uint256"
        }
      ],
      "name": "getOrder",
      "outputs": [
        {
          "components": [
            {
              "internalType": "uint256",
              "name": "idNFT",
              "type": "uint256"
            },
            {
              "internalType": "address",
              "name": "currencyCode",
              "type": "address"
            },
            {
              "internalType": "uint256",
              "name": "price",
              "type": "uint256"
            },
            {
              "internalType": "uint256",
              "name": "time",
              "type": "uint256"
            },
            {
              "internalType": "address",
              "name": "idCollection",
              "type": "address"
            },
            {
              "internalType": "address",
              "name": "ownerAddr",
              "type": "address"
            },
            {
              "internalType": "uint8",
              "name": "flagActive",
              "type": "uint8"
            },
            {
              "internalType": "string",
              "name": "name",
              "type": "string"
            },
            {
              "internalType": "string",
              "name": "symbol",
              "type": "string"
            },
            {
              "internalType": "string",
              "name": "tokenURI",
              "type": "string"
            }
          ],
          "internalType": "struct MarketPlace.Order",
          "name": "",
          "type": "tuple"
        }
      ],
      "stateMutability": "view",
      "type": "function",
      "constant": true
    },
    {
      "inputs": [],
      "name": "getOrdersLen",
      "outputs": [
        {
          "internalType": "uint256",
          "name": "",
          "type": "uint256"
        }
      ],
      "stateMutability": "view",
      "type": "function",
      "constant": true
    },
    {
      "inputs": [
        {
          "internalType": "address",
          "name": "operator",
          "type": "address"
        },
        {
          "internalType": "address",
          "name": "from",
          "type": "address"
        },
        {
          "internalType": "uint256",
          "name": "tokenId",
          "type": "uint256"
        },
        {
          "internalType": "bytes",
          "name": "data",
          "type": "bytes"
        }
      ],
      "name": "onERC721Received",
      "outputs": [
        {
          "internalType": "bytes4",
          "name": "",
          "type": "bytes4"
        }
      ],
      "stateMutability": "pure",
      "type": "function",
      "constant": true
    }
  ],
  "bytecode": "0x60806040523480156200001157600080fd5b50604051620047bb380380620047bb8339818101604052810190620000379190620003e6565b80600660006101000a81548173ffffffffffffffffffffffffffffffffffffffff021916908373ffffffffffffffffffffffffffffffffffffffff16021790555033600760006101000a81548173ffffffffffffffffffffffffffffffffffffffff021916908373ffffffffffffffffffffffffffffffffffffffff160217905550600060405180610140016040528060008152602001600073ffffffffffffffffffffffffffffffffffffffff1681526020016000815260200160008152602001600073ffffffffffffffffffffffffffffffffffffffff168152602001600073ffffffffffffffffffffffffffffffffffffffff168152602001600060ff1681526020016040518060200160405280600081525081526020016040518060200160405280600081525081526020016040518060200160405280600081525081525090806001815401808255809150506001900390600052602060002090600902016000909190919091506000820151816000015560208201518160010160006101000a81548173ffffffffffffffffffffffffffffffffffffffff021916908373ffffffffffffffffffffffffffffffffffffffff160217905550604082015181600201556060820151816003015560808201518160040160006101000a81548173ffffffffffffffffffffffffffffffffffffffff021916908373ffffffffffffffffffffffffffffffffffffffff16021790555060a08201518160050160006101000a81548173ffffffffffffffffffffffffffffffffffffffff021916908373ffffffffffffffffffffffffffffffffffffffff16021790555060c08201518160050160146101000a81548160ff021916908360ff16021790555060e0820151816006019080519060200190620002d59291906200031f565b50610100820151816007019080519060200190620002f59291906200031f565b50610120820151816008019080519060200190620003159291906200031f565b50505050620004c5565b8280546200032d9062000446565b90600052602060002090601f0160209004810192826200035157600085556200039d565b82601f106200036c57805160ff19168380011785556200039d565b828001600101855582156200039d579182015b828111156200039c5782518255916020019190600101906200037f565b5b509050620003ac9190620003b0565b5090565b5b80821115620003cb576000816000905550600101620003b1565b5090565b600081519050620003e081620004ab565b92915050565b600060208284031215620003f957600080fd5b60006200040984828501620003cf565b91505092915050565b60006200041f8262000426565b9050919050565b600073ffffffffffffffffffffffffffffffffffffffff82169050919050565b600060028204905060018216806200045f57607f821691505b602082108114156200047657620004756200047c565b5b50919050565b7f4e487b7100000000000000000000000000000000000000000000000000000000600052602260045260246000fd5b620004b68162000412565b8114620004c257600080fd5b50565b6142e680620004d56000396000f3fe6080604052600436106101185760003560e01c806393cdd334116100a0578063c10c354611610064578063c10c354614610468578063cce7ec1314610491578063e22d4f7d146104c1578063edb25841146104fe578063fd8868c71461053b57610158565b806393cdd3341461032e57806399f2d4eb1461036b578063a85c38ef146103a8578063b460af94146103ee578063b4c3e8ea1461042b57610158565b806340b80746116100e757806340b807461461024b57806341fd6790146102745780636b084b25146102b1578063791bd866146102da5780638c088f001461030357610158565b806313af403514610193578063150b7a02146101bc57806337c4eb58146101f95780633ce617561461022257610158565b36610158576040517f08c379a000000000000000000000000000000000000000000000000000000000815260040161014f90613aa8565b60405180910390fd5b6040517f08c379a000000000000000000000000000000000000000000000000000000000815260040161018a90613b08565b60405180910390fd5b34801561019f57600080fd5b506101ba60048036038101906101b591906131d7565b610564565b005b3480156101c857600080fd5b506101e360048036038101906101de9190613229565b610638565b6040516101f091906139cb565b60405180910390f35b34801561020557600080fd5b50610220600480360381019061021b91906134b5565b610666565b005b34801561022e57600080fd5b50610249600480360381019061024491906131d7565b610cf5565b005b34801561025757600080fd5b50610272600480360381019061026d91906132a9565b610dc9565b005b34801561028057600080fd5b5061029b60048036038101906102969190613348565b611163565b6040516102a89190613b4a565b60405180910390f35b3480156102bd57600080fd5b506102d860048036038101906102d39190613518565b6111a1565b005b3480156102e657600080fd5b5061030160048036038101906102fc919061342a565b611583565b005b34801561030f57600080fd5b506103186116e5565b6040516103259190613b4a565b60405180910390f35b34801561033a57600080fd5b50610355600480360381019061035091906131d7565b6116f1565b6040516103629190613b4a565b60405180910390f35b34801561037757600080fd5b50610392600480360381019061038d91906132a9565b611848565b60405161039f9190613b4a565b60405180910390f35b3480156103b457600080fd5b506103cf60048036038101906103ca9190613401565b611879565b6040516103e59a99989796959493929190613c79565b60405180910390f35b3480156103fa57600080fd5b5061041560048036038101906104109190613466565b611ae2565b60405161042291906139b0565b60405180910390f35b34801561043757600080fd5b50610452600480360381019061044d91906131d7565b611cd6565b60405161045f9190613b4a565b60405180910390f35b34801561047457600080fd5b5061048f600480360381019061048a91906131d7565b611cee565b005b6104ab60048036038101906104a691906132a9565b611dc2565b6040516104b891906139b0565b60405180910390f35b3480156104cd57600080fd5b506104e860048036038101906104e391906132a9565b61239e565b6040516104f59190613b4a565b60405180910390f35b34801561050a57600080fd5b50610525600480360381019061052091906132a9565b6123c3565b6040516105329190613b28565b60405180910390f35b34801561054757600080fd5b50610562600480360381019061055d91906132e5565b612775565b005b600760009054906101000a900473ffffffffffffffffffffffffffffffffffffffff1673ffffffffffffffffffffffffffffffffffffffff163373ffffffffffffffffffffffffffffffffffffffff16146105f4576040517f08c379a00000000000000000000000000000000000000000000000000000000081526004016105eb90613ae8565b60405180910390fd5b80600760006101000a81548173ffffffffffffffffffffffffffffffffffffffff021916908373ffffffffffffffffffffffffffffffffffffffff16021790555050565b60007f150b7a023d4804d13e8c85fb27262cb750cf6ba9f9dd3bb30d90f482ceeb4b1f905095945050505050565b60008273ffffffffffffffffffffffffffffffffffffffff16636352211e836040518263ffffffff1660e01b81526004016106a19190613b4a565b60206040518083038186803b1580156106b957600080fd5b505afa1580156106cd573d6000803e3d6000fd5b505050506040513d601f19601f820116820180604052508101906106f19190613200565b90503373ffffffffffffffffffffffffffffffffffffffff168173ffffffffffffffffffffffffffffffffffffffff1614610761576040517f08c379a000000000000000000000000000000000000000000000000000000000815260040161075890613a68565b60405180910390fd5b60608060608573ffffffffffffffffffffffffffffffffffffffff166306fdde036040518163ffffffff1660e01b815260040160006040518083038186803b1580156107ac57600080fd5b505afa9250505080156107e257506040513d6000823e3d601f19601f820116820180604052508101906107df91906133c0565b60015b6107fd57604051806020016040528060008152509250610802565b809350505b8573ffffffffffffffffffffffffffffffffffffffff166395d89b416040518163ffffffff1660e01b815260040160006040518083038186803b15801561084857600080fd5b505afa92505050801561087e57506040513d6000823e3d601f19601f8201168201806040525081019061087b91906133c0565b60015b6108995760405180602001604052806000815250915061089e565b809250505b8573ffffffffffffffffffffffffffffffffffffffff1663c87b56dd866040518263ffffffff1660e01b81526004016108d79190613b4a565b60006040518083038186803b1580156108ef57600080fd5b505afa92505050801561092557506040513d6000823e3d601f19601f8201168201806040525081019061092291906133c0565b60015b61094057604051806020016040528060008152509050610945565b809150505b60006040518061014001604052808781526020018973ffffffffffffffffffffffffffffffffffffffff1681526020018a81526020014281526020018873ffffffffffffffffffffffffffffffffffffffff1681526020013373ffffffffffffffffffffffffffffffffffffffff168152602001600160ff1681526020018581526020018481526020018381525090806001815401808255809150506001900390600052602060002090600902016000909190919091506000820151816000015560208201518160010160006101000a81548173ffffffffffffffffffffffffffffffffffffffff021916908373ffffffffffffffffffffffffffffffffffffffff160217905550604082015181600201556060820151816003015560808201518160040160006101000a81548173ffffffffffffffffffffffffffffffffffffffff021916908373ffffffffffffffffffffffffffffffffffffffff16021790555060a08201518160050160006101000a81548173ffffffffffffffffffffffffffffffffffffffff021916908373ffffffffffffffffffffffffffffffffffffffff16021790555060c08201518160050160146101000a81548160ff021916908360ff16021790555060e0820151816006019080519060200190610b2c929190612f6c565b50610100820151816007019080519060200190610b4a929190612f6c565b50610120820151816008019080519060200190610b68929190612f6c565b50505060006001600080549050610b7f9190613e03565b905080600360008973ffffffffffffffffffffffffffffffffffffffff1673ffffffffffffffffffffffffffffffffffffffff168152602001908152602001600020600088815260200190815260200160002081905550600560003373ffffffffffffffffffffffffffffffffffffffff1673ffffffffffffffffffffffffffffffffffffffff1681526020019081526020016000208190806001815401808255809150506001900390600052602060002001600090919091909150558673ffffffffffffffffffffffffffffffffffffffff166323b872dd3330896040518463ffffffff1660e01b8152600401610c79939291906138d4565b600060405180830381600087803b158015610c9357600080fd5b505af1158015610ca7573d6000803e3d6000fd5b505050507f83b3a8754d705365b581ab63c329c1e55255a22aa78c67b5fcef378bfb2d9b998989898985604051610ce2959493929190613bc5565b60405180910390a1505050505050505050565b600760009054906101000a900473ffffffffffffffffffffffffffffffffffffffff1673ffffffffffffffffffffffffffffffffffffffff163373ffffffffffffffffffffffffffffffffffffffff1614610d85576040517f08c379a0000000000000000000000000000000000000000000000000000000008152600401610d7c90613ae8565b60405180910390fd5b80600860006101000a81548173ffffffffffffffffffffffffffffffffffffffff021916908373ffffffffffffffffffffffffffffffffffffffff16021790555050565b6000600360008473ffffffffffffffffffffffffffffffffffffffff1673ffffffffffffffffffffffffffffffffffffffff16815260200190815260200160002060008381526020019081526020016000205490503373ffffffffffffffffffffffffffffffffffffffff1660008281548110610e6f577f4e487b7100000000000000000000000000000000000000000000000000000000600052603260045260246000fd5b906000526020600020906009020160050160009054906101000a900473ffffffffffffffffffffffffffffffffffffffff1673ffffffffffffffffffffffffffffffffffffffff1614610ef7576040517f08c379a0000000000000000000000000000000000000000000000000000000008152600401610eee90613a48565b60405180910390fd5b6000808281548110610f32577f4e487b7100000000000000000000000000000000000000000000000000000000600052603260045260246000fd5b906000526020600020906009020160050160149054906101000a900460ff1660ff161415610f95576040517f08c379a0000000000000000000000000000000000000000000000000000000008152600401610f8c90613a08565b60405180910390fd5b4260008281548110610fd0577f4e487b7100000000000000000000000000000000000000000000000000000000600052603260045260246000fd5b9060005260206000209060090201600301819055506000808281548110611020577f4e487b7100000000000000000000000000000000000000000000000000000000600052603260045260246000fd5b906000526020600020906009020160050160146101000a81548160ff021916908360ff1602179055508273ffffffffffffffffffffffffffffffffffffffff166323b872dd30600084815481106110a0577f4e487b7100000000000000000000000000000000000000000000000000000000600052603260045260246000fd5b906000526020600020906009020160050160009054906101000a900473ffffffffffffffffffffffffffffffffffffffff16856040518463ffffffff1660e01b81526004016110f1939291906138d4565b600060405180830381600087803b15801561110b57600080fd5b505af115801561111f573d6000803e3d6000fd5b505050507f6330f58b476cc7f9dd8db8130a0fbb49b291ebc32531eb36e9646f56ee20174b83838360405161115693929190613934565b60405180910390a1505050565b6004602052826000526040600020602052816000526040600020818154811061118b57600080fd5b9060005260206000200160009250925050505481565b6000600360008573ffffffffffffffffffffffffffffffffffffffff1673ffffffffffffffffffffffffffffffffffffffff16815260200190815260200160002060008481526020019081526020016000205490503373ffffffffffffffffffffffffffffffffffffffff1660008281548110611247577f4e487b7100000000000000000000000000000000000000000000000000000000600052603260045260246000fd5b906000526020600020906009020160050160009054906101000a900473ffffffffffffffffffffffffffffffffffffffff1673ffffffffffffffffffffffffffffffffffffffff16146112cf576040517f08c379a00000000000000000000000000000000000000000000000000000000081526004016112c690613a48565b60405180910390fd5b600080828154811061130a577f4e487b7100000000000000000000000000000000000000000000000000000000600052603260045260246000fd5b906000526020600020906009020160050160149054906101000a900460ff1660ff16141561136d576040517f08c379a000000000000000000000000000000000000000000000000000000000815260040161136490613a08565b60405180910390fd5b60008611156113c75785600082815481106113b1577f4e487b7100000000000000000000000000000000000000000000000000000000600052603260045260246000fd5b9060005260206000209060090201600201819055505b600073ffffffffffffffffffffffffffffffffffffffff168573ffffffffffffffffffffffffffffffffffffffff1614611486578460008281548110611436577f4e487b7100000000000000000000000000000000000000000000000000000000600052603260045260246000fd5b906000526020600020906009020160010160006101000a81548173ffffffffffffffffffffffffffffffffffffffff021916908373ffffffffffffffffffffffffffffffffffffffff1602179055505b42600082815481106114c1577f4e487b7100000000000000000000000000000000000000000000000000000000600052603260045260246000fd5b9060005260206000209060090201600301819055508160008281548110611511577f4e487b7100000000000000000000000000000000000000000000000000000000600052603260045260246000fd5b906000526020600020906009020160050160146101000a81548160ff021916908360ff1602179055507f04211d838289b72af597bf28a4ccff5a30d6056f5fce2eddb127ab4ffea0963d86868686868660405161157396959493929190613c18565b60405180910390a1505050505050565b600660009054906101000a900473ffffffffffffffffffffffffffffffffffffffff1673ffffffffffffffffffffffffffffffffffffffff163373ffffffffffffffffffffffffffffffffffffffff1614611613576040517f08c379a000000000000000000000000000000000000000000000000000000000815260040161160a90613a28565b60405180910390fd5b61166582600260008473ffffffffffffffffffffffffffffffffffffffff1673ffffffffffffffffffffffffffffffffffffffff16815260200190815260200160002054612f0190919063ffffffff16565b600260008373ffffffffffffffffffffffffffffffffffffffff1673ffffffffffffffffffffffffffffffffffffffff168152602001908152602001600020819055507f291ce0b690061cb1b3f1111bf6500efe526983251fb0f863251ec3670d035fc482826040516116d9929190613b65565b60405180910390a15050565b60008080549050905090565b6000600660009054906101000a900473ffffffffffffffffffffffffffffffffffffffff1673ffffffffffffffffffffffffffffffffffffffff163373ffffffffffffffffffffffffffffffffffffffff1614611783576040517f08c379a000000000000000000000000000000000000000000000000000000000815260040161177a90613a28565b60405180910390fd5b600260008373ffffffffffffffffffffffffffffffffffffffff1673ffffffffffffffffffffffffffffffffffffffff1681526020019081526020016000205490506000600260008473ffffffffffffffffffffffffffffffffffffffff1673ffffffffffffffffffffffffffffffffffffffff168152602001908152602001600020819055507f027aeacbc6fbfa7fe735ff8f14a600469ad1a3197ce1c8c8a159641cf68fe592828260405161183b92919061390b565b60405180910390a1919050565b6005602052816000526040600020818154811061186457600080fd5b90600052602060002001600091509150505481565b6000818154811061188957600080fd5b90600052602060002090600902016000915090508060000154908060010160009054906101000a900473ffffffffffffffffffffffffffffffffffffffff16908060020154908060030154908060040160009054906101000a900473ffffffffffffffffffffffffffffffffffffffff16908060050160009054906101000a900473ffffffffffffffffffffffffffffffffffffffff16908060050160149054906101000a900460ff169080600601805461194390613f33565b80601f016020809104026020016040519081016040528092919081815260200182805461196f90613f33565b80156119bc5780601f10611991576101008083540402835291602001916119bc565b820191906000526020600020905b81548152906001019060200180831161199f57829003601f168201915b5050505050908060070180546119d190613f33565b80601f01602080910402602001604051908101604052809291908181526020018280546119fd90613f33565b8015611a4a5780601f10611a1f57610100808354040283529160200191611a4a565b820191906000526020600020905b815481529060010190602001808311611a2d57829003601f168201915b505050505090806008018054611a5f90613f33565b80601f0160208091040260200160405190810160405280929190818152602001828054611a8b90613f33565b8015611ad85780601f10611aad57610100808354040283529160200191611ad8565b820191906000526020600020905b815481529060010190602001808311611abb57829003601f168201915b505050505090508a565b6000600760009054906101000a900473ffffffffffffffffffffffffffffffffffffffff1673ffffffffffffffffffffffffffffffffffffffff163373ffffffffffffffffffffffffffffffffffffffff1614611b74576040517f08c379a0000000000000000000000000000000000000000000000000000000008152600401611b6b90613ae8565b60405180910390fd5b600860009054906101000a900473ffffffffffffffffffffffffffffffffffffffff1673ffffffffffffffffffffffffffffffffffffffff168373ffffffffffffffffffffffffffffffffffffffff1614611c5c578273ffffffffffffffffffffffffffffffffffffffff1663a9059cbb83866040518363ffffffff1660e01b8152600401611c049291906138ab565b602060405180830381600087803b158015611c1e57600080fd5b505af1158015611c32573d6000803e3d6000fd5b505050506040513d601f19601f82011682018060405250810190611c569190613397565b50611c94565b8173ffffffffffffffffffffffffffffffffffffffff166108fc859081150290604051600060405180830381858888f1935050505090505b7fb524bace85e4ce0f8da306e32f39263c5724780ca00b7551c051c8e3dc36adaf848484604051611cc793929190613b8e565b60405180910390a19392505050565b60026020528060005260406000206000915090505481565b600760009054906101000a900473ffffffffffffffffffffffffffffffffffffffff1673ffffffffffffffffffffffffffffffffffffffff163373ffffffffffffffffffffffffffffffffffffffff1614611d7e576040517f08c379a0000000000000000000000000000000000000000000000000000000008152600401611d7590613ae8565b60405180910390fd5b80600660006101000a81548173ffffffffffffffffffffffffffffffffffffffff021916908373ffffffffffffffffffffffffffffffffffffffff16021790555050565b6000806000600360008673ffffffffffffffffffffffffffffffffffffffff1673ffffffffffffffffffffffffffffffffffffffff16815260200190815260200160002060008581526020019081526020016000205481548110611e4f577f4e487b7100000000000000000000000000000000000000000000000000000000600052603260045260246000fd5b906000526020600020906009020160405180610140016040529081600082015481526020016001820160009054906101000a900473ffffffffffffffffffffffffffffffffffffffff1673ffffffffffffffffffffffffffffffffffffffff1673ffffffffffffffffffffffffffffffffffffffff16815260200160028201548152602001600382015481526020016004820160009054906101000a900473ffffffffffffffffffffffffffffffffffffffff1673ffffffffffffffffffffffffffffffffffffffff1673ffffffffffffffffffffffffffffffffffffffff1681526020016005820160009054906101000a900473ffffffffffffffffffffffffffffffffffffffff1673ffffffffffffffffffffffffffffffffffffffff1673ffffffffffffffffffffffffffffffffffffffff1681526020016005820160149054906101000a900460ff1660ff1660ff168152602001600682018054611fb690613f33565b80601f0160208091040260200160405190810160405280929190818152602001828054611fe290613f33565b801561202f5780601f106120045761010080835404028352916020019161202f565b820191906000526020600020905b81548152906001019060200180831161201257829003601f168201915b5050505050815260200160078201805461204890613f33565b80601f016020809104026020016040519081016040528092919081815260200182805461207490613f33565b80156120c15780601f10612096576101008083540402835291602001916120c1565b820191906000526020600020905b8154815290600101906020018083116120a457829003601f168201915b505050505081526020016008820180546120da90613f33565b80601f016020809104026020016040519081016040528092919081815260200182805461210690613f33565b80156121535780601f1061212857610100808354040283529160200191612153565b820191906000526020600020905b81548152906001019060200180831161213657829003601f168201915b5050505050815250509050806040015134146121a4576040517f08c379a000000000000000000000000000000000000000000000000000000000815260040161219b90613ac8565b60405180910390fd5b600080600360008773ffffffffffffffffffffffffffffffffffffffff1673ffffffffffffffffffffffffffffffffffffffff1681526020019081526020016000206000868152602001908152602001600020548154811061222f577f4e487b7100000000000000000000000000000000000000000000000000000000600052603260045260246000fd5b906000526020600020906009020160050160146101000a81548160ff021916908360ff1602179055508373ffffffffffffffffffffffffffffffffffffffff166323b872dd3033866040518463ffffffff1660e01b8152600401612295939291906138d4565b600060405180830381600087803b1580156122af57600080fd5b505af11580156122c3573d6000803e3d6000fd5b505050508060a0015173ffffffffffffffffffffffffffffffffffffffff166108fc82604001519081150290604051600060405180830381858888f1935050505091507fc220cf2a12d6492e23ed1141c55018997799699d009b00ebd5a4874c60f5c31e8484600360008873ffffffffffffffffffffffffffffffffffffffff1673ffffffffffffffffffffffffffffffffffffffff168152602001908152602001600020600087815260200190815260200160002054846040015160405161238f949392919061396b565b60405180910390a15092915050565b6003602052816000526040600020602052806000526040600020600091509150505481565b6123cb612ff2565b6000600360008573ffffffffffffffffffffffffffffffffffffffff1673ffffffffffffffffffffffffffffffffffffffff1681526020019081526020016000206000848152602001908152602001600020549050600080828154811061245b577f4e487b7100000000000000000000000000000000000000000000000000000000600052603260045260246000fd5b906000526020600020906009020160405180610140016040529081600082015481526020016001820160009054906101000a900473ffffffffffffffffffffffffffffffffffffffff1673ffffffffffffffffffffffffffffffffffffffff1673ffffffffffffffffffffffffffffffffffffffff16815260200160028201548152602001600382015481526020016004820160009054906101000a900473ffffffffffffffffffffffffffffffffffffffff1673ffffffffffffffffffffffffffffffffffffffff1673ffffffffffffffffffffffffffffffffffffffff1681526020016005820160009054906101000a900473ffffffffffffffffffffffffffffffffffffffff1673ffffffffffffffffffffffffffffffffffffffff1673ffffffffffffffffffffffffffffffffffffffff1681526020016005820160149054906101000a900460ff1660ff1660ff1681526020016006820180546125c290613f33565b80601f01602080910402602001604051908101604052809291908181526020018280546125ee90613f33565b801561263b5780601f106126105761010080835404028352916020019161263b565b820191906000526020600020905b81548152906001019060200180831161261e57829003601f168201915b5050505050815260200160078201805461265490613f33565b80601f016020809104026020016040519081016040528092919081815260200182805461268090613f33565b80156126cd5780601f106126a2576101008083540402835291602001916126cd565b820191906000526020600020905b8154815290600101906020018083116126b057829003601f168201915b505050505081526020016008820180546126e690613f33565b80601f016020809104026020016040519081016040528092919081815260200182805461271290613f33565b801561275f5780601f106127345761010080835404028352916020019161275f565b820191906000526020600020905b81548152906001019060200180831161274257829003601f168201915b5050505050815250509050809250505092915050565b600080600360008773ffffffffffffffffffffffffffffffffffffffff1673ffffffffffffffffffffffffffffffffffffffff16815260200190815260200160002060008681526020019081526020016000205481548110612800577f4e487b7100000000000000000000000000000000000000000000000000000000600052603260045260246000fd5b906000526020600020906009020160405180610140016040529081600082015481526020016001820160009054906101000a900473ffffffffffffffffffffffffffffffffffffffff1673ffffffffffffffffffffffffffffffffffffffff1673ffffffffffffffffffffffffffffffffffffffff16815260200160028201548152602001600382015481526020016004820160009054906101000a900473ffffffffffffffffffffffffffffffffffffffff1673ffffffffffffffffffffffffffffffffffffffff1673ffffffffffffffffffffffffffffffffffffffff1681526020016005820160009054906101000a900473ffffffffffffffffffffffffffffffffffffffff1673ffffffffffffffffffffffffffffffffffffffff1673ffffffffffffffffffffffffffffffffffffffff1681526020016005820160149054906101000a900460ff1660ff1660ff16815260200160068201805461296790613f33565b80601f016020809104026020016040519081016040528092919081815260200182805461299390613f33565b80156129e05780601f106129b5576101008083540402835291602001916129e0565b820191906000526020600020905b8154815290600101906020018083116129c357829003601f168201915b505050505081526020016007820180546129f990613f33565b80601f0160208091040260200160405190810160405280929190818152602001828054612a2590613f33565b8015612a725780601f10612a4757610100808354040283529160200191612a72565b820191906000526020600020905b815481529060010190602001808311612a5557829003601f168201915b50505050508152602001600882018054612a8b90613f33565b80601f0160208091040260200160405190810160405280929190818152602001828054612ab790613f33565b8015612b045780601f10612ad957610100808354040283529160200191612b04565b820191906000526020600020905b815481529060010190602001808311612ae757829003601f168201915b5050505050815250509050600660009054906101000a900473ffffffffffffffffffffffffffffffffffffffff1673ffffffffffffffffffffffffffffffffffffffff163373ffffffffffffffffffffffffffffffffffffffff161480612b9657508273ffffffffffffffffffffffffffffffffffffffff163373ffffffffffffffffffffffffffffffffffffffff16145b612bd5576040517f08c379a0000000000000000000000000000000000000000000000000000000008152600401612bcc90613a88565b60405180910390fd5b612c6281604001516040518060400160405280601981526020017f496e737563636966696369656e74204b534d732066756e647300000000000000815250600260008773ffffffffffffffffffffffffffffffffffffffff1673ffffffffffffffffffffffffffffffffffffffff16815260200190815260200160002054612f179092919063ffffffff16565b600260008573ffffffffffffffffffffffffffffffffffffffff1673ffffffffffffffffffffffffffffffffffffffff16815260200190815260200160002081905550612cff8160400151600260008460a0015173ffffffffffffffffffffffffffffffffffffffff1673ffffffffffffffffffffffffffffffffffffffff16815260200190815260200160002054612f0190919063ffffffff16565b600260008360a0015173ffffffffffffffffffffffffffffffffffffffff1673ffffffffffffffffffffffffffffffffffffffff16815260200190815260200160002081905550600080600360008873ffffffffffffffffffffffffffffffffffffffff1673ffffffffffffffffffffffffffffffffffffffff16815260200190815260200160002060008781526020019081526020016000205481548110612dd1577f4e487b7100000000000000000000000000000000000000000000000000000000600052603260045260246000fd5b906000526020600020906009020160050160146101000a81548160ff021916908360ff1602179055508473ffffffffffffffffffffffffffffffffffffffff166323b872dd3084876040518463ffffffff1660e01b8152600401612e37939291906138d4565b600060405180830381600087803b158015612e5157600080fd5b505af1158015612e65573d6000803e3d6000fd5b505050507f68bdd3548f3f05742b376651745ca73472eb18f2230f64b893d7a48e575eb0148585600360008973ffffffffffffffffffffffffffffffffffffffff1673ffffffffffffffffffffffffffffffffffffffff1681526020019081526020016000206000888152602001908152602001600020548460400151604051612ef2949392919061396b565b60405180910390a15050505050565b60008183612f0f9190613dad565b905092915050565b6000838311158290612f5f576040517f08c379a0000000000000000000000000000000000000000000000000000000008152600401612f5691906139e6565b60405180910390fd5b5082840390509392505050565b828054612f7890613f33565b90600052602060002090601f016020900481019282612f9a5760008555612fe1565b82601f10612fb357805160ff1916838001178555612fe1565b82800160010185558215612fe1579182015b82811115612fe0578251825591602001919060010190612fc5565b5b509050612fee919061308a565b5090565b60405180610140016040528060008152602001600073ffffffffffffffffffffffffffffffffffffffff1681526020016000815260200160008152602001600073ffffffffffffffffffffffffffffffffffffffff168152602001600073ffffffffffffffffffffffffffffffffffffffff168152602001600060ff1681526020016060815260200160608152602001606081525090565b5b808211156130a357600081600090555060010161308b565b5090565b60006130ba6130b584613d4f565b613d2a565b9050828152602081018484840111156130d257600080fd5b6130dd848285613f00565b509392505050565b6000813590506130f48161423d565b92915050565b6000815190506131098161423d565b92915050565b60008135905061311e81614254565b92915050565b6000815190506131338161426b565b92915050565b60008083601f84011261314b57600080fd5b8235905067ffffffffffffffff81111561316457600080fd5b60208301915083600182028301111561317c57600080fd5b9250929050565b600082601f83011261319457600080fd5b81516131a48482602086016130a7565b91505092915050565b6000813590506131bc81614282565b92915050565b6000813590506131d181614299565b92915050565b6000602082840312156131e957600080fd5b60006131f7848285016130e5565b91505092915050565b60006020828403121561321257600080fd5b6000613220848285016130fa565b91505092915050565b60008060008060006080868803121561324157600080fd5b600061324f888289016130e5565b9550506020613260888289016130e5565b9450506040613271888289016131ad565b935050606086013567ffffffffffffffff81111561328e57600080fd5b61329a88828901613139565b92509250509295509295909350565b600080604083850312156132bc57600080fd5b60006132ca858286016130e5565b92505060206132db858286016131ad565b9150509250929050565b600080600080608085870312156132fb57600080fd5b6000613309878288016130e5565b945050602061331a878288016131ad565b935050604061332b878288016130e5565b925050606061333c878288016130e5565b91505092959194509250565b60008060006060848603121561335d57600080fd5b600061336b868287016130e5565b935050602061337c868287016131ad565b925050604061338d868287016131ad565b9150509250925092565b6000602082840312156133a957600080fd5b60006133b784828501613124565b91505092915050565b6000602082840312156133d257600080fd5b600082015167ffffffffffffffff8111156133ec57600080fd5b6133f884828501613183565b91505092915050565b60006020828403121561341357600080fd5b6000613421848285016131ad565b91505092915050565b6000806040838503121561343d57600080fd5b600061344b858286016131ad565b925050602061345c858286016130e5565b9150509250929050565b60008060006060848603121561347b57600080fd5b6000613489868287016131ad565b935050602061349a868287016130e5565b92505060406134ab8682870161310f565b9150509250925092565b600080600080608085870312156134cb57600080fd5b60006134d9878288016131ad565b94505060206134ea878288016130e5565b93505060406134fb878288016130e5565b925050606061350c878288016131ad565b91505092959194509250565b600080600080600060a0868803121561353057600080fd5b600061353e888289016131ad565b955050602061354f888289016130e5565b9450506040613560888289016130e5565b9350506060613571888289016131ad565b9250506080613582888289016131c2565b9150509295509295909350565b61359881613eca565b82525050565b6135a781613e37565b82525050565b6135b681613e37565b82525050565b6135c581613e5b565b82525050565b6135d481613e67565b82525050565b60006135e582613d80565b6135ef8185613d8b565b93506135ff818560208601613f00565b61360881614023565b840191505092915050565b600061361e82613d80565b6136288185613d9c565b9350613638818560208601613f00565b61364181614023565b840191505092915050565b6000613659601283613d9c565b915061366482614034565b602082019050919050565b600061367c600f83613d9c565b91506136878261405d565b602082019050919050565b600061369f601d83613d9c565b91506136aa82614086565b602082019050919050565b60006136c2601d83613d9c565b91506136cd826140af565b602082019050919050565b60006136e5602483613d9c565b91506136f0826140d8565b604082019050919050565b6000613708604183613d9c565b915061371382614127565b606082019050919050565b600061372b602d83613d9c565b91506137368261419c565b604082019050919050565b600061374e600e83613d9c565b9150613759826141eb565b602082019050919050565b6000613771601083613d9c565b915061377c82614214565b602082019050919050565b6000610140830160008301516137a0600086018261386f565b5060208301516137b3602086018261359e565b5060408301516137c6604086018261386f565b5060608301516137d9606086018261386f565b5060808301516137ec608086018261359e565b5060a08301516137ff60a086018261359e565b5060c083015161381260c086018261388d565b5060e083015184820360e086015261382a82826135da565b91505061010083015184820361010086015261384682826135da565b91505061012083015184820361012086015261386282826135da565b9150508091505092915050565b61387881613eb3565b82525050565b61388781613eb3565b82525050565b61389681613ebd565b82525050565b6138a581613ebd565b82525050565b60006040820190506138c0600083018561358f565b6138cd602083018461387e565b9392505050565b60006060820190506138e960008301866135ad565b6138f660208301856135ad565b613903604083018461387e565b949350505050565b600060408201905061392060008301856135ad565b61392d602083018461387e565b9392505050565b600060608201905061394960008301866135ad565b613956602083018561387e565b613963604083018461387e565b949350505050565b600060808201905061398060008301876135ad565b61398d602083018661387e565b61399a604083018561387e565b6139a7606083018461387e565b95945050505050565b60006020820190506139c560008301846135bc565b92915050565b60006020820190506139e060008301846135cb565b92915050565b60006020820190508181036000830152613a008184613613565b905092915050565b60006020820190508181036000830152613a218161364c565b9050919050565b60006020820190508181036000830152613a418161366f565b9050919050565b60006020820190508181036000830152613a6181613692565b9050919050565b60006020820190508181036000830152613a81816136b5565b9050919050565b60006020820190508181036000830152613aa1816136d8565b9050919050565b60006020820190508181036000830152613ac1816136fb565b9050919050565b60006020820190508181036000830152613ae18161371e565b9050919050565b60006020820190508181036000830152613b0181613741565b9050919050565b60006020820190508181036000830152613b2181613764565b9050919050565b60006020820190508181036000830152613b428184613787565b905092915050565b6000602082019050613b5f600083018461387e565b92915050565b6000604082019050613b7a600083018561387e565b613b8760208301846135ad565b9392505050565b6000606082019050613ba3600083018661387e565b613bb060208301856135ad565b613bbd604083018461358f565b949350505050565b600060a082019050613bda600083018861387e565b613be760208301876135ad565b613bf460408301866135ad565b613c01606083018561387e565b613c0e608083018461387e565b9695505050505050565b600060c082019050613c2d600083018961387e565b613c3a60208301886135ad565b613c4760408301876135ad565b613c54606083018661387e565b613c61608083018561389c565b613c6e60a083018461387e565b979650505050505050565b600061014082019050613c8f600083018d61387e565b613c9c602083018c6135ad565b613ca9604083018b61387e565b613cb6606083018a61387e565b613cc360808301896135ad565b613cd060a08301886135ad565b613cdd60c083018761389c565b81810360e0830152613cef8186613613565b9050818103610100830152613d048185613613565b9050818103610120830152613d198184613613565b90509b9a5050505050505050505050565b6000613d34613d45565b9050613d408282613f65565b919050565b6000604051905090565b600067ffffffffffffffff821115613d6a57613d69613ff4565b5b613d7382614023565b9050602081019050919050565b600081519050919050565b600082825260208201905092915050565b600082825260208201905092915050565b6000613db882613eb3565b9150613dc383613eb3565b9250827fffffffffffffffffffffffffffffffffffffffffffffffffffffffffffffffff03821115613df857613df7613f96565b5b828201905092915050565b6000613e0e82613eb3565b9150613e1983613eb3565b925082821015613e2c57613e2b613f96565b5b828203905092915050565b6000613e4282613e93565b9050919050565b6000613e5482613e93565b9050919050565b60008115159050919050565b60007fffffffff0000000000000000000000000000000000000000000000000000000082169050919050565b600073ffffffffffffffffffffffffffffffffffffffff82169050919050565b6000819050919050565b600060ff82169050919050565b6000613ed582613edc565b9050919050565b6000613ee782613eee565b9050919050565b6000613ef982613e93565b9050919050565b60005b83811015613f1e578082015181840152602081019050613f03565b83811115613f2d576000848401525b50505050565b60006002820490506001821680613f4b57607f821691505b60208210811415613f5f57613f5e613fc5565b5b50919050565b613f6e82614023565b810181811067ffffffffffffffff82111715613f8d57613f8c613ff4565b5b80604052505050565b7f4e487b7100000000000000000000000000000000000000000000000000000000600052601160045260246000fd5b7f4e487b7100000000000000000000000000000000000000000000000000000000600052602260045260246000fd5b7f4e487b7100000000000000000000000000000000000000000000000000000000600052604160045260246000fd5b6000601f19601f8301169050919050565b7f546869732061736b20697320636c6f7365640000000000000000000000000000600082015250565b7f4f6e6c7920657363726f772063616e0000000000000000000000000000000000600082015250565b7f4f6e6c7920746f6b656e206f776e65722063616e20656469742061736b000000600082015250565b7f4f6e6c7920746f6b656e206f776e65722063616e206d616b652061736b000000600082015250565b7f4f6e6c7920657363726f77206f722062757965722063616e2063616c6c20627560008201527f794b534d00000000000000000000000000000000000000000000000000000000602082015250565b7f43616e277420616363657074207061796d656e7420776974686f757420636f6c60008201527f6c656374696f6e20616e64204944732c20757365206441707020746f2073656e60208201527f6400000000000000000000000000000000000000000000000000000000000000604082015250565b7f4e6f7420726967687420616d6f756e742073656e742c206861766520746f206260008201527f6520657175616c20707269636500000000000000000000000000000000000000602082015250565b7f4f6e6c79206f776e65722063616e000000000000000000000000000000000000600082015250565b7f4e6f20737563682066756e6374696f6e00000000000000000000000000000000600082015250565b61424681613e37565b811461425157600080fd5b50565b61425d81613e49565b811461426857600080fd5b50565b61427481613e5b565b811461427f57600080fd5b50565b61428b81613eb3565b811461429657600080fd5b50565b6142a281613ebd565b81146142ad57600080fd5b5056fea2646970667358221220a87a0714f9764d220906df69bfd5f5e84e2e2163c93e38d6ad9aa0d28f6d862b64736f6c63430008040033",
  "immutableReferences": {},
  "source": "// SPDX-License-Identifier:  Apache License\npragma solidity >= 0.8.0;\nimport \"./interfaces/IERC721ext.sol\";\nimport \"@openzeppelin/contracts/token/ERC721/IERC721Receiver.sol\";\nimport \"@openzeppelin/contracts/utils/math/SafeMath.sol\";\nimport \"@openzeppelin/contracts/token/ERC20/IERC20.sol\";\n\n\ncontract MarketPlace is IERC721Receiver {\n    using SafeMath for uint;\n    struct Order {\n        \n        uint256 idNFT;\n        address currencyCode; // UNIQ tokens as address address (1); wKSM \n        uint256 price;\n        uint256 time;\n        address idCollection;\n        address ownerAddr;\n        uint8 flagActive;\n        string name;\n        string symbol;\n        string tokenURI;        \n    }\n    Order[] public  orders;\n    uint test;\n    mapping (address => uint256) public balanceKSM;  //  [ownerAddr][currency] => [KSMs]\n    mapping (address => mapping (uint256 => uint256)) public  asks ; // [buyer][idCollection][idNFT] => idorder\n    mapping (address => mapping (uint => uint[])) public ordersbyNFT; // [addressCollection] =>idNFT =>idorder\n\n    mapping (address => uint[]) public asksbySeller; // [addressSeller] =>idorder\n\n    address escrow;\n    address owner;\n    address nativecoin;\n\n    constructor (address _escrow) {\n        escrow = _escrow;\n        owner = msg.sender;\n\n         orders.push(Order(        \n                    0,\n                    address(0),\n                    0,\n                    0,\n                    address(0),\n                    address(0),\n                    0, \"\",\"\",\"\"));\n    }\n\n   function setOwner  (address _newEscrow) public onlyOwner {\n        owner = _newEscrow;\n    }\n\n    function setEscrow  (address _newEscrow) public onlyOwner {\n        escrow = _newEscrow;\n    }\n\n    function setNativeCoin  (address _coin) public onlyOwner {\n        nativecoin = _coin;\n    }\n\n    \n\n    modifier onlyEscrow () {\n        require(msg.sender == escrow, \"Only escrow can\");\n        _;\n    }\n\n    modifier onlyOwner () {\n        require(msg.sender == owner, \"Only owner can\");\n        _;\n    }\n\n    /**\n    * Make bids (orders) to sell NFTs \n    */\n    \n    receive  () external payable {\n        revert (\"Can't accept payment without collection and IDs, use dApp to send\");\n    }\n    fallback () external payable {\n        revert (\"No such function\");\n    }\n\n    event AddedAsk (uint256 _price, \n                    address  _currencyCode, \n                    address _idCollection, \n                    uint256 _idNFT,\n                    uint256 orderId\n                  );\n    event EditedAsk (uint256 _price, \n                    address  _currencyCode, \n                    address _idCollection, \n                    uint256 _idNFT,\n                    uint8  _active,\n                    uint orderId);\n\n    event  CanceledAsk (address _idCollection, \n                        uint256 _idNFT, \n                        uint orderId\n                        );\n\n    event DepositedKSM (uint256 _amount,  address _sender);\n\n    event BoughtNFT4KSM (address _idCollection, uint256 _idNFT, uint orderID, uint orderPrice );\n\n    event BoughtNFT (address _idCollection, uint256 _idNFT, uint orderID, uint orderPrice );\n\n    event WithdrawnAllKSM (address _sender, uint256 balance); \n\n    event Withdrawn (uint256 _amount, address _currencyCode, address _sender);\n    \n    function addAsk (uint256 _price, \n                    address  _currencyCode, \n                    address _idCollection, \n                    uint256 _idNFT\n                  ) public  { //\n        address ownerNFT = IERC721ext(_idCollection).ownerOf(_idNFT);\n        require (ownerNFT == msg.sender, \"Only token owner can make ask\");\n        string memory nameNFT;\n        string memory symbolNFT;\n        string memory uriNFT;\n        try IERC721ext(_idCollection).name() returns (string memory name_) {\n            nameNFT = name_;\n        }\n        catch {\n            nameNFT=\"\";\n        }   \n        try IERC721ext(_idCollection).symbol() returns (string memory symbol_) {\n            symbolNFT = symbol_;\n        }\n        catch {\n            symbolNFT=\"\";\n        }  \n        try IERC721ext(_idCollection).tokenURI(_idNFT) returns (string memory uri_) {\n            uriNFT = uri_;\n        }\n        catch {\n            uriNFT=\"\";\n        }        \n        orders.push(Order(        \n                    _idNFT,\n                    _currencyCode,\n                    _price,\n                    block.timestamp,\n                    _idCollection,\n                    msg.sender,\n                    1, // 1 = is active\n                    nameNFT, \n                    symbolNFT,\n                    uriNFT\n             ));\n            \n            uint orderId = orders.length-1;\n            asks[_idCollection][_idNFT] = orderId;\n            asksbySeller[msg.sender].push(orderId);\n            IERC721ext(_idCollection).transferFrom(msg.sender, address(this), _idNFT);\n            emit AddedAsk(_price, _currencyCode, _idCollection, _idNFT, orderId);     \n    }\n\n    function editAsk (uint256 _price, \n                    address  _currencyCode, \n                    address _idCollection, \n                    uint256 _idNFT,\n                    uint8  _active) public {\n        \n\n        uint orderID =  asks[_idCollection][_idNFT];\n\n        require (orders[orderID].ownerAddr == msg.sender, \"Only token owner can edit ask\");\n        require (orders[orderID].flagActive != 0, \"This ask is closed\");\n        if (_price> 0 ) {\n            orders[orderID].price = _price ;  \n        }\n        \n        if (_currencyCode != address(0) ) {\n            orders[orderID].currencyCode = _currencyCode ;  \n        }\n\n        orders[orderID].time = block.timestamp;\n        orders[orderID].flagActive = _active;\n        \n        emit EditedAsk(_price, _currencyCode, _idCollection, _idNFT, _active, orderID);\n        }\n        \n\n    function cancelAsk (address _idCollection, \n                        uint256 _idNFT\n                        ) public {\n\n        uint orderID =  asks[_idCollection][_idNFT];\n\n        require (orders[orderID].ownerAddr == msg.sender, \"Only token owner can edit ask\");\n        require (orders[orderID].flagActive != 0, \"This ask is closed\");\n\n        orders[orderID].time = block.timestamp;\n        orders[orderID].flagActive = 0;\n        IERC721ext(_idCollection).transferFrom(address(this),orders[orderID].ownerAddr, _idNFT);\n        emit CanceledAsk(_idCollection, _idNFT, orderID);\n        }\n\n\n    function depositKSM (uint256 _amount,  address _sender) public onlyEscrow {\n\n        balanceKSM[_sender]= balanceKSM[_sender].add(_amount);\n        emit DepositedKSM(_amount, _sender);\n    }\n\n    function buyKSM (address _idCollection, uint256 _idNFT, address _buyer, address _receiver ) public {\n        \n        Order memory order = orders[ asks[_idCollection][_idNFT]];\n        require(msg.sender == escrow || msg.sender == _buyer, \"Only escrow or buyer can call buyKSM\" );\n        //1. reduce balance\n\n        balanceKSM[_buyer] = balanceKSM[_buyer].sub( order.price, \"Insuccificient KSMs funds\");\n        balanceKSM[order.ownerAddr] = balanceKSM[order.ownerAddr].add( order.price);\n        // 2. close order\n        orders[ asks[_idCollection][_idNFT]].flagActive = 0;\n        // 3. transfer NFT to buyer\n        IERC721ext(_idCollection).transferFrom(address(this), _receiver, _idNFT);\n        emit BoughtNFT4KSM(_idCollection, _idNFT, asks[_idCollection][_idNFT], order.price);\n\n    }\n    function buy (address _idCollection, uint256 _idNFT ) public payable returns (bool result) { //buing for UNQ like as ethers \n        \n        Order memory order = orders[asks[_idCollection][_idNFT]]; \n        //1. check sent amount and send to seller\n        require (msg.value == order.price, \"Not right amount sent, have to be equal price\" );     \n        // 2. close order\n        orders[ asks[_idCollection][_idNFT]].flagActive = 0;\n        \n        // 3. transfer NFT to buyer\n        IERC721ext(_idCollection).transferFrom(address(this), msg.sender, _idNFT);\n        //uint balance  = address(this).balance;\n        result = payable(order.ownerAddr).send (order.price); \n        emit BoughtNFT(_idCollection, _idNFT, asks[_idCollection][_idNFT], order.price);\n        \n    }\n\n/* \n    function buyOther (address _idCollection, uint256 _idNFT, address _currencyCode, uint _amount ) public  { //buy for sny token if seller wants\n        \n        Order memory order = orders[ asks[_idCollection][_idNFT]];\n        //1. check sent amount and transfer from buyer to seller\n        require (order.price == _amount && order.currencyCode == _currencyCode, \"Not right amount or currency sent, have to be equal currency and price\" );\n        // !!! transfer have to be approved to marketplace!\n        IERC20(order.currencyCode).transferFrom(msg.sender, address(this), order.price); //to not disclojure buyer's address \n        IERC20(order.currencyCode).transfer(order.ownerAddr, order.price);\n        // 2. close order\n        orders[ asks[_idCollection][_idNFT]].flagActive = 0;\n        // 3. transfer NFT to buyer\n        IERC721ext(_idCollection).transferFrom(address(this), msg.sender, _idNFT);\n\n\n    }\n */\n\n    function withdrawAllKSM (address _sender) public  onlyEscrow returns (uint lastBalance ){\n        lastBalance = balanceKSM[_sender];\n        balanceKSM[_sender] =0;\n        emit WithdrawnAllKSM(_sender, lastBalance);\n    }\n\n    function withdraw (uint256 _amount, address _currencyCode, address payable _sender) public  onlyOwner returns (bool result ){\n        \n        if (_currencyCode != nativecoin ) { //erc20 compat. tokens on UNIQUE chain\n            // uint balance = IERC20(_currencyCode).balanceOf(address(this));\n            IERC20(_currencyCode).transfer(_sender, _amount);\n        } else {\n            // uint balance  = address(this).balance;\n\n            result =  (_sender).send(_amount); // for UNQ like as ethers \n        }\n        emit Withdrawn(_amount, _currencyCode, _sender);\n        return result;\n\n    }\n   // event GettedOrder(uint , Order);\n    function getOrder (address _idCollection, uint256 _idNFT) public view returns (Order memory) {\n        uint orderId = asks[_idCollection][_idNFT];\n        Order memory order = orders[orderId];\n //       emit GettedOrder (orderId, order);\n        return order;\n    }\n\n    function getOrdersLen () public view returns (uint) {\n        return orders.length;\n    }\n\n    function onERC721Received(address operator, address from, uint256 tokenId, bytes calldata data)  public override pure returns(bytes4) {\n            return bytes4(keccak256(\"onERC721Received(address,address,uint256,bytes)\"));\n        }\n}",
  "sourcePath": "/mnt/512-2/Uniq/marketplace_backend/contracts/MarketPlace.sol",
  "compiler": {
    "name": "solc",
    "version": "0.8.4+commit.c7e474f2.Emscripten.clang"
  },
  "schemaVersion": "3.4.4",
  "updatedAt": "2021-12-23T13:37:54.268Z",
  "networkType": "ethereum",
  "devdoc": {
    "kind": "dev",
    "methods": {
      "onERC721Received(address,address,uint256,bytes)": {
        "details": "Whenever an {IERC721} `tokenId` token is transferred to this contract via {IERC721-safeTransferFrom} by `operator` from `from`, this function is called. It must return its Solidity selector to confirm the token transfer. If any other value is returned or the interface is not implemented by the recipient, the transfer will be reverted. The selector can be obtained in Solidity with `IERC721.onERC721Received.selector`."
      }
    },
    "version": 1
  },
  "userdoc": {
    "kind": "user",
    "methods": {},
    "version": 1
  }
}