{
  "contractName": "MarketPlace",
  "abi": [
    {
      "inputs": [],
      "stateMutability": "nonpayable",
      "type": "constructor"
    },
    {
      "anonymous": false,
      "inputs": [
        {
          "indexed": false,
          "internalType": "uint256",
          "name": "_price",
          "type": "uint256"
        },
        {
          "indexed": false,
          "internalType": "address",
          "name": "_currencyCode",
          "type": "address"
        },
        {
          "indexed": false,
          "internalType": "address",
          "name": "_idCollection",
          "type": "address"
        },
        {
          "indexed": false,
          "internalType": "uint256",
          "name": "_idNFT",
          "type": "uint256"
        },
        {
          "indexed": false,
          "internalType": "uint256",
          "name": "orderId",
          "type": "uint256"
        }
      ],
      "name": "AddedAsk",
      "type": "event"
    },
    {
      "anonymous": false,
      "inputs": [
        {
          "indexed": false,
          "internalType": "address",
          "name": "_idCollection",
          "type": "address"
        },
        {
          "indexed": false,
          "internalType": "uint256",
          "name": "_idNFT",
          "type": "uint256"
        },
        {
          "indexed": false,
          "internalType": "uint256",
          "name": "orderID",
          "type": "uint256"
        },
        {
          "indexed": false,
          "internalType": "uint256",
          "name": "orderPrice",
          "type": "uint256"
        }
      ],
      "name": "BoughtNFT",
      "type": "event"
    },
    {
      "anonymous": false,
      "inputs": [
        {
          "indexed": false,
          "internalType": "address",
          "name": "_idCollection",
          "type": "address"
        },
        {
          "indexed": false,
          "internalType": "uint256",
          "name": "_idNFT",
          "type": "uint256"
        },
        {
          "indexed": false,
          "internalType": "uint256",
          "name": "orderID",
          "type": "uint256"
        },
        {
          "indexed": false,
          "internalType": "uint256",
          "name": "orderPrice",
          "type": "uint256"
        }
      ],
      "name": "BoughtNFT4KSM",
      "type": "event"
    },
    {
      "anonymous": false,
      "inputs": [
        {
          "indexed": false,
          "internalType": "address",
          "name": "_idCollection",
          "type": "address"
        },
        {
          "indexed": false,
          "internalType": "uint256",
          "name": "_idNFT",
          "type": "uint256"
        },
        {
          "indexed": false,
          "internalType": "uint256",
          "name": "orderId",
          "type": "uint256"
        }
      ],
      "name": "CanceledAsk",
      "type": "event"
    },
    {
      "anonymous": false,
      "inputs": [
        {
          "indexed": false,
          "internalType": "uint256",
          "name": "_amount",
          "type": "uint256"
        },
        {
          "indexed": false,
          "internalType": "address",
          "name": "_sender",
          "type": "address"
        }
      ],
      "name": "DepositedKSM",
      "type": "event"
    },
    {
      "anonymous": false,
      "inputs": [
        {
          "indexed": false,
          "internalType": "uint256",
          "name": "_price",
          "type": "uint256"
        },
        {
          "indexed": false,
          "internalType": "address",
          "name": "_currencyCode",
          "type": "address"
        },
        {
          "indexed": false,
          "internalType": "address",
          "name": "_idCollection",
          "type": "address"
        },
        {
          "indexed": false,
          "internalType": "uint256",
          "name": "_idNFT",
          "type": "uint256"
        },
        {
          "indexed": false,
          "internalType": "uint8",
          "name": "_active",
          "type": "uint8"
        },
        {
          "indexed": false,
          "internalType": "uint256",
          "name": "orderId",
          "type": "uint256"
        }
      ],
      "name": "EditedAsk",
      "type": "event"
    },
    {
      "anonymous": false,
      "inputs": [
        {
          "indexed": false,
          "internalType": "uint256",
          "name": "_amount",
          "type": "uint256"
        },
        {
          "indexed": false,
          "internalType": "address",
          "name": "_currencyCode",
          "type": "address"
        },
        {
          "indexed": false,
          "internalType": "address",
          "name": "_sender",
          "type": "address"
        }
      ],
      "name": "Withdrawn",
      "type": "event"
    },
    {
      "anonymous": false,
      "inputs": [
        {
          "indexed": false,
          "internalType": "address",
          "name": "_sender",
          "type": "address"
        },
        {
          "indexed": false,
          "internalType": "uint256",
          "name": "balance",
          "type": "uint256"
        }
      ],
      "name": "WithdrawnAllKSM",
      "type": "event"
    },
    {
      "anonymous": false,
      "inputs": [
        {
          "indexed": false,
          "internalType": "address",
          "name": "_sender",
          "type": "address"
        },
        {
          "indexed": false,
          "internalType": "uint256",
          "name": "balance",
          "type": "uint256"
        }
      ],
      "name": "WithdrawnKSM",
      "type": "event"
    },
    {
      "stateMutability": "payable",
      "type": "fallback",
      "payable": true
    },
    {
      "inputs": [
        {
          "internalType": "address",
          "name": "",
          "type": "address"
        },
        {
          "internalType": "uint256",
          "name": "",
          "type": "uint256"
        }
      ],
      "name": "asks",
      "outputs": [
        {
          "internalType": "uint256",
          "name": "",
          "type": "uint256"
        }
      ],
      "stateMutability": "view",
      "type": "function",
      "constant": true
    },
    {
      "inputs": [
        {
          "internalType": "address",
          "name": "",
          "type": "address"
        },
        {
          "internalType": "uint256",
          "name": "",
          "type": "uint256"
        }
      ],
      "name": "asksbySeller",
      "outputs": [
        {
          "internalType": "uint256",
          "name": "",
          "type": "uint256"
        }
      ],
      "stateMutability": "view",
      "type": "function",
      "constant": true
    },
    {
      "inputs": [
        {
          "internalType": "address",
          "name": "",
          "type": "address"
        }
      ],
      "name": "balanceKSM",
      "outputs": [
        {
          "internalType": "uint256",
          "name": "",
          "type": "uint256"
        }
      ],
      "stateMutability": "view",
      "type": "function",
      "constant": true
    },
    {
      "inputs": [
        {
          "internalType": "uint256",
          "name": "",
          "type": "uint256"
        }
      ],
      "name": "orders",
      "outputs": [
        {
          "internalType": "uint256",
          "name": "idNFT",
          "type": "uint256"
        },
        {
          "internalType": "address",
          "name": "currencyCode",
          "type": "address"
        },
        {
          "internalType": "uint256",
          "name": "price",
          "type": "uint256"
        },
        {
          "internalType": "uint256",
          "name": "time",
          "type": "uint256"
        },
        {
          "internalType": "address",
          "name": "idCollection",
          "type": "address"
        },
        {
          "internalType": "address",
          "name": "ownerAddr",
          "type": "address"
        },
        {
          "internalType": "uint8",
          "name": "flagActive",
          "type": "uint8"
        },
        {
          "internalType": "string",
          "name": "name",
          "type": "string"
        },
        {
          "internalType": "string",
          "name": "symbol",
          "type": "string"
        },
        {
          "internalType": "string",
          "name": "tokenURI",
          "type": "string"
        }
      ],
      "stateMutability": "view",
      "type": "function",
      "constant": true
    },
    {
      "inputs": [
        {
          "internalType": "address",
          "name": "",
          "type": "address"
        },
        {
          "internalType": "uint256",
          "name": "",
          "type": "uint256"
        },
        {
          "internalType": "uint256",
          "name": "",
          "type": "uint256"
        }
      ],
      "name": "ordersbyNFT",
      "outputs": [
        {
          "internalType": "uint256",
          "name": "",
          "type": "uint256"
        }
      ],
      "stateMutability": "view",
      "type": "function",
      "constant": true
    },
    {
      "stateMutability": "payable",
      "type": "receive",
      "payable": true
    },
    {
      "inputs": [
        {
          "internalType": "address",
          "name": "_newOwner",
          "type": "address"
        }
      ],
      "name": "setOwner",
      "outputs": [],
      "stateMutability": "nonpayable",
      "type": "function"
    },
    {
      "inputs": [
        {
          "internalType": "address",
          "name": "_escrow",
          "type": "address"
        },
        {
          "internalType": "bool",
          "name": "_state",
          "type": "bool"
        }
      ],
      "name": "setEscrow",
      "outputs": [
        {
          "internalType": "bool",
          "name": "",
          "type": "bool"
        }
      ],
      "stateMutability": "nonpayable",
      "type": "function"
    },
    {
      "inputs": [
        {
          "internalType": "address",
          "name": "_coin",
          "type": "address"
        }
      ],
      "name": "setNativeCoin",
      "outputs": [],
      "stateMutability": "nonpayable",
      "type": "function"
    },
    {
      "inputs": [
        {
          "internalType": "uint256",
          "name": "_price",
          "type": "uint256"
        },
        {
          "internalType": "address",
          "name": "_currencyCode",
          "type": "address"
        },
        {
          "internalType": "address",
          "name": "_idCollection",
          "type": "address"
        },
        {
          "internalType": "uint256",
          "name": "_idNFT",
          "type": "uint256"
        }
      ],
      "name": "addAsk",
      "outputs": [],
      "stateMutability": "nonpayable",
      "type": "function"
    },
    {
      "inputs": [
        {
          "internalType": "uint256",
          "name": "_price",
          "type": "uint256"
        },
        {
          "internalType": "address",
          "name": "_currencyCode",
          "type": "address"
        },
        {
          "internalType": "address",
          "name": "_idCollection",
          "type": "address"
        },
        {
          "internalType": "uint256",
          "name": "_idNFT",
          "type": "uint256"
        },
        {
          "internalType": "uint8",
          "name": "_active",
          "type": "uint8"
        }
      ],
      "name": "editAsk",
      "outputs": [],
      "stateMutability": "nonpayable",
      "type": "function"
    },
    {
      "inputs": [
        {
          "internalType": "address",
          "name": "_idCollection",
          "type": "address"
        },
        {
          "internalType": "uint256",
          "name": "_idNFT",
          "type": "uint256"
        }
      ],
      "name": "cancelAsk",
      "outputs": [],
      "stateMutability": "nonpayable",
      "type": "function"
    },
    {
      "inputs": [
        {
          "internalType": "uint256",
          "name": "_amount",
          "type": "uint256"
        },
        {
          "internalType": "address",
          "name": "_sender",
          "type": "address"
        }
      ],
      "name": "depositKSM",
      "outputs": [],
      "stateMutability": "nonpayable",
      "type": "function"
    },
    {
      "inputs": [
        {
          "internalType": "address",
          "name": "_idCollection",
          "type": "address"
        },
        {
          "internalType": "uint256",
          "name": "_idNFT",
          "type": "uint256"
        },
        {
          "internalType": "address",
          "name": "_buyer",
          "type": "address"
        },
        {
          "internalType": "address",
          "name": "_receiver",
          "type": "address"
        }
      ],
      "name": "buyKSM",
      "outputs": [],
      "stateMutability": "nonpayable",
      "type": "function"
    },
    {
      "inputs": [
        {
          "internalType": "address",
          "name": "_idCollection",
          "type": "address"
        },
        {
          "internalType": "uint256",
          "name": "_idNFT",
          "type": "uint256"
        }
      ],
      "name": "buy",
      "outputs": [
        {
          "internalType": "bool",
          "name": "result",
          "type": "bool"
        }
      ],
      "stateMutability": "payable",
      "type": "function",
      "payable": true
    },
    {
      "inputs": [
        {
          "internalType": "address",
          "name": "_sender",
          "type": "address"
        }
      ],
      "name": "withdrawAllKSM",
      "outputs": [
        {
          "internalType": "uint256",
          "name": "lastBalance",
          "type": "uint256"
        }
      ],
      "stateMutability": "nonpayable",
      "type": "function"
    },
    {
      "inputs": [
        {
          "internalType": "uint256",
          "name": "_amount",
          "type": "uint256"
        },
        {
          "internalType": "address",
          "name": "_sender",
          "type": "address"
        }
      ],
      "name": "withdrawKSM",
      "outputs": [
        {
          "internalType": "uint256",
          "name": "lastBalance",
          "type": "uint256"
        }
      ],
      "stateMutability": "nonpayable",
      "type": "function"
    },
    {
      "inputs": [
        {
          "internalType": "uint256",
          "name": "_amount",
          "type": "uint256"
        },
        {
          "internalType": "address",
          "name": "_currencyCode",
          "type": "address"
        }
      ],
      "name": "withdraw",
      "outputs": [
        {
          "internalType": "bool",
          "name": "result",
          "type": "bool"
        }
      ],
      "stateMutability": "nonpayable",
      "type": "function"
    },
    {
      "inputs": [
        {
          "internalType": "address",
          "name": "_idCollection",
          "type": "address"
        },
        {
          "internalType": "uint256",
          "name": "_idNFT",
          "type": "uint256"
        }
      ],
      "name": "getOrder",
      "outputs": [
        {
          "components": [
            {
              "internalType": "uint256",
              "name": "idNFT",
              "type": "uint256"
            },
            {
              "internalType": "address",
              "name": "currencyCode",
              "type": "address"
            },
            {
              "internalType": "uint256",
              "name": "price",
              "type": "uint256"
            },
            {
              "internalType": "uint256",
              "name": "time",
              "type": "uint256"
            },
            {
              "internalType": "address",
              "name": "idCollection",
              "type": "address"
            },
            {
              "internalType": "address",
              "name": "ownerAddr",
              "type": "address"
            },
            {
              "internalType": "uint8",
              "name": "flagActive",
              "type": "uint8"
            },
            {
              "internalType": "string",
              "name": "name",
              "type": "string"
            },
            {
              "internalType": "string",
              "name": "symbol",
              "type": "string"
            },
            {
              "internalType": "string",
              "name": "tokenURI",
              "type": "string"
            }
          ],
          "internalType": "struct MarketPlace.Order",
          "name": "",
          "type": "tuple"
        }
      ],
      "stateMutability": "view",
      "type": "function",
      "constant": true
    },
    {
      "inputs": [],
      "name": "getOrdersLen",
      "outputs": [
        {
          "internalType": "uint256",
          "name": "",
          "type": "uint256"
        }
      ],
      "stateMutability": "view",
      "type": "function",
      "constant": true
    },
    {
      "inputs": [
        {
          "internalType": "address",
          "name": "operator",
          "type": "address"
        },
        {
          "internalType": "address",
          "name": "from",
          "type": "address"
        },
        {
          "internalType": "uint256",
          "name": "tokenId",
          "type": "uint256"
        },
        {
          "internalType": "bytes",
          "name": "data",
          "type": "bytes"
        }
      ],
      "name": "onERC721Received",
      "outputs": [
        {
          "internalType": "bytes4",
          "name": "",
          "type": "bytes4"
        }
      ],
      "stateMutability": "pure",
      "type": "function",
      "constant": true
    },
    {
      "inputs": [
        {
          "internalType": "address[]",
          "name": "tokens",
          "type": "address[]"
        },
        {
          "components": [
            {
              "internalType": "address",
              "name": "collection",
              "type": "address"
            },
            {
              "internalType": "uint256",
              "name": "id",
              "type": "uint256"
            }
          ],
          "internalType": "struct MarketPlace.NFT[]",
          "name": "nfts",
          "type": "tuple[]"
        }
      ],
      "name": "terminate",
      "outputs": [],
      "stateMutability": "nonpayable",
      "type": "function"
    }
  ],
  "bytecode": "0x60806040523480156200001157600080fd5b5033600760006101000a81548173ffffffffffffffffffffffffffffffffffffffff021916908373ffffffffffffffffffffffffffffffffffffffff160217905550600060405180610140016040528060008152602001600073ffffffffffffffffffffffffffffffffffffffff1681526020016000815260200160008152602001600073ffffffffffffffffffffffffffffffffffffffff168152602001600073ffffffffffffffffffffffffffffffffffffffff168152602001600060ff1681526020016040518060200160405280600081525081526020016040518060200160405280600081525081526020016040518060200160405280600081525081525090806001815401808255809150506001900390600052602060002090600902016000909190919091506000820151816000015560208201518160010160006101000a81548173ffffffffffffffffffffffffffffffffffffffff021916908373ffffffffffffffffffffffffffffffffffffffff160217905550604082015181600201556060820151816003015560808201518160040160006101000a81548173ffffffffffffffffffffffffffffffffffffffff021916908373ffffffffffffffffffffffffffffffffffffffff16021790555060a08201518160050160006101000a81548173ffffffffffffffffffffffffffffffffffffffff021916908373ffffffffffffffffffffffffffffffffffffffff16021790555060c08201518160050160146101000a81548160ff021916908360ff16021790555060e08201518160060190805190602001906200026f929190620002d4565b506101008201518160070190805190602001906200028f929190620002d4565b50610120820151816008019080519060200190620002af929190620002d4565b5050506001600860146101000a81548160ff021916908360ff160217905550620003e9565b828054620002e29062000384565b90600052602060002090601f01602090048101928262000306576000855562000352565b82601f106200032157805160ff191683800117855562000352565b8280016001018555821562000352579182015b828111156200035157825182559160200191906001019062000334565b5b50905062000361919062000365565b5090565b5b808211156200038057600081600090555060010162000366565b5090565b600060028204905060018216806200039d57607f821691505b60208210811415620003b457620003b3620003ba565b5b50919050565b7f4e487b7100000000000000000000000000000000000000000000000000000000600052602260045260246000fd5b614c0280620003f96000396000f3fe60806040526004361061012d5760003560e01c80636c85b625116100ab578063a85c38ef1161006f578063a85c38ef146104f4578063b4c3e8ea1461053a578063cce7ec1314610577578063e22d4f7d146105a7578063edb25841146105e4578063fd8868c714610621576101c4565b80636c85b625146103fd578063791bd866146104265780638c088f001461044f57806393cdd3341461047a57806399f2d4eb146104b7576101c4565b806337c4eb58116100f257806337c4eb581461031c5780633ce617561461034557806340b807461461036e57806341fd6790146103975780636b084b25146103d4576101c4565b8062f714ce146101ff57806313af40351461023c578063150b7a021461026557806322423404146102a2578063229003ec146102df576101c4565b366101c457600760009054906101000a900473ffffffffffffffffffffffffffffffffffffffff1673ffffffffffffffffffffffffffffffffffffffff163373ffffffffffffffffffffffffffffffffffffffff16146101c2576040517f08c379a00000000000000000000000000000000000000000000000000000000081526004016101b9906143c1565b60405180910390fd5b005b6040517f08c379a00000000000000000000000000000000000000000000000000000000081526004016101f690614401565b60405180910390fd5b34801561020b57600080fd5b5061022660048036038101906102219190613d14565b61064a565b6040516102339190614289565b60405180910390f35b34801561024857600080fd5b50610263600480360381019061025e91906139e7565b610844565b005b34801561027157600080fd5b5061028c60048036038101906102879190613a39565b610918565b60405161029991906142a4565b60405180910390f35b3480156102ae57600080fd5b506102c960048036038101906102c49190613d14565b610946565b6040516102d69190614443565b60405180910390f35b3480156102eb57600080fd5b5061030660048036038101906103019190613ab9565b610a67565b6040516103139190614289565b60405180910390f35b34801561032857600080fd5b50610343600480360381019061033e9190613d50565b610bbb565b005b34801561035157600080fd5b5061036c600480360381019061036791906139e7565b61124a565b005b34801561037a57600080fd5b5061039560048036038101906103909190613af5565b61131e565b005b3480156103a357600080fd5b506103be60048036038101906103b99190613b94565b6116b8565b6040516103cb9190614443565b60405180910390f35b3480156103e057600080fd5b506103fb60048036038101906103f69190613db3565b6116f6565b005b34801561040957600080fd5b50610424600480360381019061041f9190613be3565b611ad8565b005b34801561043257600080fd5b5061044d60048036038101906104489190613d14565b611ee1565b005b34801561045b57600080fd5b5061046461203f565b6040516104719190614443565b60405180910390f35b34801561048657600080fd5b506104a1600480360381019061049c91906139e7565b61204b565b6040516104ae9190614443565b60405180910390f35b3480156104c357600080fd5b506104de60048036038101906104d99190613af5565b612265565b6040516104eb9190614443565b60405180910390f35b34801561050057600080fd5b5061051b60048036038101906105169190613cc2565b612296565b6040516105319a99989796959493929190614572565b60405180910390f35b34801561054657600080fd5b50610561600480360381019061055c91906139e7565b6124ff565b60405161056e9190614443565b60405180910390f35b610591600480360381019061058c9190613af5565b612517565b60405161059e9190614289565b60405180910390f35b3480156105b357600080fd5b506105ce60048036038101906105c99190613af5565b612af3565b6040516105db9190614443565b60405180910390f35b3480156105f057600080fd5b5061060b60048036038101906106069190613af5565b612b18565b6040516106189190614421565b60405180910390f35b34801561062d57600080fd5b5061064860048036038101906106439190613b31565b612eca565b005b6000600260ff16600860149054906101000a900460ff1660ff1614156106a5576040517f08c379a000000000000000000000000000000000000000000000000000000000815260040161069c906143e1565b60405180910390fd5b6002600860146101000a81548160ff021916908360ff1602179055506000339050600860009054906101000a900473ffffffffffffffffffffffffffffffffffffffff1673ffffffffffffffffffffffffffffffffffffffff168373ffffffffffffffffffffffffffffffffffffffff16146107ae578273ffffffffffffffffffffffffffffffffffffffff1663a9059cbb82866040518363ffffffff1660e01b8152600401610756929190614184565b602060405180830381600087803b15801561077057600080fd5b505af1158015610784573d6000803e3d6000fd5b505050506040513d601f19601f820116820180604052508101906107a89190613c58565b506107e6565b8073ffffffffffffffffffffffffffffffffffffffff166108fc859081150290604051600060405180830381858888f1935050505091505b7fb524bace85e4ce0f8da306e32f39263c5724780ca00b7551c051c8e3dc36adaf84848360405161081993929190614487565b60405180910390a1506001600860146101000a81548160ff021916908360ff16021790555092915050565b600760009054906101000a900473ffffffffffffffffffffffffffffffffffffffff1673ffffffffffffffffffffffffffffffffffffffff163373ffffffffffffffffffffffffffffffffffffffff16146108d4576040517f08c379a00000000000000000000000000000000000000000000000000000000081526004016108cb906143c1565b60405180910390fd5b80600760006101000a81548173ffffffffffffffffffffffffffffffffffffffff021916908373ffffffffffffffffffffffffffffffffffffffff16021790555050565b60007f150b7a023d4804d13e8c85fb27262cb750cf6ba9f9dd3bb30d90f482ceeb4b1f905095945050505050565b6000600660003373ffffffffffffffffffffffffffffffffffffffff1673ffffffffffffffffffffffffffffffffffffffff16815260200190815260200160002060009054906101000a900460ff166109d4576040517f08c379a00000000000000000000000000000000000000000000000000000000081526004016109cb90614301565b60405180910390fd5b610a2683600260008573ffffffffffffffffffffffffffffffffffffffff1673ffffffffffffffffffffffffffffffffffffffff1681526020019081526020016000205461365290919063ffffffff16565b90507f8f0e5e76c8c320276261215f096e3d3a21af66eaa72e646ce6351e07e28e2e1a8282604051610a599291906141e4565b60405180910390a192915050565b6000600760009054906101000a900473ffffffffffffffffffffffffffffffffffffffff1673ffffffffffffffffffffffffffffffffffffffff163373ffffffffffffffffffffffffffffffffffffffff1614610af9576040517f08c379a0000000000000000000000000000000000000000000000000000000008152600401610af0906143c1565b60405180910390fd5b811515600660008573ffffffffffffffffffffffffffffffffffffffff1673ffffffffffffffffffffffffffffffffffffffff16815260200190815260200160002060009054906101000a900460ff16151514610bb05781600660008573ffffffffffffffffffffffffffffffffffffffff1673ffffffffffffffffffffffffffffffffffffffff16815260200190815260200160002060006101000a81548160ff02191690831515021790555060019050610bb5565b600090505b92915050565b60008273ffffffffffffffffffffffffffffffffffffffff16636352211e836040518263ffffffff1660e01b8152600401610bf69190614443565b60206040518083038186803b158015610c0e57600080fd5b505afa158015610c22573d6000803e3d6000fd5b505050506040513d601f19601f82011682018060405250810190610c469190613a10565b90503373ffffffffffffffffffffffffffffffffffffffff168173ffffffffffffffffffffffffffffffffffffffff1614610cb6576040517f08c379a0000000000000000000000000000000000000000000000000000000008152600401610cad90614341565b60405180910390fd5b60608060608573ffffffffffffffffffffffffffffffffffffffff166306fdde036040518163ffffffff1660e01b815260040160006040518083038186803b158015610d0157600080fd5b505afa925050508015610d3757506040513d6000823e3d601f19601f82011682018060405250810190610d349190613c81565b60015b610d5257604051806020016040528060008152509250610d57565b809350505b8573ffffffffffffffffffffffffffffffffffffffff166395d89b416040518163ffffffff1660e01b815260040160006040518083038186803b158015610d9d57600080fd5b505afa925050508015610dd357506040513d6000823e3d601f19601f82011682018060405250810190610dd09190613c81565b60015b610dee57604051806020016040528060008152509150610df3565b809250505b8573ffffffffffffffffffffffffffffffffffffffff1663c87b56dd866040518263ffffffff1660e01b8152600401610e2c9190614443565b60006040518083038186803b158015610e4457600080fd5b505afa925050508015610e7a57506040513d6000823e3d601f19601f82011682018060405250810190610e779190613c81565b60015b610e9557604051806020016040528060008152509050610e9a565b809150505b60006040518061014001604052808781526020018973ffffffffffffffffffffffffffffffffffffffff1681526020018a81526020014281526020018873ffffffffffffffffffffffffffffffffffffffff1681526020013373ffffffffffffffffffffffffffffffffffffffff168152602001600160ff1681526020018581526020018481526020018381525090806001815401808255809150506001900390600052602060002090600902016000909190919091506000820151816000015560208201518160010160006101000a81548173ffffffffffffffffffffffffffffffffffffffff021916908373ffffffffffffffffffffffffffffffffffffffff160217905550604082015181600201556060820151816003015560808201518160040160006101000a81548173ffffffffffffffffffffffffffffffffffffffff021916908373ffffffffffffffffffffffffffffffffffffffff16021790555060a08201518160050160006101000a81548173ffffffffffffffffffffffffffffffffffffffff021916908373ffffffffffffffffffffffffffffffffffffffff16021790555060c08201518160050160146101000a81548160ff021916908360ff16021790555060e08201518160060190805190602001906110819291906136d3565b5061010082015181600701908051906020019061109f9291906136d3565b506101208201518160080190805190602001906110bd9291906136d3565b505050600060016000805490506110d491906146fc565b905080600360008973ffffffffffffffffffffffffffffffffffffffff1673ffffffffffffffffffffffffffffffffffffffff168152602001908152602001600020600088815260200190815260200160002081905550600560003373ffffffffffffffffffffffffffffffffffffffff1673ffffffffffffffffffffffffffffffffffffffff1681526020019081526020016000208190806001815401808255809150506001900390600052602060002001600090919091909150558673ffffffffffffffffffffffffffffffffffffffff166323b872dd3330896040518463ffffffff1660e01b81526004016111ce939291906141ad565b600060405180830381600087803b1580156111e857600080fd5b505af11580156111fc573d6000803e3d6000fd5b505050507f83b3a8754d705365b581ab63c329c1e55255a22aa78c67b5fcef378bfb2d9b9989898989856040516112379594939291906144be565b60405180910390a1505050505050505050565b600760009054906101000a900473ffffffffffffffffffffffffffffffffffffffff1673ffffffffffffffffffffffffffffffffffffffff163373ffffffffffffffffffffffffffffffffffffffff16146112da576040517f08c379a00000000000000000000000000000000000000000000000000000000081526004016112d1906143c1565b60405180910390fd5b80600860006101000a81548173ffffffffffffffffffffffffffffffffffffffff021916908373ffffffffffffffffffffffffffffffffffffffff16021790555050565b6000600360008473ffffffffffffffffffffffffffffffffffffffff1673ffffffffffffffffffffffffffffffffffffffff16815260200190815260200160002060008381526020019081526020016000205490503373ffffffffffffffffffffffffffffffffffffffff16600082815481106113c4577f4e487b7100000000000000000000000000000000000000000000000000000000600052603260045260246000fd5b906000526020600020906009020160050160009054906101000a900473ffffffffffffffffffffffffffffffffffffffff1673ffffffffffffffffffffffffffffffffffffffff161461144c576040517f08c379a000000000000000000000000000000000000000000000000000000000815260040161144390614321565b60405180910390fd5b6000808281548110611487577f4e487b7100000000000000000000000000000000000000000000000000000000600052603260045260246000fd5b906000526020600020906009020160050160149054906101000a900460ff1660ff1614156114ea576040517f08c379a00000000000000000000000000000000000000000000000000000000081526004016114e1906142e1565b60405180910390fd5b4260008281548110611525577f4e487b7100000000000000000000000000000000000000000000000000000000600052603260045260246000fd5b9060005260206000209060090201600301819055506000808281548110611575577f4e487b7100000000000000000000000000000000000000000000000000000000600052603260045260246000fd5b906000526020600020906009020160050160146101000a81548160ff021916908360ff1602179055508273ffffffffffffffffffffffffffffffffffffffff166323b872dd30600084815481106115f5577f4e487b7100000000000000000000000000000000000000000000000000000000600052603260045260246000fd5b906000526020600020906009020160050160009054906101000a900473ffffffffffffffffffffffffffffffffffffffff16856040518463ffffffff1660e01b8152600401611646939291906141ad565b600060405180830381600087803b15801561166057600080fd5b505af1158015611674573d6000803e3d6000fd5b505050507f6330f58b476cc7f9dd8db8130a0fbb49b291ebc32531eb36e9646f56ee20174b8383836040516116ab9392919061420d565b60405180910390a1505050565b600460205282600052604060002060205281600052604060002081815481106116e057600080fd5b9060005260206000200160009250925050505481565b6000600360008573ffffffffffffffffffffffffffffffffffffffff1673ffffffffffffffffffffffffffffffffffffffff16815260200190815260200160002060008481526020019081526020016000205490503373ffffffffffffffffffffffffffffffffffffffff166000828154811061179c577f4e487b7100000000000000000000000000000000000000000000000000000000600052603260045260246000fd5b906000526020600020906009020160050160009054906101000a900473ffffffffffffffffffffffffffffffffffffffff1673ffffffffffffffffffffffffffffffffffffffff1614611824576040517f08c379a000000000000000000000000000000000000000000000000000000000815260040161181b90614321565b60405180910390fd5b600080828154811061185f577f4e487b7100000000000000000000000000000000000000000000000000000000600052603260045260246000fd5b906000526020600020906009020160050160149054906101000a900460ff1660ff1614156118c2576040517f08c379a00000000000000000000000000000000000000000000000000000000081526004016118b9906142e1565b60405180910390fd5b600086111561191c578560008281548110611906577f4e487b7100000000000000000000000000000000000000000000000000000000600052603260045260246000fd5b9060005260206000209060090201600201819055505b600073ffffffffffffffffffffffffffffffffffffffff168573ffffffffffffffffffffffffffffffffffffffff16146119db57846000828154811061198b577f4e487b7100000000000000000000000000000000000000000000000000000000600052603260045260246000fd5b906000526020600020906009020160010160006101000a81548173ffffffffffffffffffffffffffffffffffffffff021916908373ffffffffffffffffffffffffffffffffffffffff1602179055505b4260008281548110611a16577f4e487b7100000000000000000000000000000000000000000000000000000000600052603260045260246000fd5b9060005260206000209060090201600301819055508160008281548110611a66577f4e487b7100000000000000000000000000000000000000000000000000000000600052603260045260246000fd5b906000526020600020906009020160050160146101000a81548160ff021916908360ff1602179055507f04211d838289b72af597bf28a4ccff5a30d6056f5fce2eddb127ab4ffea0963d868686868686604051611ac896959493929190614511565b60405180910390a1505050505050565b600760009054906101000a900473ffffffffffffffffffffffffffffffffffffffff1673ffffffffffffffffffffffffffffffffffffffff163373ffffffffffffffffffffffffffffffffffffffff1614611b68576040517f08c379a0000000000000000000000000000000000000000000000000000000008152600401611b5f906143c1565b60405180910390fd5b60005b84849050811015611d20576000858583818110611bb1577f4e487b7100000000000000000000000000000000000000000000000000000000600052603260045260246000fd5b9050602002016020810190611bc691906139e7565b9050600081905060008173ffffffffffffffffffffffffffffffffffffffff166370a08231306040518263ffffffff1660e01b8152600401611c089190614169565b60206040518083038186803b158015611c2057600080fd5b505afa158015611c34573d6000803e3d6000fd5b505050506040513d601f19601f82011682018060405250810190611c589190613ceb565b90508173ffffffffffffffffffffffffffffffffffffffff1663a9059cbb600760009054906101000a900473ffffffffffffffffffffffffffffffffffffffff16836040518363ffffffff1660e01b8152600401611cb79291906141e4565b602060405180830381600087803b158015611cd157600080fd5b505af1158015611ce5573d6000803e3d6000fd5b505050506040513d601f19601f82011682018060405250810190611d099190613c58565b505050508080611d189061487d565b915050611b6b565b5060005b82829050811015611eda576000838383818110611d6a577f4e487b7100000000000000000000000000000000000000000000000000000000600052603260045260246000fd5b9050604002016000016020810190611d8291906139e7565b905060008190508073ffffffffffffffffffffffffffffffffffffffff166323b872dd30600760009054906101000a900473ffffffffffffffffffffffffffffffffffffffff16888888818110611e02577f4e487b7100000000000000000000000000000000000000000000000000000000600052603260045260246000fd5b905060400201602001356040518463ffffffff1660e01b8152600401611e2a939291906141ad565b600060405180830381600087803b158015611e4457600080fd5b505af1158015611e58573d6000803e3d6000fd5b50505050600760009054906101000a900473ffffffffffffffffffffffffffffffffffffffff1673ffffffffffffffffffffffffffffffffffffffff166108fc479081150290604051600060405180830381858888f19350505050158015611ec4573d6000803e3d6000fd5b5050508080611ed29061487d565b915050611d24565b5050505050565b600660003373ffffffffffffffffffffffffffffffffffffffff1673ffffffffffffffffffffffffffffffffffffffff16815260200190815260200160002060009054906101000a900460ff16611f6d576040517f08c379a0000000000000000000000000000000000000000000000000000000008152600401611f6490614301565b60405180910390fd5b611fbf82600260008473ffffffffffffffffffffffffffffffffffffffff1673ffffffffffffffffffffffffffffffffffffffff1681526020019081526020016000205461366890919063ffffffff16565b600260008373ffffffffffffffffffffffffffffffffffffffff1673ffffffffffffffffffffffffffffffffffffffff168152602001908152602001600020819055507f291ce0b690061cb1b3f1111bf6500efe526983251fb0f863251ec3670d035fc4828260405161203392919061445e565b60405180910390a15050565b60008080549050905090565b6000600260ff16600860149054906101000a900460ff1660ff1614156120a6576040517f08c379a000000000000000000000000000000000000000000000000000000000815260040161209d906143e1565b60405180910390fd5b6002600860146101000a81548160ff021916908360ff160217905550600660003373ffffffffffffffffffffffffffffffffffffffff1673ffffffffffffffffffffffffffffffffffffffff16815260200190815260200160002060009054906101000a900460ff168061214557508173ffffffffffffffffffffffffffffffffffffffff163373ffffffffffffffffffffffffffffffffffffffff16145b612184576040517f08c379a000000000000000000000000000000000000000000000000000000000815260040161217b906143a1565b60405180910390fd5b600260008373ffffffffffffffffffffffffffffffffffffffff1673ffffffffffffffffffffffffffffffffffffffff1681526020019081526020016000205490506000600260008473ffffffffffffffffffffffffffffffffffffffff1673ffffffffffffffffffffffffffffffffffffffff168152602001908152602001600020819055507f027aeacbc6fbfa7fe735ff8f14a600469ad1a3197ce1c8c8a159641cf68fe592828260405161223c9291906141e4565b60405180910390a16001600860146101000a81548160ff021916908360ff160217905550919050565b6005602052816000526040600020818154811061228157600080fd5b90600052602060002001600091509150505481565b600081815481106122a657600080fd5b90600052602060002090600902016000915090508060000154908060010160009054906101000a900473ffffffffffffffffffffffffffffffffffffffff16908060020154908060030154908060040160009054906101000a900473ffffffffffffffffffffffffffffffffffffffff16908060050160009054906101000a900473ffffffffffffffffffffffffffffffffffffffff16908060050160149054906101000a900460ff16908060060180546123609061481a565b80601f016020809104026020016040519081016040528092919081815260200182805461238c9061481a565b80156123d95780601f106123ae576101008083540402835291602001916123d9565b820191906000526020600020905b8154815290600101906020018083116123bc57829003601f168201915b5050505050908060070180546123ee9061481a565b80601f016020809104026020016040519081016040528092919081815260200182805461241a9061481a565b80156124675780601f1061243c57610100808354040283529160200191612467565b820191906000526020600020905b81548152906001019060200180831161244a57829003601f168201915b50505050509080600801805461247c9061481a565b80601f01602080910402602001604051908101604052809291908181526020018280546124a89061481a565b80156124f55780601f106124ca576101008083540402835291602001916124f5565b820191906000526020600020905b8154815290600101906020018083116124d857829003601f168201915b505050505090508a565b60026020528060005260406000206000915090505481565b6000806000600360008673ffffffffffffffffffffffffffffffffffffffff1673ffffffffffffffffffffffffffffffffffffffff168152602001908152602001600020600085815260200190815260200160002054815481106125a4577f4e487b7100000000000000000000000000000000000000000000000000000000600052603260045260246000fd5b906000526020600020906009020160405180610140016040529081600082015481526020016001820160009054906101000a900473ffffffffffffffffffffffffffffffffffffffff1673ffffffffffffffffffffffffffffffffffffffff1673ffffffffffffffffffffffffffffffffffffffff16815260200160028201548152602001600382015481526020016004820160009054906101000a900473ffffffffffffffffffffffffffffffffffffffff1673ffffffffffffffffffffffffffffffffffffffff1673ffffffffffffffffffffffffffffffffffffffff1681526020016005820160009054906101000a900473ffffffffffffffffffffffffffffffffffffffff1673ffffffffffffffffffffffffffffffffffffffff1673ffffffffffffffffffffffffffffffffffffffff1681526020016005820160149054906101000a900460ff1660ff1660ff16815260200160068201805461270b9061481a565b80601f01602080910402602001604051908101604052809291908181526020018280546127379061481a565b80156127845780601f1061275957610100808354040283529160200191612784565b820191906000526020600020905b81548152906001019060200180831161276757829003601f168201915b5050505050815260200160078201805461279d9061481a565b80601f01602080910402602001604051908101604052809291908181526020018280546127c99061481a565b80156128165780601f106127eb57610100808354040283529160200191612816565b820191906000526020600020905b8154815290600101906020018083116127f957829003601f168201915b5050505050815260200160088201805461282f9061481a565b80601f016020809104026020016040519081016040528092919081815260200182805461285b9061481a565b80156128a85780601f1061287d576101008083540402835291602001916128a8565b820191906000526020600020905b81548152906001019060200180831161288b57829003601f168201915b5050505050815250509050806040015134146128f9576040517f08c379a00000000000000000000000000000000000000000000000000000000081526004016128f090614381565b60405180910390fd5b600080600360008773ffffffffffffffffffffffffffffffffffffffff1673ffffffffffffffffffffffffffffffffffffffff16815260200190815260200160002060008681526020019081526020016000205481548110612984577f4e487b7100000000000000000000000000000000000000000000000000000000600052603260045260246000fd5b906000526020600020906009020160050160146101000a81548160ff021916908360ff1602179055508373ffffffffffffffffffffffffffffffffffffffff166323b872dd3033866040518463ffffffff1660e01b81526004016129ea939291906141ad565b600060405180830381600087803b158015612a0457600080fd5b505af1158015612a18573d6000803e3d6000fd5b505050508060a0015173ffffffffffffffffffffffffffffffffffffffff166108fc82604001519081150290604051600060405180830381858888f1935050505091507fc220cf2a12d6492e23ed1141c55018997799699d009b00ebd5a4874c60f5c31e8484600360008873ffffffffffffffffffffffffffffffffffffffff1673ffffffffffffffffffffffffffffffffffffffff1681526020019081526020016000206000878152602001908152602001600020548460400151604051612ae49493929190614244565b60405180910390a15092915050565b6003602052816000526040600020602052806000526040600020600091509150505481565b612b20613759565b6000600360008573ffffffffffffffffffffffffffffffffffffffff1673ffffffffffffffffffffffffffffffffffffffff16815260200190815260200160002060008481526020019081526020016000205490506000808281548110612bb0577f4e487b7100000000000000000000000000000000000000000000000000000000600052603260045260246000fd5b906000526020600020906009020160405180610140016040529081600082015481526020016001820160009054906101000a900473ffffffffffffffffffffffffffffffffffffffff1673ffffffffffffffffffffffffffffffffffffffff1673ffffffffffffffffffffffffffffffffffffffff16815260200160028201548152602001600382015481526020016004820160009054906101000a900473ffffffffffffffffffffffffffffffffffffffff1673ffffffffffffffffffffffffffffffffffffffff1673ffffffffffffffffffffffffffffffffffffffff1681526020016005820160009054906101000a900473ffffffffffffffffffffffffffffffffffffffff1673ffffffffffffffffffffffffffffffffffffffff1673ffffffffffffffffffffffffffffffffffffffff1681526020016005820160149054906101000a900460ff1660ff1660ff168152602001600682018054612d179061481a565b80601f0160208091040260200160405190810160405280929190818152602001828054612d439061481a565b8015612d905780601f10612d6557610100808354040283529160200191612d90565b820191906000526020600020905b815481529060010190602001808311612d7357829003601f168201915b50505050508152602001600782018054612da99061481a565b80601f0160208091040260200160405190810160405280929190818152602001828054612dd59061481a565b8015612e225780601f10612df757610100808354040283529160200191612e22565b820191906000526020600020905b815481529060010190602001808311612e0557829003601f168201915b50505050508152602001600882018054612e3b9061481a565b80601f0160208091040260200160405190810160405280929190818152602001828054612e679061481a565b8015612eb45780601f10612e8957610100808354040283529160200191612eb4565b820191906000526020600020905b815481529060010190602001808311612e9757829003601f168201915b5050505050815250509050809250505092915050565b600080600360008773ffffffffffffffffffffffffffffffffffffffff1673ffffffffffffffffffffffffffffffffffffffff16815260200190815260200160002060008681526020019081526020016000205481548110612f55577f4e487b7100000000000000000000000000000000000000000000000000000000600052603260045260246000fd5b906000526020600020906009020160405180610140016040529081600082015481526020016001820160009054906101000a900473ffffffffffffffffffffffffffffffffffffffff1673ffffffffffffffffffffffffffffffffffffffff1673ffffffffffffffffffffffffffffffffffffffff16815260200160028201548152602001600382015481526020016004820160009054906101000a900473ffffffffffffffffffffffffffffffffffffffff1673ffffffffffffffffffffffffffffffffffffffff1673ffffffffffffffffffffffffffffffffffffffff1681526020016005820160009054906101000a900473ffffffffffffffffffffffffffffffffffffffff1673ffffffffffffffffffffffffffffffffffffffff1673ffffffffffffffffffffffffffffffffffffffff1681526020016005820160149054906101000a900460ff1660ff1660ff1681526020016006820180546130bc9061481a565b80601f01602080910402602001604051908101604052809291908181526020018280546130e89061481a565b80156131355780601f1061310a57610100808354040283529160200191613135565b820191906000526020600020905b81548152906001019060200180831161311857829003601f168201915b5050505050815260200160078201805461314e9061481a565b80601f016020809104026020016040519081016040528092919081815260200182805461317a9061481a565b80156131c75780601f1061319c576101008083540402835291602001916131c7565b820191906000526020600020905b8154815290600101906020018083116131aa57829003601f168201915b505050505081526020016008820180546131e09061481a565b80601f016020809104026020016040519081016040528092919081815260200182805461320c9061481a565b80156132595780601f1061322e57610100808354040283529160200191613259565b820191906000526020600020905b81548152906001019060200180831161323c57829003601f168201915b5050505050815250509050600660003373ffffffffffffffffffffffffffffffffffffffff1673ffffffffffffffffffffffffffffffffffffffff16815260200190815260200160002060009054906101000a900460ff16806132e757508273ffffffffffffffffffffffffffffffffffffffff163373ffffffffffffffffffffffffffffffffffffffff16145b613326576040517f08c379a000000000000000000000000000000000000000000000000000000000815260040161331d90614361565b60405180910390fd5b6133b381604001516040518060400160405280601981526020017f496e737563636966696369656e74204b534d732066756e647300000000000000815250600260008773ffffffffffffffffffffffffffffffffffffffff1673ffffffffffffffffffffffffffffffffffffffff1681526020019081526020016000205461367e9092919063ffffffff16565b600260008573ffffffffffffffffffffffffffffffffffffffff1673ffffffffffffffffffffffffffffffffffffffff168152602001908152602001600020819055506134508160400151600260008460a0015173ffffffffffffffffffffffffffffffffffffffff1673ffffffffffffffffffffffffffffffffffffffff1681526020019081526020016000205461366890919063ffffffff16565b600260008360a0015173ffffffffffffffffffffffffffffffffffffffff1673ffffffffffffffffffffffffffffffffffffffff16815260200190815260200160002081905550600080600360008873ffffffffffffffffffffffffffffffffffffffff1673ffffffffffffffffffffffffffffffffffffffff16815260200190815260200160002060008781526020019081526020016000205481548110613522577f4e487b7100000000000000000000000000000000000000000000000000000000600052603260045260246000fd5b906000526020600020906009020160050160146101000a81548160ff021916908360ff1602179055508473ffffffffffffffffffffffffffffffffffffffff166323b872dd3084876040518463ffffffff1660e01b8152600401613588939291906141ad565b600060405180830381600087803b1580156135a257600080fd5b505af11580156135b6573d6000803e3d6000fd5b505050507f68bdd3548f3f05742b376651745ca73472eb18f2230f64b893d7a48e575eb0148585600360008973ffffffffffffffffffffffffffffffffffffffff1673ffffffffffffffffffffffffffffffffffffffff16815260200190815260200160002060008881526020019081526020016000205484604001516040516136439493929190614244565b60405180910390a15050505050565b6000818361366091906146fc565b905092915050565b6000818361367691906146a6565b905092915050565b60008383111582906136c6576040517f08c379a00000000000000000000000000000000000000000000000000000000081526004016136bd91906142bf565b60405180910390fd5b5082840390509392505050565b8280546136df9061481a565b90600052602060002090601f0160209004810192826137015760008555613748565b82601f1061371a57805160ff1916838001178555613748565b82800160010185558215613748579182015b8281111561374757825182559160200191906001019061372c565b5b50905061375591906137f1565b5090565b60405180610140016040528060008152602001600073ffffffffffffffffffffffffffffffffffffffff1681526020016000815260200160008152602001600073ffffffffffffffffffffffffffffffffffffffff168152602001600073ffffffffffffffffffffffffffffffffffffffff168152602001600060ff1681526020016060815260200160608152602001606081525090565b5b8082111561380a5760008160009055506001016137f2565b5090565b600061382161381c84614648565b614623565b90508281526020810184848401111561383957600080fd5b6138448482856147e7565b509392505050565b60008135905061385b81614b70565b92915050565b60008151905061387081614b70565b92915050565b60008083601f84011261388857600080fd5b8235905067ffffffffffffffff8111156138a157600080fd5b6020830191508360208202830111156138b957600080fd5b9250929050565b60008083601f8401126138d257600080fd5b8235905067ffffffffffffffff8111156138eb57600080fd5b60208301915083604082028301111561390357600080fd5b9250929050565b60008135905061391981614b87565b92915050565b60008151905061392e81614b87565b92915050565b60008083601f84011261394657600080fd5b8235905067ffffffffffffffff81111561395f57600080fd5b60208301915083600182028301111561397757600080fd5b9250929050565b600082601f83011261398f57600080fd5b815161399f84826020860161380e565b91505092915050565b6000813590506139b781614b9e565b92915050565b6000815190506139cc81614b9e565b92915050565b6000813590506139e181614bb5565b92915050565b6000602082840312156139f957600080fd5b6000613a078482850161384c565b91505092915050565b600060208284031215613a2257600080fd5b6000613a3084828501613861565b91505092915050565b600080600080600060808688031215613a5157600080fd5b6000613a5f8882890161384c565b9550506020613a708882890161384c565b9450506040613a81888289016139a8565b935050606086013567ffffffffffffffff811115613a9e57600080fd5b613aaa88828901613934565b92509250509295509295909350565b60008060408385031215613acc57600080fd5b6000613ada8582860161384c565b9250506020613aeb8582860161390a565b9150509250929050565b60008060408385031215613b0857600080fd5b6000613b168582860161384c565b9250506020613b27858286016139a8565b9150509250929050565b60008060008060808587031215613b4757600080fd5b6000613b558782880161384c565b9450506020613b66878288016139a8565b9350506040613b778782880161384c565b9250506060613b888782880161384c565b91505092959194509250565b600080600060608486031215613ba957600080fd5b6000613bb78682870161384c565b9350506020613bc8868287016139a8565b9250506040613bd9868287016139a8565b9150509250925092565b60008060008060408587031215613bf957600080fd5b600085013567ffffffffffffffff811115613c1357600080fd5b613c1f87828801613876565b9450945050602085013567ffffffffffffffff811115613c3e57600080fd5b613c4a878288016138c0565b925092505092959194509250565b600060208284031215613c6a57600080fd5b6000613c788482850161391f565b91505092915050565b600060208284031215613c9357600080fd5b600082015167ffffffffffffffff811115613cad57600080fd5b613cb98482850161397e565b91505092915050565b600060208284031215613cd457600080fd5b6000613ce2848285016139a8565b91505092915050565b600060208284031215613cfd57600080fd5b6000613d0b848285016139bd565b91505092915050565b60008060408385031215613d2757600080fd5b6000613d35858286016139a8565b9250506020613d468582860161384c565b9150509250929050565b60008060008060808587031215613d6657600080fd5b6000613d74878288016139a8565b9450506020613d858782880161384c565b9350506040613d968782880161384c565b9250506060613da7878288016139a8565b91505092959194509250565b600080600080600060a08688031215613dcb57600080fd5b6000613dd9888289016139a8565b9550506020613dea8882890161384c565b9450506040613dfb8882890161384c565b9350506060613e0c888289016139a8565b9250506080613e1d888289016139d2565b9150509295509295909350565b613e33816147b1565b82525050565b613e4281614730565b82525050565b613e5181614730565b82525050565b613e6081614742565b82525050565b613e6f8161474e565b82525050565b6000613e8082614679565b613e8a8185614684565b9350613e9a8185602086016147e7565b613ea381614953565b840191505092915050565b6000613eb982614679565b613ec38185614695565b9350613ed38185602086016147e7565b613edc81614953565b840191505092915050565b6000613ef4601283614695565b9150613eff82614964565b602082019050919050565b6000613f17600f83614695565b9150613f228261498d565b602082019050919050565b6000613f3a601d83614695565b9150613f45826149b6565b602082019050919050565b6000613f5d601d83614695565b9150613f68826149df565b602082019050919050565b6000613f80602483614695565b9150613f8b82614a08565b604082019050919050565b6000613fa3602d83614695565b9150613fae82614a57565b604082019050919050565b6000613fc6603183614695565b9150613fd182614aa6565b604082019050919050565b6000613fe9600e83614695565b9150613ff482614af5565b602082019050919050565b600061400c601f83614695565b915061401782614b1e565b602082019050919050565b600061402f601083614695565b915061403a82614b47565b602082019050919050565b60006101408301600083015161405e600086018261412d565b5060208301516140716020860182613e39565b506040830151614084604086018261412d565b506060830151614097606086018261412d565b5060808301516140aa6080860182613e39565b5060a08301516140bd60a0860182613e39565b5060c08301516140d060c086018261414b565b5060e083015184820360e08601526140e88282613e75565b9150506101008301518482036101008601526141048282613e75565b9150506101208301518482036101208601526141208282613e75565b9150508091505092915050565b6141368161479a565b82525050565b6141458161479a565b82525050565b614154816147a4565b82525050565b614163816147a4565b82525050565b600060208201905061417e6000830184613e48565b92915050565b60006040820190506141996000830185613e2a565b6141a6602083018461413c565b9392505050565b60006060820190506141c26000830186613e48565b6141cf6020830185613e48565b6141dc604083018461413c565b949350505050565b60006040820190506141f96000830185613e48565b614206602083018461413c565b9392505050565b60006060820190506142226000830186613e48565b61422f602083018561413c565b61423c604083018461413c565b949350505050565b60006080820190506142596000830187613e48565b614266602083018661413c565b614273604083018561413c565b614280606083018461413c565b95945050505050565b600060208201905061429e6000830184613e57565b92915050565b60006020820190506142b96000830184613e66565b92915050565b600060208201905081810360008301526142d98184613eae565b905092915050565b600060208201905081810360008301526142fa81613ee7565b9050919050565b6000602082019050818103600083015261431a81613f0a565b9050919050565b6000602082019050818103600083015261433a81613f2d565b9050919050565b6000602082019050818103600083015261435a81613f50565b9050919050565b6000602082019050818103600083015261437a81613f73565b9050919050565b6000602082019050818103600083015261439a81613f96565b9050919050565b600060208201905081810360008301526143ba81613fb9565b9050919050565b600060208201905081810360008301526143da81613fdc565b9050919050565b600060208201905081810360008301526143fa81613fff565b9050919050565b6000602082019050818103600083015261441a81614022565b9050919050565b6000602082019050818103600083015261443b8184614045565b905092915050565b6000602082019050614458600083018461413c565b92915050565b6000604082019050614473600083018561413c565b6144806020830184613e48565b9392505050565b600060608201905061449c600083018661413c565b6144a96020830185613e48565b6144b66040830184613e2a565b949350505050565b600060a0820190506144d3600083018861413c565b6144e06020830187613e48565b6144ed6040830186613e48565b6144fa606083018561413c565b614507608083018461413c565b9695505050505050565b600060c082019050614526600083018961413c565b6145336020830188613e48565b6145406040830187613e48565b61454d606083018661413c565b61455a608083018561415a565b61456760a083018461413c565b979650505050505050565b600061014082019050614588600083018d61413c565b614595602083018c613e48565b6145a2604083018b61413c565b6145af606083018a61413c565b6145bc6080830189613e48565b6145c960a0830188613e48565b6145d660c083018761415a565b81810360e08301526145e88186613eae565b90508181036101008301526145fd8185613eae565b90508181036101208301526146128184613eae565b90509b9a5050505050505050505050565b600061462d61463e565b9050614639828261484c565b919050565b6000604051905090565b600067ffffffffffffffff82111561466357614662614924565b5b61466c82614953565b9050602081019050919050565b600081519050919050565b600082825260208201905092915050565b600082825260208201905092915050565b60006146b18261479a565b91506146bc8361479a565b9250827fffffffffffffffffffffffffffffffffffffffffffffffffffffffffffffffff038211156146f1576146f06148c6565b5b828201905092915050565b60006147078261479a565b91506147128361479a565b925082821015614725576147246148c6565b5b828203905092915050565b600061473b8261477a565b9050919050565b60008115159050919050565b60007fffffffff0000000000000000000000000000000000000000000000000000000082169050919050565b600073ffffffffffffffffffffffffffffffffffffffff82169050919050565b6000819050919050565b600060ff82169050919050565b60006147bc826147c3565b9050919050565b60006147ce826147d5565b9050919050565b60006147e08261477a565b9050919050565b60005b838110156148055780820151818401526020810190506147ea565b83811115614814576000848401525b50505050565b6000600282049050600182168061483257607f821691505b60208210811415614846576148456148f5565b5b50919050565b61485582614953565b810181811067ffffffffffffffff8211171561487457614873614924565b5b80604052505050565b60006148888261479a565b91507fffffffffffffffffffffffffffffffffffffffffffffffffffffffffffffffff8214156148bb576148ba6148c6565b5b600182019050919050565b7f4e487b7100000000000000000000000000000000000000000000000000000000600052601160045260246000fd5b7f4e487b7100000000000000000000000000000000000000000000000000000000600052602260045260246000fd5b7f4e487b7100000000000000000000000000000000000000000000000000000000600052604160045260246000fd5b6000601f19601f8301169050919050565b7f546869732061736b20697320636c6f7365640000000000000000000000000000600082015250565b7f4f6e6c7920657363726f772063616e0000000000000000000000000000000000600082015250565b7f4f6e6c7920746f6b656e206f776e65722063616e20656469742061736b000000600082015250565b7f4f6e6c7920746f6b656e206f776e65722063616e206d616b652061736b000000600082015250565b7f4f6e6c7920657363726f77206f722062757965722063616e2063616c6c20627560008201527f794b534d00000000000000000000000000000000000000000000000000000000602082015250565b7f4e6f7420726967687420616d6f756e742073656e742c206861766520746f206260008201527f6520657175616c20707269636500000000000000000000000000000000000000602082015250565b7f4f6e6c7920657363726f77206f722062616c616e6365206f776e65722063616e60008201527f20776974686472617720616c6c204b534d000000000000000000000000000000602082015250565b7f4f6e6c79206f776e65722063616e000000000000000000000000000000000000600082015250565b7f5265656e7472616e637947756172643a207265656e7472616e742063616c6c00600082015250565b7f4e6f20737563682066756e6374696f6e00000000000000000000000000000000600082015250565b614b7981614730565b8114614b8457600080fd5b50565b614b9081614742565b8114614b9b57600080fd5b50565b614ba78161479a565b8114614bb257600080fd5b50565b614bbe816147a4565b8114614bc957600080fd5b5056fea264697066735822122044116179f34a2e7b9979b6f4c51c7cbef6255a168c20026c55b9712f9f1713fd64736f6c63430008040033",
  "immutableReferences": {},
  "source": "// SPDX-License-Identifier:  Apache License\npragma solidity >= 0.8.0;\nimport \"./interfaces/IERC721ext.sol\";\nimport \"@openzeppelin/contracts/token/ERC721/IERC721Receiver.sol\";\nimport \"@openzeppelin/contracts/utils/math/SafeMath.sol\";\nimport \"@openzeppelin/contracts/token/ERC20/IERC20.sol\";\n//import \"./Initializable.sol\";\n\n\ncontract MarketPlace is IERC721Receiver/* , Initializable */ {\n    using SafeMath for uint;\n    struct Order {\n        \n        uint256 idNFT;\n        address currencyCode; // UNIQ tokens as address address (1); wKSM \n        uint256 price;\n        uint256 time;\n        address idCollection;\n        address ownerAddr;\n        uint8 flagActive;\n        string name;\n        string symbol;\n        string tokenURI;        \n    }\n    Order[] public  orders;\n    uint test;\n    mapping (address => uint256) public balanceKSM;  //  [ownerAddr][currency] => [KSMs]\n    mapping (address => mapping (uint256 => uint256)) public  asks ; // [buyer][idCollection][idNFT] => idorder\n    mapping (address => mapping (uint => uint[])) public ordersbyNFT; // [addressCollection] =>idNFT =>idorder\n\n    mapping (address => uint[]) public asksbySeller; // [addressSeller] =>idorder\n\n    mapping (address =>bool) internal isEscrow;\n\n    //address escrow;\n    address owner;\n    address nativecoin;\n\n    // from abstract contract ReentrancyGuard \n    // Booleans are more expensive than uint256 or any type that takes up a full\n    // word because each write operation emits an extra SLOAD to first read the\n    // slot's contents, replace the bits taken up by the boolean, and then write\n    // back. This is the compiler's defense against contract upgrades and\n    // pointer aliasing, and it cannot be disabled.\n\n    // The values being non-zero value makes deployment a bit more expensive,\n    // but in exchange the refund on every call to nonReentrant will be lower in\n    // amount. Since refunds are capped to a percentage of the total\n    // transaction's gas, it is best to keep them low in cases like this one, to\n    // increase the likelihood of the full refund coming into effect.\n    uint8 private constant _NOT_ENTERED = 1;\n    uint8 private constant _ENTERED = 2;\n\n    uint8 private _status;\n\n    struct NFT {\n        address  collection;\n        uint256 id;\n    }\n    \n     //function initialize() public initializer {\n   constructor () { // call setEscrow directly\n        owner = msg.sender;\n\n         orders.push(Order(        \n                    0,\n                    address(0),\n                    0,\n                    0,\n                    address(0),\n                    address(0),\n                    0, \"\",\"\",\"\"));\n         _status = _NOT_ENTERED;\n\n    }\n\n    modifier nonReentrant() { // from abstract contract ReentrancyGuard \n        // On the first call to nonReentrant, _notEntered will be true\n        require(_status != _ENTERED, \"ReentrancyGuard: reentrant call\");\n\n        // Any calls to nonReentrant after this point will fail\n        _status = _ENTERED;\n\n        _;\n\n        // By storing the original value once again, a refund is triggered (see\n        // https://eips.ethereum.org/EIPS/eip-2200)\n        _status = _NOT_ENTERED;\n    }\n\n    modifier onlyEscrow () {\n        require(isEscrow [msg.sender] , \"Only escrow can\");\n        _;\n    }\n\n    modifier onlyOwner () {\n        require(msg.sender == owner, \"Only owner can\");\n        _;\n    }\n\n    /**\n    * Make bids (orders) to sell NFTs \n    */\n\n     \n    receive  () external payable onlyOwner {\n     //   revert (\"Can't accept payment without collection and IDs, use dApp to send\");\n    }\n    fallback () external payable {\n        revert (\"No such function\");\n    } \n\n    event AddedAsk (uint256 _price, \n                    address  _currencyCode, \n                    address _idCollection, \n                    uint256 _idNFT,\n                    uint256 orderId\n                  );\n    event EditedAsk (uint256 _price, \n                    address  _currencyCode, \n                    address _idCollection, \n                    uint256 _idNFT,\n                    uint8  _active,\n                    uint orderId);\n\n    event  CanceledAsk (address _idCollection, \n                        uint256 _idNFT, \n                        uint orderId\n                        );\n\n    event DepositedKSM (uint256 _amount,  address _sender);\n\n    event BoughtNFT4KSM (address _idCollection, uint256 _idNFT, uint orderID, uint orderPrice );\n\n    event BoughtNFT (address _idCollection, uint256 _idNFT, uint orderID, uint orderPrice );\n\n    event WithdrawnAllKSM (address _sender, uint256 balance); \n\n    event WithdrawnKSM (address _sender, uint256 balance); \n\n    event Withdrawn (uint256 _amount, address _currencyCode, address _sender);\n    \n\n   function setOwner  (address _newOwner) public onlyOwner {\n        owner = _newOwner;\n    }\n\n    function setEscrow  (address _escrow, bool _state) public onlyOwner returns (bool) {\n        if (isEscrow[_escrow] != _state)  {\n            isEscrow[_escrow] = _state;\n            return true;\n        }\n        return false;\n    }\n\n    function setNativeCoin  (address _coin) public onlyOwner {\n        nativecoin = _coin;\n    }\n\n\n    function addAsk (uint256 _price, \n                    address  _currencyCode, \n                    address _idCollection, \n                    uint256 _idNFT\n                  ) public  { //\n        address ownerNFT = IERC721ext(_idCollection).ownerOf(_idNFT);\n        require (ownerNFT == msg.sender, \"Only token owner can make ask\");\n        string memory nameNFT;\n        string memory symbolNFT;\n        string memory uriNFT;\n        try IERC721ext(_idCollection).name() returns (string memory name_) {\n            nameNFT = name_;\n        }\n        catch {\n            nameNFT=\"\";\n        }   \n        try IERC721ext(_idCollection).symbol() returns (string memory symbol_) {\n            symbolNFT = symbol_;\n        }\n        catch {\n            symbolNFT=\"\";\n        }  \n        try IERC721ext(_idCollection).tokenURI(_idNFT) returns (string memory uri_) {\n            uriNFT = uri_;\n        }\n        catch {\n            uriNFT=\"\";\n        }        \n        orders.push(Order(        \n                    _idNFT,\n                    _currencyCode,\n                    _price,\n                    block.timestamp,\n                    _idCollection,\n                    msg.sender,\n                    1, // 1 = is active\n                    nameNFT, \n                    symbolNFT,\n                    uriNFT\n             ));\n            \n            uint orderId = orders.length-1;\n            asks[_idCollection][_idNFT] = orderId;\n            asksbySeller[msg.sender].push(orderId);\n            IERC721ext(_idCollection).transferFrom(msg.sender, address(this), _idNFT);\n            emit AddedAsk(_price, _currencyCode, _idCollection, _idNFT, orderId);     \n    }\n\n    function editAsk (uint256 _price, \n                    address  _currencyCode, \n                    address _idCollection, \n                    uint256 _idNFT,\n                    uint8  _active) public {\n        \n\n        uint orderID =  asks[_idCollection][_idNFT];\n\n        require (orders[orderID].ownerAddr == msg.sender, \"Only token owner can edit ask\");\n        require (orders[orderID].flagActive != 0, \"This ask is closed\");\n        if (_price> 0 ) {\n            orders[orderID].price = _price ;  \n        }\n        \n        if (_currencyCode != address(0) ) {\n            orders[orderID].currencyCode = _currencyCode ;  \n        }\n\n        orders[orderID].time = block.timestamp;\n        orders[orderID].flagActive = _active;\n        \n        emit EditedAsk(_price, _currencyCode, _idCollection, _idNFT, _active, orderID);\n        }\n        \n\n    function cancelAsk (address _idCollection, \n                        uint256 _idNFT\n                        ) public {\n\n        uint orderID =  asks[_idCollection][_idNFT];\n\n        require (orders[orderID].ownerAddr == msg.sender, \"Only token owner can edit ask\");\n        require (orders[orderID].flagActive != 0, \"This ask is closed\");\n\n        orders[orderID].time = block.timestamp;\n        orders[orderID].flagActive = 0;\n        IERC721ext(_idCollection).transferFrom(address(this),orders[orderID].ownerAddr, _idNFT);\n        emit CanceledAsk(_idCollection, _idNFT, orderID);\n        }\n\n\n    function depositKSM (uint256 _amount,  address _sender) public onlyEscrow {\n\n        balanceKSM[_sender]= balanceKSM[_sender].add(_amount);\n        emit DepositedKSM(_amount, _sender);\n    }\n\n    function buyKSM (address _idCollection, uint256 _idNFT, address _buyer, address _receiver ) public {\n        \n        Order memory order = orders[ asks[_idCollection][_idNFT]];\n        require(isEscrow[msg.sender]  || msg.sender == _buyer, \"Only escrow or buyer can call buyKSM\" );\n        //1. reduce balance\n\n        balanceKSM[_buyer] = balanceKSM[_buyer].sub( order.price, \"Insuccificient KSMs funds\");\n        balanceKSM[order.ownerAddr] = balanceKSM[order.ownerAddr].add( order.price);\n        // 2. close order\n        orders[ asks[_idCollection][_idNFT]].flagActive = 0;\n        // 3. transfer NFT to buyer\n        IERC721ext(_idCollection).transferFrom(address(this), _receiver, _idNFT);\n        emit BoughtNFT4KSM(_idCollection, _idNFT, asks[_idCollection][_idNFT], order.price);\n\n    }\n    function buy (address _idCollection, uint256 _idNFT ) public payable returns (bool result) { //buing for UNQ like as ethers \n        \n        Order memory order = orders[asks[_idCollection][_idNFT]]; \n        //1. check sent amount and send to seller\n        require (msg.value == order.price, \"Not right amount sent, have to be equal price\" );     \n        // 2. close order\n        orders[ asks[_idCollection][_idNFT]].flagActive = 0;\n        \n        // 3. transfer NFT to buyer\n        IERC721ext(_idCollection).transferFrom(address(this), msg.sender, _idNFT);\n        //uint balance  = address(this).balance;\n        result = payable(order.ownerAddr).send (order.price); \n        emit BoughtNFT(_idCollection, _idNFT, asks[_idCollection][_idNFT], order.price);\n        \n    }\n\n/* \n    function buyOther (address _idCollection, uint256 _idNFT, address _currencyCode, uint _amount ) public  { //buy for sny token if seller wants\n        \n        Order memory order = orders[ asks[_idCollection][_idNFT]];\n        //1. check sent amount and transfer from buyer to seller\n        require (order.price == _amount && order.currencyCode == _currencyCode, \"Not right amount or currency sent, have to be equal currency and price\" );\n        // !!! transfer have to be approved to marketplace!\n        IERC20(order.currencyCode).transferFrom(msg.sender, address(this), order.price); //to not disclojure buyer's address \n        IERC20(order.currencyCode).transfer(order.ownerAddr, order.price);\n        // 2. close order\n        orders[ asks[_idCollection][_idNFT]].flagActive = 0;\n        // 3. transfer NFT to buyer\n        IERC721ext(_idCollection).transferFrom(address(this), msg.sender, _idNFT);\n\n\n    }\n */\n\n    function withdrawAllKSM (address _sender) public  nonReentrant returns (uint lastBalance ){\n        require(isEscrow[msg.sender]  || msg.sender == _sender, \"Only escrow or balance owner can withdraw all KSM\" );\n\n        lastBalance = balanceKSM[_sender];\n        balanceKSM[_sender] =0;\n        emit WithdrawnAllKSM(_sender, lastBalance);\n    }\n\n    function withdrawKSM (uint _amount, address _sender) onlyEscrow public returns (uint lastBalance ) {\n        lastBalance = balanceKSM[_sender].sub(_amount);\n        emit WithdrawnKSM(_sender, lastBalance);\n        \n    }\n\n    function withdraw (uint256 _amount, address _currencyCode) public  nonReentrant returns (bool result ){ //onlyOwner\n        address payable _sender = payable( msg.sender);\n        if (_currencyCode != nativecoin ) { //erc20 compat. tokens on UNIQUE chain\n            // uint balance = IERC20(_currencyCode).balanceOf(address(this));\n            IERC20(_currencyCode).transfer(_sender, _amount);\n        } else {\n            // uint balance  = address(this).balance;\n\n            result =  (_sender).send(_amount); // for UNQ like as ethers \n        }\n        emit Withdrawn(_amount, _currencyCode, _sender);\n        return result;\n\n    }\n   // event GettedOrder(uint , Order);\n    function getOrder (address _idCollection, uint256 _idNFT) public view returns (Order memory) {\n        uint orderId = asks[_idCollection][_idNFT];\n        Order memory order = orders[orderId];\n //       emit GettedOrder (orderId, order);\n        return order;\n    }\n\n    function getOrdersLen () public view returns (uint) {\n        return orders.length;\n    }\n\n    function onERC721Received(address operator, address from, uint256 tokenId, bytes calldata data)  public override pure returns(bytes4) {\n            return bytes4(keccak256(\"onERC721Received(address,address,uint256,bytes)\"));\n        }\n     \n    //TODO make destructing function to return all \n    function terminate(address[] calldata tokens, NFT[] calldata nfts) public onlyOwner {\n    // Transfer tokens to owner (TODO: error handling)\n        for (uint i = 0; i < tokens.length; i++) {\n            address addr = tokens[i];\n            IERC20 token = IERC20(addr);\n            uint256 balance = token.balanceOf(address(this));\n            token.transfer(owner, balance);\n        }\n        for (uint i = 0; i < nfts.length; i++) {\n            address addr = nfts[i].collection;\n            IERC721ext token = IERC721ext(addr);\n            token.transferFrom(address(this), owner, nfts[i].id);\n            \n    // Transfer Eth to owner and terminate contract\n        payable(owner).transfer(address(this).balance);\n        }\n    } \n    \n}",
  "sourcePath": "/mnt/512-2/Uniq/unique-marketplace-contracts/contracts/MarketPlace.sol",
  "compiler": {
    "name": "solc",
    "version": "0.8.4+commit.c7e474f2.Emscripten.clang"
  },
  "schemaVersion": "3.4.4",
  "updatedAt": "2022-01-26T09:07:20.298Z",
  "networkType": "ethereum",
  "devdoc": {
    "kind": "dev",
    "methods": {
      "onERC721Received(address,address,uint256,bytes)": {
        "details": "Whenever an {IERC721} `tokenId` token is transferred to this contract via {IERC721-safeTransferFrom} by `operator` from `from`, this function is called. It must return its Solidity selector to confirm the token transfer. If any other value is returned or the interface is not implemented by the recipient, the transfer will be reverted. The selector can be obtained in Solidity with `IERC721.onERC721Received.selector`."
      }
    },
    "version": 1
  },
  "userdoc": {
    "kind": "user",
    "methods": {},
    "version": 1
  }
}